:020000040800F2
:1000000000060020A102000869100008E90F00089E
:1000100041100008E90F000815100008A3020008AD
:10002000A3020008A3020008A3020008A52A0008F2
:10003000A3020008A3020008A3020008A30200080C
:10004000A3020008A3020008A3020008A3020008FC
:10005000A3020008A3020008613F00088D3F0008CA
:10006000B93F0008E53F000811400008A30200085E
:10007000A3020008A3020008A3020008A3020008CC
:10008000A3020008A3020008A3020008A3020008BC
:10009000A3020008A3020008A30200083D400008D4
:1000A000A3020008A3020008A3020008A30200089C
:1000B000A3020008A3020008A3020008A30200088C
:1000C000A3020008A3020008A3020008A30200087C
:1000D000A3020008A30200081541000829410008F6
:1000E000A1400008A3020008A3020008A302000820
:1000F000A3020008A3020008A3020008A30200084C
:10010000A3020008A302000851410008A30200084E
:10011000A3020008A3020008A3020008A30200082B
:10012000A3020008A3020008A3020008A30200081B
:10013000A3020008A3020008A3020008A30200080B
:10014000A3020008A3020008A3020008A3020008FB
:10015000A3020008A3020008A3020008A3020008EB
:10016000A3020008A3020008A3020008A3020008DB
:10017000A302000849360008A3020008A3020008F1
:10018000A3020008A30200083D410008A3020008E2
:10019000A3020008A3020008A3020008A3020008AB
:1001A000A3020008A3020008A3020008A30200089B
:1001B000A3020008A3020008A3020008A30200088B
:1001C000A3020008A3020008A3020008A30200087B
:1001D000A302000835360008A3020008A3020008A5
:1001E000A3020008A3020008A3020008A30200085B
:1001F000A3020008A3020008A3020008A30200084B
:10020000A3020008A3020008A3020008A30200083A
:10021000A3020008A3020008A3020008A30200082A
:10022000A3020008A3020008A3020008A30200081A
:10023000A3020008A3020008A3020008A30200080A
:10024000A3020008A3020008A3020008A3020008FA
:10025000A3020008A3020008A3020008A3020008EA
:10026000A3020008A3020008A3020008A3020008DA
:10027000A3020008A3020008A3020008A3020008CA
:10028000A3020008A3020008A3020008A3020008BA
:10029000A3020008A3020008A3020008A3020008AA
:1002A00002E000F000F8FEE772B63A4880F30888F2
:1002B000394880F3098839484EF60851CEF20001DA
:1002C000086040F20000CCF200004EF63471CEF22D
:1002D00000010860BFF34F8FBFF36F8F40F2000043
:1002E000C0F2F0004EF68851CEF200010860BFF374
:1002F0004F8FBFF36F8F4FF00000E1EE100A4EF604
:100300003C71CEF200010860062080F31488BFF330
:100310006F8F02F089FC02F029FC03F0DFFB4FF045
:1003200055301F491B4A91423CBF41F8040BFAE784
:100330001C49194A91423CBF41F8040BFAE71A499B
:100340001A4A1B4B9A423EBF51F8040B42F8040B69
:10035000F8E700201749184A91423CBF41F8040BC6
:10036000FAE702F047FC03F039FC144C144DAC42A0
:1003700003DA54F8041B8847F9E700F041F8114C00
:10038000114DAC4203DA54F8041B8847F9E702F038
:100390002FBC000000060020002200200000000802
:1003A00000000020000600209045000800220020E8
:1003B0005C22002060220020D44F0020A002000810
:1003C000A0020008A0020008A00200082DE9F04FDA
:1003D0002DED108AC1F80CD0D0F80CD0BDEC108AED
:1003E000BDE8F08F002383F311882846A047002042
:1003F00001F03EFFFEE701F09BFE00DFFEE700009C
:1004000038B500F003FD30B1164B00220E211A72F0
:100410005A729972DA7202F003FB044602F038FB5A
:100420000546D0B9104B9C4219D001339C4241F291
:10043000883412BF054600240125002002F0FAFA94
:100440000DB100F05BF800F06FFD00F027FC2046D6
:1004500000F014F900F052F8F9E70024EDE7044643
:10046000EBE700BF00220020010007B008B500F054
:10047000E1FBA0F120035842584108BD054B07B5E8
:100480001B88022101A8ADF8043000F0F1FB03B095
:100490005DF804FB3442000810B5202383F3118873
:1004A0001248C3680BB101F06BFF0023104A4FF4F0
:1004B0007A710E4801F026FF002383F311880D4C5A
:1004C000236813B12368013B2360636813B1636839
:1004D000013B6360084B1B7833B9636823B9022082
:1004E00000F09AFC3223636010BD00BF6022002040
:1004F000990400087C23002074220020554B5649A3
:100500002DE9F04153F8042F013201D1BDE8F0810B
:100510008B42F7D1514C524B22689A4240F298805C
:10052000504B9B6803F1006303F500339A4280F05F
:100530008F80002000F0CEFB02204B4B187000F0A3
:1005400069FC4A4BD3F8E8200022C3F8E820D3F82E
:100550001011C3F81021D3F81011D3F8EC10C3F820
:10056000EC20D3F81411C3F81421D3F81411D3F8E4
:10057000F010C3F8F020D3F81811C3F81821D3F8FD
:100580001811D3F8801041F00061C3F88010D3F83F
:10059000801021F00061C3F88010D3F88010D3F8E8
:1005A000801041F00071C3F88010D3F8801021F062
:1005B0000071C3F88010D3F8803072B62C4B2D49EF
:1005C0000B601D682468BFF34F8FBFF36F8F2A4BFA
:1005D000C3F88420BFF34F8F5A6922F480325A61E6
:1005E000BFF34F8FD3F8802043F6E07EC2F3C906F5
:1005F000C2F34E32B707520102EA0E0838463146BE
:10060000013948EA000C00F14040B1F1FF3FC3F866
:1006100074C2F5D1203A12F1200FEDD1BFF34F8F04
:10062000BFF36F8FBFF34F8FBFF36F8F5A6922F401
:1006300000325A610022C3F85022BFF34F8FBFF33C
:100640006F8F202383F31188AD4685F308882047F8
:10065000BDE8F081FCFF01081C000208040002084C
:10066000FFFF0108002200207422002000440258ED
:100670000000020808ED00E000ED00E02DE9F04F79
:1006800099B0BB4D2022FF21009010A8AC6800F06B
:10069000EDFBB84A01951378A3B90121B648117052
:1006A000C360202383F31188C3680BB101F068FE97
:1006B0000023B24A4FF47A71AF4801F023FE0023C1
:1006C00083F31188009BAE4A03B113600026AD4B43
:1006D000009DB2463746B1461E7056600293012017
:1006E00000F098FB002D00F02B82A54B1B68002B1F
:1006F00040F0268219B0BDE8F08F0220FFF7B6FE69
:10070000002840F01682009B02210BA8002E08BF93
:100710001D469D4B1B88ADF82C3000F0A9FADEE792
:100720004FF47A7000F086FAB0F10008EBDB02209B
:10073000FFF79CFE0028E6D008F1FF38B8F1050F5E
:1007400000F2F981DFE808F0030B0E11143718A846
:100750000523042140F8343D00F08AFA17E0042113
:100760008348F9E704218948F6E704218848F3E73C
:100770004FF01C09484609F1040900F0ADFA0421C4
:100780000B900BA800F074FAB9F12C0FF2D10123F1
:100790004FF0000903FA08F848EA0A0A5FFA8AFAF1
:1007A00000F0B8FB27B10AF00B030B2B08BF0025A4
:1007B000FFF764FE93E704217648CDE7002FA2D02F
:1007C0000AF00B030B2B9ED10220FFF74FFE804651
:1007D000002898D001206B4E00F07CFA0027022000
:1007E000307000F017FB5FFA87FB584600F082FA82
:1007F000054688B15846013700F08CFA0028F2D13E
:1008000046460025644B02210BA847461B88ADF8DD
:100810002C3000F02DFA62E701232C4602203370C1
:1008200000F0F6FA019B9B689C4206D2204600F03D
:1008300053FA0130E4D10434F4E70024029B464625
:1008400047461C7025464E4B5C60A9E7002F3FF4DD
:100850005AAF0AF00B030B2B7FF455AF0220029B1B
:10086000187000F0D7FA322000F0E4F9B0F1000B74
:10087000FFF649AF1BF003087FF445AF019B04EB83
:100880000B0299688A423FF63EAFBBF5807F3FF688
:100890003AAF424AD84503920FDA4FF47A7000F02B
:1008A000C9F9049004990029FFF62DAF0499039A21
:1008B00008F8021008F10108ECE7C820FFF7D6FDA0
:1008C000804600283FF41FAF1F2C11D8C4F1200729
:1008D00010AB24F0030031495F45184428BF5F4640
:1008E0003A4600F09BFA3A46FF212C4800F0BEFA47
:1008F0004FEAAB0329492046DAB2039300F0BEFA6F
:10090000074600283FF47EAF039B04EB830447E7D0
:100910000220FFF7ABFD00283FF4F5AE00F014FA1B
:1009200000283FF4F0AE4FF000084346019A926869
:10093000904535D2B8F11F0F12D8109A01320FD05E
:1009400028F0030218A90A4452F8202C0B921846EA
:1009500004220BA908F1040800F088FB0346E5E730
:100960004046039300F0B8F9039B0B90EFE700BFFC
:100970000022002078230020602200209904000833
:100980007C2300207422002036420008042200202C
:10099000082200200C220020384200087822002083
:1009A00018A8042140F84C3D00F062F9F8E618A8B8
:1009B0000023642140F8343D00F050F900287FF412
:1009C000A2AE0220FFF752FD00283FF49CAE0B9828
:1009D00000F0B2F918AB43F8480D04211846E3E7DC
:1009E00018A80023642140F8343D00F037F90028AE
:1009F0007FF489AE0220FFF739FD00283FF483AE73
:100A00000B9800F09BF918AB43F8440DE5E7022082
:100A1000FFF72CFD00283FF476AE00F0A5F918ABE7
:100A200043F8400DD9E70220FFF720FD00283FF4EE
:100A30006AAE0BA9142000F09DF9804618A8042185
:100A400040F83C8D00F014F941460BA8ACE7322089
:100A500000F0F0F8B0F10008FFF655AE18F0030F03
:100A60007FF451AE019A08EB0903926893423FF676
:100A70004AAE0220FFF7FAFC00283FF444AE28F00B
:100A80000308C844C1453FF48BAE484609F1040948
:100A900000F022F904210A900AA800F0E9F8F1E731
:100AA0004FF47A70FFF7E2FC00283FF42CAE00F020
:100AB0004BF9002842D0109B01330BD0082210A91B
:100AC000002000F0DBF9002838D02022FF2110A8F8
:100AD00000F0CCF9FFF7D2FC3A4801F0CFFB09E671
:100AE000002F3FF410AE0AF00B030B2B7FF40BAE7C
:100AF00018A80023642140F8343D00F0AFF8804688
:100B000000287FF400AE0220FFF7B0FC00283FF47D
:100B1000FAAD0390FFF7B2FC41F28830454601F090
:100B2000ADFB0B9800F040FA00F0F4F9039B1F4670
:100B3000D5E5074634E64FF00009E4E5B84661E63E
:100B4000002000F077F80490049B002BFFF6CAAD5C
:100B5000012000F05DF9049B213B162B3FF6BFAD51
:100B600001A252F823F000BFFB060008210700088D
:100B7000BD070008DF060008DF060008DF060008E2
:100B80004D0800084F0A000811090008AF090008C5
:100B9000E10900080F0A0008DF060008270A00081C
:100BA000DF060008A10A0008A1070008DF06000808
:100BB000E10A000807070008A1070008DF0600088F
:100BC000AF090008A08601002DE9F84F4FF47A75AF
:100BD00007460E4600245543DFF85080DFF850905A
:100BE00098F900305FFA84FA5A1C01D0A34210D160
:100BF00059F82400324639460368D3F820B02B4612
:100C0000D847864205D1084B012083F800A0BDE8F3
:100C1000F88F0134042CE3D14FF4FA7001F02EFB6D
:100C20000020BDE8F88F00BFC8230020102200205C
:100C30003C42000807B5002202AB012103F8012D58
:100C400002461846FFF7C0FF20B19DF8070003B029
:100C50005DF804FB4FF0FF30F9E700000A4604217D
:100C600008B5FFF7B1FF80F00100C0B2404208BDF7
:100C7000074B30B41A78074B53F822400A46014616
:100C800023682046DD69044BAC4630BC604700BF9A
:100C9000C82300203C420008A0860100F8B50A4C99
:100CA00000250A4E01F092FD094F2080306823880C
:100CB000834207D901F086FD336805440133BD4204
:100CC0003360F3D9F8BD00BFCA230020842300207D
:100CD000FFFF010001F058BE00F1006000F5003098
:100CE0000068704700F10060920000F5003001F0EC
:100CF000CFBD0000054B1A68054B1B889B1A834229
:100D000002D9104401F05EBD00207047842300200A
:100D1000CA23002038B5074D04462868204401F056
:100D200057FD28B928682044BDE8384001F062BD6D
:100D300038BD00BF8423002000207047014BC058FD
:100D4000704700BF00E8F11F064991F8243033B125
:100D500000230822086A81F82430FFF7C3BF01206E
:100D6000704700BF88230020014B1868704700BF00
:100D70000010005C234BF0B5234C1B682788C3F39D
:100D80000B0665681B0C94F90820BE4228D0A78981
:100D9000BE4206D101220C2505FB0244656894F988
:100DA000082041F20104A3421CD041F20304A342F3
:100DB0001AD042F20104A34218D042F20304A34223
:100DC00008BF5622441E013D0B460C44A34217D2D5
:100DD00015F9016F581C5EB1034600F8016CF5E788
:100DE0000022D8E75A22EDE75922EBE75822E9E73B
:100DF0002C2584421D7001D9981C5A70401AF0BDF0
:100E00001846FBE70010005C142200200020704709
:100E1000704700007047000070470000002310B5C5
:100E2000934203D0CC5CC4540133F9E710BD0000F9
:100E300030B5441E14F9010F0B4658B193F9005018
:100E40000131854206D11AB993F90020801A30BDCC
:100E5000013AEFE7002AF7D1104630BD02460346BB
:100E6000981A13F9011B0029FAD17047024403466E
:100E7000934202D003F8011BFAE770472DE9F047CF
:100E8000234C05468846174694F8243083BB2E46EB
:100E9000DFF87C90C7B394F824302BB92022FF21CF
:100EA00048462662FFF7E2FF94F824004146C0F16D
:100EB000080504EB8000BD4228BF3D465FFA85FA75
:100EC000AD00A7EB0A072A462E44FFF7A7FF94F8C8
:100ED0002430A844FFB29A445FFA8AFABAF1080FA4
:100EE00084F824A0D6D1FFF72FFF0028D2D108E044
:100EF000266A06EB8306B042CAD0FFF725FF00281A
:100F0000C5D10020BDE8F0870120BDE8F08700BF13
:100F100088230020024B1A78024B1A70704700BFDA
:100F2000C823002010220020F8B5194C194800F001
:100F30007FFC2146174800F0A7FC24681648D4F827
:100F40009020164DD2F80438154E43F00203114F8D
:100F5000C2F8043801F092F92046124900F0A6FDCB
:100F6000D4F890200024D2F8043823F00203C2F809
:100F700004384FF4E1332B6056F82400B84202D015
:100F8000294600F0B3FB0134042CF5D1F8BD00BFB5
:100F90004C430008C832002040420F00B02300201C
:100FA0003C4200087843000838B50B4B05461A78D8
:100FB0000A4B53F822400A4B9C420CD0094B0021AB
:100FC00018221846FFF752FF056001462046BDE88B
:100FD000384000F08BBB38BDC82300203C420008DD
:100FE000C8320020B023002000B59BB0EFF3098188
:100FF00068226846FFF712FFEFF30583044B9A6BF4
:10100000DA6A9A6A9A6A9A6A9A6A9A6A9B6AFEE79E
:1010100000ED00E000B59BB0EFF30981682268465F
:10102000FFF7FCFEEFF30583044B9A6B9A6A9A6A0A
:101030009A6A9A6A9A6A9B6AFEE700BF00ED00E02E
:1010400000B59BB0EFF3098168226846FFF7E6FE22
:10105000EFF30583034B5A6B9A6A9A6A9A6A9A6A03
:101060009B6AFEE700ED00E0FEE7000030B50A44B1
:10107000074D91420BD011F8013B09245840013C27
:10108000F7D040F300032B4083EA5000F7E730BD70
:101090002083B8ED026843681143016003B118472B
:1010A00070470000024A136843F0C00313607047A2
:1010B00000440040024A136843F0C00313607047C5
:1010C00000480040024A136843F0C00313607047B1
:1010D0000078004037B5274C274D204600F0FAFA3B
:1010E000009404F1140000234FF40072234900F02F
:1010F000BBF900944FF40072214904F13800214BF0
:1011000000F034FA204B2566E365204C204600F0C1
:10111000E1FA009404F1140000234FF400721C491A
:1011200000F0A2F900944FF400721A4904F138005B
:10113000194B00F01BFA194B2566E365184C204645
:1011400000F0C8FA04F11400009400234FF4007278
:10115000144900F089F90094134B4FF400721349BD
:1011600004F1380000F002FA114B2566E36503B084
:1011700030BD00BFCC23002000E1F5051025002084
:10118000102B0020A5100008004400403824002047
:1011900010270020102D0020B51000080048004046
:1011A000A424002010290020C5100008102F0020C2
:1011B00000780040344B002908BF1946037C012BFE
:1011C00030B511D1314B98423BD1314BD3F8E820A7
:1011D00042F40032C3F8E820D3F8102142F4003280
:1011E000C3F81021D3F810310A68036EC46D03EB05
:1011F00052038166B3FBF2F34A68150442BF23F041
:10120000070503F0070343EA4503E3608B6843F0F7
:1012100040036360CB68510543F00103A36042F4CF
:10122000967343F0010323604FF0FF33236205D52B
:1012300012F0102223D0B2F1805F22D080F8643007
:1012400030BD144B98420BD1114BD3F8E82042F437
:101250008022C3F8E820D3F8102142F48022BFE7AF
:101260000D4B9842C0D10A4BD3F8E82042F080429F
:10127000C3F8E820D3F8102142F08042B0E77F2382
:10128000DCE73F23DAE700BF68420008CC230020F8
:101290000044025838240020A42400202DE9F047FF
:1012A000C66D05463768F469200734621AD014F019
:1012B000080F0CBF00218021E20748BF41F0200148
:1012C000A3074FF0200348BF41F04001600748BF2B
:1012D00041F4807183F31188281DFFF7DBFE0023A2
:1012E00083F31188E2050AD5202383F311884FF494
:1012F0000071281DFFF7CEFE002383F311884FF005
:1013000020094FF0000A14F0200831D13B0616D511
:101310004FF0200905F1380A200610D589F311880D
:10132000504600F057F900282FDA0821281DFFF752
:10133000B1FE27F080033360002383F31188790620
:101340000DD562060BD5202383F31188EA6C2B6D33
:101350009A4201D12B6CEBB9002383F31188E30689
:1013600020D5AA6E1369EBB15069BDE8F047184764
:1013700089F31188736A284695F86410194000F0C3
:10138000C3F98AF31188F469BDE7B06288F3118864
:10139000F469C1E727F040071021281DFFF77AFE06
:1013A0003760D9E7BDE8F087F8B51546826804468E
:1013B0000B46AA4200D28568A1692669761AB54211
:1013C00007D218462A46FFF729FDA3692B44A361DB
:1013D0000DE011D9AF1B32461846FFF71FFD3A4604
:1013E000E1683044FFF71AFDE2683A44A261A3685D
:1013F00028465B1BA360F8BD18462A46FFF70EFD82
:10140000E368E4E7836893422DE9F04104460F4620
:10141000154600D2856860692669361AB54207D23A
:101420002A463946FFF7FAFC63692B4463610EE0F4
:1014300013D9A5EB060832463946FFF7EFFC4246C2
:10144000B919E068FFF7EAFCE26842446261A36808
:1014500028465B1BA360BDE8F0812A463946FFF7AA
:10146000DDFCE368E2E7000010B50A440024C36134
:10147000029B006040608460C160816141610261E3
:10148000036210BD08B582694369934201D1826845
:1014900082B98268013282605A1C426119704269C5
:1014A00003699A4201D3C3684361002100F002FF3F
:1014B000002008BD4FF0FF3008BD000070B52023AC
:1014C00004460E4683F31188A568A5B1A368A269F6
:1014D000013BA360531CA36115782269934224BF8A
:1014E000E368A361E3690BB120469847002383F3C7
:1014F0001188284670BD3146204600F0CBFE0028FA
:10150000E2DA85F3118870BD2DE9F74F05460F46E5
:1015100090469A46D0F81C90202686F311884FF00A
:10152000000B144664B1224639462846FFF73CFFBB
:10153000034668B95146284600F0ACFE0028F1D0B9
:10154000002383F31188A8EB040003B0BDE8F08FFB
:10155000B9F1000F03D001902846C847019B8BF3D7
:101560001188E41A1F4486F31188DBE7C1608161AA
:1015700041611144C361009B006040608260016171
:1015800003627047F8B504460E461746202383F3DE
:101590001188A568A5B1A368013BA36063695A1CC3
:1015A00062611E70236962699A4224BFE3686361C5
:1015B000E3690BB120469847002080F31188F8BDFD
:1015C0003946204600F066FE0028E2DA85F31188ED
:1015D000F8BD0000836942699A4210B501D1826862
:1015E0007AB98268013282605A1C82611C78036970
:1015F0009A4201D3C3688361002100F05BFE20465C
:1016000010BD4FF0FF3010BD2DE9F74F05460F46D6
:1016100090469A46D0F81C90202686F311884FF009
:10162000000B144664B1224639462846FFF7EAFE0D
:10163000034668B95146284600F02CFE0028F1D038
:10164000002383F31188A8EB040003B0BDE8F08FFA
:10165000B9F1000F03D001902846C847019B8BF3D6
:101660001188E41A1F4486F31188DBE70268436897
:101670001143016003B11847704700001430FFF7B1
:1016800043BF00004FF0FF331430FFF73DBF0000B1
:101690003830FFF7B9BF00004FF0FF333830FFF7A5
:1016A000B3BF00001430FFF709BF00004FF0FF3157
:1016B0001430FFF703BF00003830FFF763BF0000AE
:1016C0004FF0FF323830FFF75DBF00000020704759
:1016D000FFF700BD044B0360002343608360C360D9
:1016E00001230374704700BF8042000810B5202317
:1016F000044683F31188FFF75DFD02232374002362
:1017000083F3118810BD000038B5C36904460D4647
:101710001BB904210844FFF7A9FF294604F114006E
:10172000FFF7B0FE002806DA201D4FF48061BDE807
:101730003840FFF79BBF38BD026843681143016022
:1017400003B118477047000037B5446B41F6A40554
:1017500063591A681178042914D1217C022911D106
:101760001979012312898B4013420BD101A904F18D
:101770004C0002F0B1F864590246019B21792068BF
:1017800000F0ECF903B030BD143002F035B80000C1
:101790004FF0FF33143002F02FB800004C3002F04D
:1017A00007B900004FF0FF334C3002F001B90000E0
:1017B000143002F003B800004FF0FF31143001F094
:1017C000FDBF00004C3002F0D3B800004FF0FF32F4
:1017D0004C3002F0CDB8000070B541F6A4060546C5
:1017E000825913681978042901D0012070BD017C49
:1017F0000229FAD1527901205C8990400440F4D149
:1018000005F1140001F094FF02460028EDD0AD5917
:101810004FF440732868697900F08EF9204670BD56
:10182000406BFFF7D9BF00000020704770470000F1
:101830007FB5124B0125042604460360002305747E
:1018400000F18402436029468360C3600C4B029020
:10185000143001934FF44073009601F045FF094B9B
:1018600004F694422946019304F14C004FF440736E
:101870000294009602F00CF804B070BDA842000873
:1018800021180008491700080A68202383F31188EB
:101890000B790B3342F823004B79133342F82300C2
:1018A0008B7913B10B3342F8230041F6A403C150E6
:1018B00002230374002383F31188704738B5037F34
:1018C000044613B190F85430ABB90125201D022114
:1018D000FFF732FF04F1140025776FF0010100F0EB
:1018E000F5FC84F8545004F14C006FF00101BDE8A0
:1018F000384000F0EBBC38BD10B50121044604307F
:10190000FFF71AFF0023237784F8543010BD00003E
:1019100038B504460025143001F0FEFE04F14C00F9
:10192000257701F0CDFF201D84F854500121FFF7E9
:1019300003FF2046BDE83840FFF74EBF90F88030E7
:1019400003F06003202B19D190F88120212A0AD0BE
:10195000222A4FF000030ED0202A0FD1084A4267F6
:101960000722826704E0064B43670723836700234F
:10197000C3670120704743678367F9E7002070471A
:101980002C22002073B541F6A405044643591A6879
:101990001178042919D1017C022916D11979012362
:1019A00012898B40134210D100F14C06304602F0F0
:1019B00047F850B101A9304601F08EFF6459024644
:1019C000019B2179206800F0C9F802B070BD0000C9
:1019D00001F10B03F7B550F8234005460E46F4B16C
:1019E000202383F3118805EB8607201D08214C3442
:1019F000FFF7A2FEFB685B691B6813B1204601F08C
:101A000079FF01A9204601F067FF024648B1019B1A
:101A10003146284600F0A2F8002383F3118803B072
:101A2000F0BDFB685A691268002AF5D01B8A013B99
:101A30001340F1D105F18002EAE70000133138B517
:101A400050F82140E4B1202383F3118841F6A40328
:101A5000E2581368527903EB8203DB689B695D6887
:101A600045B104216018FFF767FE294604F1140010
:101A700001F068FE2046FFF7AFFE002383F31188D4
:101A800038BD00007047000001F04AB9012300F1A1
:101A9000300200F1500103700023436042F8043B20
:101AA0008A42D361FAD103814381704738B5044635
:101AB000202383F31188002500F10C0300F130028C
:101AC000416043F8045B9342FBD1204601F04AF9A0
:101AD0000223237085F3118838BD000070B500EB38
:101AE0008103054650690E461446DA6018B110228B
:101AF0000021FFF7BBF9A06918B110220021FFF700
:101B0000B5F931462846BDE8704001F03DBA000005
:101B1000038900F13002002103F0010303814389AE
:101B200003F00103438100F1100343F8041B9342C7
:101B3000FBD101F0C1BA0000F0B4012500EB810433
:101B400047898D40E4683D43A469458123600023B3
:101B5000A2606360F0BC01F0DDBA0000F0B40125C2
:101B600000EB810407898D40E4683D436469058189
:101B700023600023A2606360F0BC01F055BB00004D
:101B8000022300F10C0200F1300110B5037004468D
:101B90000023A0F8883080F88A3080F88B300381E9
:101BA000438142F8043B8A42FBD184F870302046DE
:101BB00001F07EF963681B6823B120460021BDE86F
:101BC0001040184710BD0000037880F88C300523C2
:101BD000037043681B6810B504460BB10421984795
:101BE00000232381638110BD436890F88C201B681B
:101BF00002700BB1052118477047000090F8703053
:101C000070B5044613B1002380F8703004F18002EF
:101C1000204601F075FA63689B6863BB94F88050B6
:101C200015F0600615D194F8813005F07F0545EA7E
:101C3000032540F202339D4200F00E815BD8022D55
:101C400000F0DC803FD8002D00F08780012D00F0EF
:101C5000CF800021204601F00DFD0021204601F03B
:101C6000FDFC63681B6813B10621204698470623D4
:101C700084F8703070BD204698470028CED094F884
:101C8000872094F8863043EA0223A26F934238BF3C
:101C9000A36794F98030A56F002B4FF0200380F2EA
:101CA000FD80002D00F0EC80092284F8702083F381
:101CB00011880021A36F626F2046FFF74FFF0023BA
:101CC00083F3118870BDB5F5817F00F0B180B5F563
:101CD000407F49D0B5F5807FBBD194F88230012B8D
:101CE000B7D1B4F8883023F00203A4F888306667CF
:101CF000A667E667C3E740F201639D421ED8B5F5CB
:101D0000C06F3BD2B5F5A06FA3D1B4F88030B3F566
:101D1000A06F0ED194F88230204684F88A3001F00A
:101D200025F963681B6813B10121204698470323F6
:101D3000237000236367A367E367A0E7B5F5106F1F
:101D400032D040F602439D4252D0B5F5006F80D1AB
:101D500004F18B036367012324E004F18803E56742
:101D600063670223A3678AE794F88230012B7FF42C
:101D700070AFB4F8883043F00203B6E794F88520DA
:101D80002046616894F884304D6843EA022394F851
:101D9000831094F88220A84700283FF45AAF436884
:101DA00063670368A367A4E72378042B10D120237B
:101DB00083F311882046FFF7ABFE86F31188636832
:101DC000032184F88B601B6821700BB12046984773
:101DD00094F88230002BACD084F88B30042323702D
:101DE00063681B68002BA4D0022120469847A0E717
:101DF000374B63670223A36700239DE794F88410A1
:101E0000204611F0800F01F00F010ED001F06AF9A9
:101E1000012806D002287FF41CAF2E4BA067636711
:101E200067E72D4BA567636763E701F04DF9EFE7BF
:101E300094F88230002B7FF40CAF94F8843013F0C8
:101E40000F013FF476AF1A06204602D501F02AFCB6
:101E50006FE701F01BFC6CE794F88230002B7FF4F5
:101E6000F8AE94F8843013F00F013FF462AF1B0614
:101E7000204602D501F0FEFB5BE701F0EFFB58E7DF
:101E8000142284F8702083F311882B462A462946B1
:101E90002046FFF751FE85F3118870BD5DB1152214
:101EA00084F8702083F311880021A36F626F2046AD
:101EB000FFF742FE03E70B2284F8702083F31188BA
:101EC0002B462A4629462046FFF748FEE3E700BF97
:101ED000D8420008D0420008D442000838B590F833
:101EE00070300446152B29D8DFE803F03E28282857
:101EF00028283E28280B2939282828282828282857
:101F00003E3E90F8871090F88620836F42EA0122C7
:101F10009A4214D9C268128AB3FBF2F502FB153556
:101F20006DB9202383F311882B462A462946FFF7F3
:101F300015FE85F311880A2384F8703038BD142308
:101F400084F87030202383F31188002320461A463A
:101F50001946FFF7F1FD002383F3118838BDC36FE5
:101F600003B198470023E7E7002101F083FB00213C
:101F7000204601F073FB63681B6813B106212046FD
:101F800098470623D8E7000090F87020152A38B546
:101F9000044622D80123934040F6416213421DD1EA
:101FA00013F480150FD19B0217D50B2380F87030E6
:101FB000202383F311882B462A462946FFF7CEFDBE
:101FC00085F3118838BDC3689B695B682BB9C36F03
:101FD00003B19847002384F8703038BD002101F028
:101FE00049FB0021204601F039FB63681B6813B1EF
:101FF0000621204698470623EDE70000024B002209
:102000001B605B609A60704710310020002382687B
:102010000374054B1B6899689142FBD25A680360B0
:1020200042601060586070471031002008B52023CE
:1020300083F31188037C032B05D0042B0DD02BB91F
:1020400083F3118808BD436900221A604FF0FF3303
:102050004361FFF7DBFF0023F2E790E80C001A6012
:1020600002685360F2E70000002382680374054BA6
:102070001B6899689142FBD85A68036042601060FF
:102080005860704710310020054B196908741868B2
:10209000026853601A60186101230374FEF796B951
:1020A000103100204B1C30B5054687B00A4C10D0CB
:1020B000236901A8094A00F025F92846FFF7E4FF43
:1020C000049B13B101A800F05BF92369586907B0BC
:1020D00030BDFFF7D9FFF8E7103100202D200008B0
:1020E00038B50C4D044641612B6981689A6891426C
:1020F00003D8BDE83840FFF789BF1846FFF7B4FFA3
:1021000001232C61014623742046BDE83840FEF7C8
:102110005DB900BF10310020044B1A681B6990683C
:102120009B68984294BF0020012070471031002026
:1021300010B5084C236820691A6854602260012297
:1021400023611A74FFF790FF01462069BDE8104033
:10215000FEF73CB91031002008B5FFF7DDFF18B1DC
:10216000BDE80840FFF7E4BF08BD0000FEE700003F
:1021700010B50C4CFFF742FF00F0B6F880220A4978
:10218000204600F03BF8012344F8180C037400F0DB
:1021900099FC002383F3118862B60448BDE810401F
:1021A00000F04EB838310020DC420008E44200085C
:1021B00000F022B9EFF3118020B9EFF3058320225C
:1021C00082F311887047000010B558B9EFF3058409
:1021D000C4F3080414B180F3118810BDFFF7BCFFED
:1021E00084F3118810BD0000034B59685A68521AD5
:1021F0009042FBD8704700BF001000E082600222CE
:1022000002740022427470478368A3F17C0243F891
:102210000C2C026943F83C2C426943F8382C074ADD
:1022200043F81C2CC268A3F1180043F8102C0222BA
:1022300003F8082C002203F8072C7047E503000878
:1022400010B5202383F31188FFF7DEFF0021044639
:10225000FFF746FF002383F31188204610BD0000DE
:10226000024B1B6958610F20FFF70EBF1031002091
:10227000202383F31188FFF7F3BF000008B5014660
:10228000202383F311880820FFF70CFF002383F33A
:10229000118808BD49B1064B42681B6918605A6035
:1022A000136043600420FFF7FDBE4FF0FF3070471E
:1022B000103100200368984206D01A68026050600E
:1022C00018465961FFF7A2BE7047000038B50446B2
:1022D0000D462068844200D138BD036823605C60ED
:1022E0004561FFF793FEF4E7054B03F114025A61D1
:1022F0009A614FF0FF32DA6100221A62704700BF24
:1023000010310020F8B503610E46C260054601F0A9
:10231000CFFB1A4B19461F4651F8142F8A420DD194
:1023200018620A2E2CBF80190A30AE606A602A60DB
:102330009D615D61BDE8F84001F0A4BB1B6A926835
:10234000C41A341928BF3446A24202D9181901F020
:10235000A9FB7B699A6894420CD8AC6098685A686B
:10236000041B2B606A6015605D609C604FF0FF335A
:10237000FB61F8BDA41A1B68ECE700BF1031002018
:1023800038B51C4B01685A691D4690420DD044680F
:102390002160002102685460C16091688068014436
:1023A00091604FF0FF32DA6138BD1A4642F8141FCF
:1023B0004A6000215B69C160934203D1BDE83840A7
:1023C00001F06ABB9A6881680A449A602C6A01F03D
:1023D0006FFB6A69001B926882420AD9111A0929A7
:1023E00098BF00F10A02286ABDE83840104401F0A5
:1023F00059BB38BD103100202DE9F041184D0027A0
:1024000005F114066C6901F053FB2A6AA368811A6E
:102410008B4216D81344D4F80C802B6294E80C003D
:102420001A60226853606B69E760B34201D101F022
:1024300033FB87F311882069C047202383F3118879
:10244000E0E76A69B24208D05B1ABDE8F0410A2BA6
:102450002CBFC0180A3001F025BBBDE8F08100BFD9
:102460001031002000207047FEE700007047000098
:102470004FF0FF3070470000022906D0032906D034
:102480000129064818BF0020704705487047032AF5
:102490009ABF044800EBC20000207047D4430008F4
:1024A000884300083C22002070B59AB006460846D2
:1024B000144601AD294600F0BDF82846FEF7CEFCD3
:1024C000C0B2431C5B0086E818002370032302346B
:1024D00004F8013C00231946DAB20234904201D8D4
:1024E0001AB070BDEA5C013304F8011C04F8022C38
:1024F000F2E7000008B5202383F311880348FFF7B3
:1025000041FA002383F3118808BD00BFC8320020C0
:1025100090F8803003F01F02012A07D190F8812043
:102520000B2A03D100234367836712E003F06003A3
:10253000202B11D1B0F8843073B990F88120212A72
:1025400003D0222AEFD0202A06D1044A426707226C
:102550008267C36701207047FFF7F0B9332200207C
:1025600010B50446052916D8DFE801F01615031644
:10257000161D202383F311880E4A0121FFF7AEFABE
:1025800020460D4A0221FFF7A9FA0C48FFF7C0F9CF
:10259000002383F3118810BD202383F3118807489B
:1025A000FFF78CF9F4E7202383F311880348FFF742
:1025B000A3F9EDE70443000828430008C8320020CF
:1025C00038B50C4D0C4C2A460C4904F10800FFF7B5
:1025D0006BFF05F1CA0204F110000949FFF764FF1F
:1025E00005F5CA7204F118000649BDE83840FFF746
:1025F0005BBF00BFA04B00203C22002054430008DA
:10260000614300086C43000870B5044608460D4657
:10261000FEF724FCC6B22046013403780BB91846F5
:1026200070BD32462946FEF703FC0028F3D1012095
:1026300070BD00002DE9F04704460D46FEF70EFC84
:102640002A49C6B22046FFF7DFFF08B10936F6B2C5
:1026500027492046FFF7D8FF08B11036F6B2632E9F
:102660000BD8DFF88880DFF88890224FDFF890A041
:10267000267846B92E70BDE8F08721462846BDE889
:10268000F04701F0CFBD252E2CD107224146204630
:10269000FEF7CEFB60B9184B2A4603F1100153F840
:1026A000040B8B4242F8040BF9D107341035DFE7F5
:1026B000082249462046FEF7BBFB98B9AA1C0F4BDF
:1026C00013F8011F023209095345C95D02F8041CC1
:1026D000197801F00F01C95D02F8031CF0D118351B
:1026E0000834C5E72E7001340135C1E7F443000812
:1026F0006C4300080D440008FC430008FFE7F11F8D
:102700000BE8F11FBFF34F8F044B1A695107FCD13F
:10271000D3F810215207F8D1704700BF00200052B3
:1027200008B50D4B1B78ABB9FFF7ECFF0B4BDA6824
:10273000D10704D50A4A5A6002F188325A60D3F8A8
:102740000C21D20706D5064AC3F8042102F18832CB
:10275000C3F8042108BD00BFFE4D00200020005238
:102760002301674508B5114B1B78F3B9104B1A6963
:10277000510703D5DA6842F04002DA60D3F810213D
:10278000520705D5D3F80C2142F04002C3F80C21C2
:10279000FFF7B8FF064BDA6842F00102DA60D3F8BF
:1027A0000C2142F00102C3F80C2108BDFE4D0020AF
:1027B000002000520F289ABF00F5806040040020DE
:1027C000704700004FF40030704700001020704741
:1027D0000F2808B50BD8FFF7EDFF00F500330268AE
:1027E000013204D104308342F9D1012008BD002018
:1027F00008BD00000F2838B5044645D8FFF7DAFCBD
:102800000546FFF77FFFFFF78BFF20484FF0FF33B0
:10281000072C4361C0F8143120D80361FFF772FF21
:10282000230243F02403C360C36843F08003C36002
:1028300003695A07FCD4FFF765FF2046FFF7BAFF8C
:102840004FF4003100F006F9FFF78CFF2846FFF740
:10285000BBFC2046BDE83840FFF7BABFC0F81031D6
:10286000FFF750FFA4F108031B0243F02403C0F854
:102870000C31D0F80C3143F08003C0F80C31D0F8A3
:1028800010315B07FBD4D6E7002038BD0020005292
:1028900040EA02032DE9F74F8846D90606469146DD
:1028A00003D0002003B0BDE8F08F4546FFF738FFA6
:1028B000A9EB050343441F2B03D80120FFF752FF68
:1028C000F0E720223146284606F1200A01F09AFC62
:1028D00010B956462035EBE733461C68621CE0D140
:1028E00004335345F9D1FFF765FC06F17843214ADB
:1028F000214F9342214A224B88BF1346A2F5827290
:10290000019398BF93461F4B98BF1F4603F1F803EE
:1029100088BF9B46FFF7F6FE3C6005F11C0EDBF816
:102920000020711B42F00202CBF800202A1F019BFD
:102930001C6814F00504FAD152F8043F96458B50F8
:10294000F5D1BFF34F8FFFF7DDFE4FF0FF323A6056
:10295000DBF8002022F00202CBF80020FFF734FC65
:1029600020222946304601F04DFC0028B1D02046F7
:10297000A4E700BFFFFF0F001421005210210052F6
:10298000102000521420005210B5084C237828B1B2
:1029900053B9FFF7C5FE0123237010BD23B120708A
:1029A000BDE81040FFF7DEBE10BD00BFFE4D0020A9
:1029B00002440439064BD2B210B5904200D110BD8A
:1029C000441C00B253F8200041F8040FE0B2F4E7D1
:1029D000504000580F4B30B51C6F240405D41C6FB9
:1029E0001C671C6F44F400441C670B4C0244043900
:1029F0002368D2B243F480732360084B904200D125
:102A000030BD441C51F8045F00B243F82050E0B2DE
:102A1000F4E700BF004402580048025850400058F4
:102A200007B5012201A90020FFF7C2FF019803B0FA
:102A30005DF804FB13B50446FFF7F2FFA04206D091
:102A400002A90122002041F8044DFFF7C3FF02B0A4
:102A500010BD00000144BFF34F8F064B884204D3E2
:102A6000BFF34F8FBFF36F8F7047C3F85C02203006
:102A7000F4E700BF00ED00E0034B1A6812B9034A07
:102A800012681A60704700BF004E0020D044025800
:102A900008B5FFF7F1FF024B1868C0F3806008BD6E
:102AA000004E0020EFF30983054968334A6822F09D
:102AB00001024A6083F30988002383F31188704779
:102AC00030EF00E0202080F3118862B60D4B0E4AF3
:102AD000D96821F4E0610904090C0A430B49DA6062
:102AE000CA6842F08072CA60094A0A49C2F8B01F37
:102AF000116841F0010111601022DA7783F8220099
:102B0000704700BF00ED00E00003FA05F0ED00E0C3
:102B1000001000E055CEACC510B5202383F311881A
:102B20000E4B5B6813F4006314D0F1EE103AEFF330
:102B300009844FF08073683CE361094BDB682366CE
:102B400084F30988FFF7E8FA10B1064BA36110BDC2
:102B5000054BFBE783F3118810BD00BF00ED00E0DB
:102B600030EF00E0F7030008FA030008F0B5BFF308
:102B70004F8FBFF36F8F1D4B0021C3F85012BFF36F
:102B80004F8FBFF36F8F5A6942F400325A61BFF31F
:102B90004F8FBFF36F8FC3F88410BFF34F8FD3F8FD
:102BA000802043F6E076C2F3C904C2F34E32A50793
:102BB000520102EA060E284621464EEA0007013974
:102BC00000F14040C3F860724F1CF6D1203A12F178
:102BD000200FEED1BFF34F8F5A6942F480325A6111
:102BE000BFF34F8FBFF36F8FF0BD00BF00ED00E06C
:102BF000FEE70000084A094B09498B4204D3094A01
:102C00000021934205D3704752F8040F43F8040B98
:102C1000F3E743F8041BF4E7E8450008D44F00202D
:102C2000D44F0020D44F002070470000D0F89430DB
:102C3000002170B5D0F890404FF0FF359E684A01F2
:102C4000A318D3F80009002805DAD3F8000940F0EA
:102C50008040C3F80009D3F8000B002805DAD3F848
:102C6000000B40F08040C3F8000B0131A3188E42E6
:102C7000C3F80859C3F8085BE1D24FF00113C4F858
:102C80001C3870BD00EB81032DE9F04FD3F80CE048
:102C90004F1C4FEA4118DEF814403F03D4F800C03F
:102CA0006568D0F8902065450AD30120D2F8343801
:102CB00000FA01F123EA0101C2F83418BDE8F08FEF
:102CC000ACEB0503BEF81060B34228BF334602EBFD
:102CD0000806D6F81869B6B2B3EB860F13D8A66803
:102CE0003A449946A6F1040A5AF804BFB9F1040F10
:102CF000C2F800B002D9A9F10409F5E71E442B443B
:102D0000A6606360CCE70020BDE8F08F890141F048
:102D10002001016103699B06FCD41220FFF764BA0D
:102D200010B50A4C2046FEF7B1FE094BC4F89030AE
:102D3000084BC4F89430084C2046FEF7A7FE074B1A
:102D4000C4F89030064BC4F8943010BD044E0020F7
:102D50000000084044440008A04E00200000044049
:102D6000504400080378012B70B505465DD1494BEE
:102D7000D0F89040984259D1474B0E216520D3F8A6
:102D8000D82042F00062C3F8D820D3F8002142F0E6
:102D90000062C3F80021D3F80021D3F8802042F06C
:102DA0000062C3F88020D3F8802022F00062C3F8CC
:102DB0008020D3F8803000F081FC384BE360384B42
:102DC000C4F800380023D5F89060C4F8003EC02352
:102DD00023604FF40413A3633369002BFCDA01234F
:102DE0000C203361FFF700FA3369DB07FCD41220B3
:102DF000FFF7FAF93369002BFCDA00262846A660B3
:102E0000FFF714FF6B68C4F81068DB68C4F8146837
:102E1000C4F81C68002B3AD1224BA3614FF0FF335A
:102E20006361A36843F00103A36070BD1E4B984229
:102E3000C8D1194B0E214D20D3F8D82042F0007292
:102E4000C3F8D820D3F8002142F00072C3F8002163
:102E5000D3F80021D3F8802042F00072C3F880201C
:102E6000D3F8802022F00072C3F88020D3F88020AD
:102E7000D3F8D82022F08062C3F8D820D3F80021FC
:102E800022F08062C3F80021D3F8003193E7074BAA
:102E9000C3E700BF044E0020004402584014004025
:102EA00003002002003C30C0A04E0020083C30C08F
:102EB000F8B5D0F89040054600214FF00066204656
:102EC000FFF724FFD5F8941000234FF001128F680C
:102ED0004FF0FF30C4F83438C4F81C2804EB431218
:102EE00001339F42C2F80069C2F8006BC2F80809BA
:102EF000C2F8080BF2D20B68D5F89020C5F89830CC
:102F0000636210231361166916F01006FBD11220BC
:102F1000FFF76AF9D4F8003823F4FE63C4F80038E8
:102F2000A36943F4402343F01003A3610923C4F8C9
:102F30001038C4F814380B4BEB604FF0C043C4F8A2
:102F4000103B094BC4F8003BC4F81069C4F80039C1
:102F5000D5F8983003F1100243F48013C5F8982097
:102F6000A362F8BD2044000840800010D0F89020F3
:102F700090F88A10D2F8003823F4FE6343EA011374
:102F8000C2F80038704700002DE9F0410EB20D463E
:102F900000EB8608D8F80C100F6807F00303022B2B
:102FA00053D0032B53D03F4A3F4F012B18BF174636
:102FB000D0F890404FEA451E002205F1100C04EBBA
:102FC0000E03C3F8102B8A69002A42D04A8A05F101
:102FD00058033A435B01E2500123D4F81C2803FA5A
:102FE0000CF31343C4F81C38A64400234A69CEF8F6
:102FF000103905F13F03002A3BD00A8A04EB830312
:10300000898B9208012988BF4A43D0F89810561836
:1030100041EA02422946C0F8986020465A60FFF70C
:1030200075FED8F80C301B8A43EA85531F4305F11F
:1030300048035B01E7500123D4F81C2803FA05F587
:103040001543C4F81C58BDE8F081184FB0E7184F7D
:10305000AEE704EB4613D3F8002B22F40042C3F88A
:10306000002B0123D4F81C2803FA0CF322EA0303F3
:10307000B8E704EB83030F4A04EB461629465A606F
:103080002046FFF743FED6F80039012223F400431F
:1030900002FA05F5C6F80039D4F81C3823EA05050C
:1030A000CFE700BF008000100080041000800810EF
:1030B00000800C1000040002D0F894201268C0F8C0
:1030C0009820FFF7B3BD00005831D0F89030490187
:1030D0005B5813F4004004D013F4001F14BF012008
:1030E000022070474831D0F8903049015B5813F402
:1030F000004004D013F4001F14BF012002207047C9
:1031000000EB8101CB68196A0B6813604B68536050
:103110007047000000EB810330B5DD68AA691368D1
:10312000D36019B9402B84BF402313606B8A1468A5
:10313000D0F890201C4402EB4110013C09B2B4FBD2
:10314000F3F46343033323F0030343EAC44343F03C
:10315000C043C0F8103B2B6803F00303012B0ED1D2
:10316000D2F8083802EB411013F4807FD0F8003B0E
:1031700014BF43F0805343F00053C0F8003B02EB10
:103180004112D2F8003B43F00443C2F8003B30BD8B
:103190002DE9F041D0F8906005460C4606EB41134E
:1031A000D3F8087B3A07C3F8087B08D5D6F814385B
:1031B0001B0704D500EB8103DB685B689847FA07BF
:1031C0002FD5D6F81438DB072BD505EB8403D96847
:1031D000CCB98B69488A5E68B6FBF0F200FB1262DC
:1031E0008AB91868DA6890420DD2121A83E814007E
:1031F000202383F3118821462846FFF78BFF84F3B1
:103200001188BDE8F081012303FA04F26B8923EAF7
:1032100002036B81CB6823B121462846BDE8F0410B
:103220001847BDE8F081000000EB81034A0170B54A
:10323000DD68D0F890306C692668E66056BB1A44A9
:103240004FF40020C2F810092A6802F00302012A94
:103250000AB20ED1D3F8080803EB421410F4807FB1
:10326000D4F8000914BF40F0805040F00050C4F87A
:10327000000903EB4212D2F8000940F00440C2F802
:1032800000090122D3F8340802FA01F10143C3F81E
:10329000341870BD19B9402E84BF402020602068CA
:1032A0001A442E8A841940F00050013CB4FBF6F415
:1032B00040EAC440C6E700002DE9F041D0F8906034
:1032C00004460D4606EB4113D3F80879C3F8087994
:1032D000FB071CD5D6F81038DA0718D500EB8103A8
:1032E000D3F80CE0DEF81430D3F800C0DA68944567
:1032F0001BD2A2EB0C024FF000081A60C3F8048046
:10330000202383F31188FFF78FFF88F311883B0692
:1033100018D50123D6F83428AB40134212D02946E1
:103320002046BDE8F041FFF7ADBC012303FA01F2EE
:10333000038923EA02030381DEF80830002BE6D07C
:103340009847E4E7BDE8F0812DE9F047D0F89050C8
:1033500004466E69AB691E40F1046E6103D5BDE899
:10336000F047FEF70DBC002E12DAD5F8003E9A07A2
:1033700005D0D5F8003E23F00303C5F8003ED5F88C
:103380000438204623F00103C5F80438FEF72CFC6E
:10339000330505D52046FFF749FC2046FEF714FC0F
:1033A000B7040CD5D5F8083813F0060FEB6823F4F2
:1033B00070530CBF43F4105343F4A053EB60300739
:1033C00004D56368DB680BB120469847F10200F131
:1033D000A180B2020BD5D4F8908000274FF00109EC
:1033E000D4F89430F9B29B688B4280F0D280F30617
:1033F0001AD5D4F890100A6AC2F30A1702F00F0324
:1034000002F4F012B2F5802F00F0EB80B2F5402FFD
:103410000AD104EB830301F58051DB68186A0023AD
:103420001A469F4240F0D1803003D5F8185835D560
:10343000E90303D500212046FFF7AAFEAA0303D51E
:1034400001212046FFF7A4FE6B0303D5022120468D
:10345000FFF79EFE2F0303D503212046FFF798FEBA
:10346000E80203D504212046FFF792FEA90203D506
:1034700005212046FFF78CFE6A0203D5062120466F
:10348000FFF786FE2B0203D507212046FFF780FEBB
:10349000EF0103D508212046FFF77AFE700340F1C3
:1034A000C780E90703D500212046FFF705FFAA07DB
:1034B00003D501212046FFF7FFFE6B0703D502214C
:1034C0002046FFF7F9FE2F0703D503212046FFF71B
:1034D000F3FEEE0603D504212046FFF7EDFEA80615
:1034E00003D505212046FFF7E7FE690603D506212F
:1034F0002046FFF7E1FE2A0603D507212046FFF705
:10350000DBFEEB0540F1948020460821BDE8F04742
:10351000FFF7D2BED4F890904FF000084FF0010AA8
:10352000D4F894305FFA88F79B68BB42FFF451AF40
:1035300009EB4713D3F8002902F44022B2F5802F9B
:1035400024D1D3F80029002A20DAD3F8002942F048
:103550009042C3F80029D3F80029002AFBDB394642
:10356000D4F89000FFF7D2FB22890AFA07F322EA87
:103570000303238104EB8703DB689B6813B139469F
:103580002046984739462046FFF77CFB08F10108A2
:10359000C6E708EB4112D2F8003B03F44023B3F531
:1035A000802F10D1D2F8003B002B0CDA628909FA87
:1035B00001F322EA0303638104EB8103DB68DB6828
:1035C0000BB12046984701370AE713F0030F00D1EB
:1035D0000A68072B03F101039EBF0270120A013033
:1035E0001FE704EB830301F58051DA6890690268F4
:1035F000D0F808C04068A2EB000E002210469742A7
:1036000008D1DB689B699A683A449A605A68174403
:103610005F6009E712F0030F00D10868964502F1D8
:10362000010282BF8CF80000000A0CF1010CE6E7F1
:10363000BDE8F08708B50348FFF786FEBDE80840FF
:10364000FFF76ABA044E002008B50348FFF77CFE76
:10365000BDE80840FFF760BAA04E0020D0F89030D7
:1036600003EB4111D1F8003B43F40013C1F8003BD8
:1036700070470000D0F8903003EB4111D1F80039C9
:1036800043F40013C1F8003970470000D0F89030BF
:1036900003EB4111D1F8003B23F40013C1F8003BC8
:1036A00070470000D0F8903003EB4111D1F8003999
:1036B00023F40013C1F800397047000000F16043A3
:1036C00000F01F020901400903F56143C9B28000FF
:1036D00083F80013012300F16040934000F561403E
:1036E000C0F880310360704730B50433039C017229
:1036F000002104FB0325C361049B00600363059B59
:103700004060C1604261026185610462426281621F
:10371000C162436330BD00000022416AC260416162
:1037200001616FF001018262C262FEF7CFBD00004D
:1037300003694269934203D1C2680AB1002070470D
:10374000181D7047036919600021C2680132C26008
:10375000C269134482699342036124BF436A0361CF
:10376000FEF7A8BD38B504460D46E3683BB1626973
:103770000020131D1268A3621344E36238BD237A4C
:1037800033B929462046FEF785FD0028EDDA38BD1D
:103790006FF00100FBE70000C368C269013BC36032
:1037A0004369134482699342436124BF436A43617E
:1037B00000238362036B03B11847704770B5202361
:1037C000044683F31188866A3EB9FFF7CBFF0546AE
:1037D00018B186F31188284670BDA36AE26A13F80F
:1037E000015B9342A36202D32046FFF7D5FF00237B
:1037F00083F31188EFE700002DE9F84F04460E46E9
:1038000090469946202787F311880025AA46D4F8C8
:1038100028B0BBF1000F09D149462046FFF7A2FFAF
:1038200020B18BF311882846BDE8F88FA16AA8EB78
:10383000050BE36A5B1A9B4528BF9B46BBF1400F13
:103840001BD9334601F1400251F8040B914243F871
:10385000040BF9D1A36A403640354033A362A26A13
:10386000E36A9A4202D32046FFF796FF8AF3118853
:103870004545D8D287F31188C9E730465A46FDF747
:10388000CDFAA36A5E445D445B44A362E7E70000AF
:1038900010B5029C04330172C36103FB04210023B1
:1038A00000608362C362039B40600363049BC46047
:1038B00042610261816104624262436310BD0000A3
:1038C000026A6FF00101C260426A42610261002235
:1038D0008262C262FEF7FABC436902699A4203D16E
:1038E000C2680AB100207047184650F8043B0B60CC
:1038F00070470000C3680021C2690133C360436997
:10390000134482699342436124BF436A4361FEF7D3
:10391000D1BC000038B504460D46E3683BB12369CD
:1039200000201A1DA262E2691344E36238BD237AC3
:1039300033B929462046FEF7ADFC0028EDDA38BD44
:103940006FF00100FBE7000003691960C268013AEB
:10395000C260C269134482699342036124BF436A0F
:10396000036100238362036B03B1184770470000B3
:1039700070B5202304460E4683F31188856A35B955
:103980001146FFF7C7FF10B185F3118870BDA36A18
:103990001E70A36AE26A01339342A36204D3E16911
:1039A00020460439FFF7D0FF002080F3118870BD56
:1039B0002DE9F84F04460D4691469A464FF02008EF
:1039C00088F311880026B346A76A4FB951462046AE
:1039D000FFF7A0FF20B187F311883046BDE8F88FCC
:1039E000A06AA9EB0603E76A3F1A9F4228BF1F4659
:1039F000402F1BD905F1400355F8042B9D4240F898
:103A0000042BF9D1A36A40364033A362A26AE36A69
:103A10009A4204D3E16920460439FFF795FF8BF3FE
:103A200011884E45D9D288F31188CDE729463A4608
:103A3000FDF7F4F9A36A3D443E443B44A362E5E745
:103A4000026943699A4203D1C3681BB9184670479B
:103A50000023FBE7836A002BF8D0043B9B1AF5D0C8
:103A60001360C368013BC360C3691A4483699A4207
:103A7000026124BF436A0361002383620123E5E7F7
:103A800000F0D6B8034B002258631A610222DA60B4
:103A9000704700BF000C00400022014BDA60704705
:103AA000000C0040014B5863704700BF000C004001
:103AB000014B586A704700BF000C00404B684360E0
:103AC0008B688360CB68C3600B6943614B69036299
:103AD0008B6943620B6803607047000008B5304B88
:103AE00040F2FF712F48D3F888200A43C3F888209A
:103AF000D3F8882022F4FF6222F00702C3F888205E
:103B0000D3F88820D3F8E0200A43C3F8E020D3F8A4
:103B100008210A43C3F80821234AD3F80831114683
:103B2000FFF7CCFF214802F11C01FFF7C7FF204837
:103B300002F13801FFF7C2FF1E4802F15401FFF7FE
:103B4000BDFF1D4802F17001FFF7B8FF1B4802F1ED
:103B50008C01FFF7B3FF1A4802F1A801FFF7AEFF8F
:103B6000184802F1C401FFF7A9FF174802F1E0016C
:103B7000FFF7A4FF154802F1FC01FFF79FFF14486F
:103B800002F58C71FFF79AFF00F006F9114B052240
:103B90009A604FF06052DA600F4A1A6108BD00BFA8
:103BA00000440258000002585C4400080004025817
:103BB00000080258000C0258001002580014025865
:103BC00000180258001C0258002002580024025815
:103BD0000028025890ED00E01F00080308B500F02F
:103BE000F3FAFEF7C5FA0F4BD3F8DC2042F040029F
:103BF000C3F8DC20D3F8042122F04002C3F80421EA
:103C0000D3F80431084B1A6842F008021A601A68A7
:103C100042F004021A60FEF72FFFBDE80840FEF7ED
:103C2000CFBC00BF00440258001802487047000093
:103C3000114BD3F8E82042F00802C3F8E820D3F88B
:103C4000102142F00802C3F810210C4AD3F81031B9
:103C5000D36B43F00803D363C722094B9A624FF03A
:103C6000FF32DA6200229A615A63DA605A600122F6
:103C70005A611A60704700BF004402580010005C8F
:103C8000000C0040094A08B51369D1680B40D9B24D
:103C90009B076FEA0101116107D5202383F3118887
:103CA000FEF786FA002383F3118808BD000C00405C
:103CB000384B4FF0FF31D3F88020C3F88010D3F891
:103CC00080200022C3F88020D3F88000D3F884003D
:103CD000C3F88410D3F88400C3F88420D3F8840098
:103CE000D86F40F0FF4040F4FF0040F43F5040F0F8
:103CF0003F00D867D86F20F0FF4020F4FF0020F489
:103D00003F5020F03F00D867D86FD3F888006FEAA3
:103D100040506FEA5050C3F88800D3F88800C0F3D1
:103D20000A00C3F88800D3F88800D3F89000C3F8DD
:103D30009010D3F89000C3F89020D3F89000D3F8F7
:103D40009400C3F89410D3F89400C3F89420D3F8E7
:103D50009400D3F89800C3F89810D3F89800C3F8EB
:103D60009820D3F89800D3F88C00C3F88C10D3F8BF
:103D70008C00C3F88C20D3F88C00D3F89C00C3F8D7
:103D80009C10D3F89C10C3F89C20D3F89C3000F012
:103D9000E7B900BF004402580122614B1A60614B31
:103DA000D3F8F42042F00202C3F8F420D3F81C2127
:103DB00042F00202C3F81C210222D3F81C315A4BF4
:103DC000DA605A689104FCD5584A1A6001229A6058
:103DD000574ADA6000221A614FF440429A61524B0E
:103DE0009A699204FCD51A6842F480721A604D4BAD
:103DF0001A6F12F4407F04D04FF480321A67002209
:103E00001A671A6842F001021A60464A134611689E
:103E10004807FCD5002111611A6912F03802FBD164
:103E2000012119604FF0804159605A67414ADA62B6
:103E3000414A1A611A6842F480321A60394A1346BC
:103E400011688903FCD5116841F4805111601A682A
:103E50009204FCD5394A3A499A6200225A6319639E
:103E60003849DA6399635A64374A1A64374ADA621E
:103E70001A6842F0A8521A602A4B1A6802F02852B7
:103E8000B2F1285FF9D148229A614FF48862DA6171
:103E900040221A622E4ADA644FF000521A652D4A07
:103EA0005A652D4A9A6532222C4B1A601A6802F024
:103EB0000F02022AFAD11B4B1A6942F003021A615F
:103EC0001A6902F03802182AFAD1D3F8DC2042F03D
:103ED0000052C3F8DC20D3F8042142F00052C3F8AA
:103EE0000421D3F80421D3F8DC2042F08042C3F847
:103EF000DC20D3F8042142F08042C3F80421D3F837
:103F00000421D3F8DC2042F00042C3F8DC20D3F8CF
:103F1000042142F00042C3F80421D3F80431704771
:103F200008810051004402580048025800C000F0C7
:103F3000020000010000FF010088900832206000AC
:103F4000630207011D02040047040508FD0BFF0181
:103F5000200000200010E0000001010000200052BD
:103F60004FF0B04208B5D2F8883003F00103C2F830
:103F7000883023B1044A13680BB150689847BDE8F4
:103F80000840FEF7C9BD00BF544F00204FF0B042BB
:103F900008B5D2F8883003F00203C2F8883023B1A4
:103FA000044A93680BB1D0689847BDE80840FEF713
:103FB000B3BD00BF544F00204FF0B04208B5D2F857
:103FC000883003F00403C2F8883023B1044A13692F
:103FD0000BB150699847BDE80840FEF79DBD00BF92
:103FE000544F00204FF0B04208B5D2F8883003F0AB
:103FF0000803C2F8883023B1044A93690BB1D06931
:104000009847BDE80840FEF787BD00BF544F002029
:104010004FF0B04208B5D2F8883003F01003C2F870
:10402000883023B1044A136A0BB1506A9847BDE83F
:104030000840FEF771BD00BF544F00204FF0B04361
:1040400010B5D3F8884004F47872C3F88820A3062A
:1040500004D5124A936A0BB1D06A9847600604D51A
:104060000E4A136B0BB1506B9847210604D50B4ACF
:10407000936B0BB1D06B9847E20504D5074A136CDC
:104080000BB1506C9847A30504D5044A936C0BB14F
:10409000D06C9847BDE81040FEF73EBD544F00205D
:1040A0004FF0B04310B5D3F8884004F47C42C3F815
:1040B0008820620504D5164A136D0BB1506D9847E0
:1040C000230504D5124A936D0BB1D06D9847E004D7
:1040D00004D50F4A136E0BB1506E9847A10404D556
:1040E0000B4A936E0BB1D06E9847620404D5084A10
:1040F000136F0BB1506F9847230404D5044A936F94
:104100000BB1D06F9847BDE81040FEF705BD00BF6A
:10411000544F002008B50348FDF7C0F8BDE808403B
:10412000FEF7FABCCC23002008B50348FDF7B6F82B
:10413000BDE80840FEF7F0BC3824002008B503486D
:10414000FDF7ACF8BDE80840FEF7E6BCA42400206B
:1041500008B5FFF797FDBDE80840FEF7DDBC00009D
:10416000062108B50846FFF7A9FA06210720FFF740
:10417000A5FA06210820FFF7A1FA06210920FFF77A
:104180009DFA06210A20FFF799FA06211720FFF76A
:1041900095FA06212820FFF791FA09217A20FFF7E6
:1041A0008DFA07213220FFF789FA0C212620FFF72C
:1041B00085FA0C212720FFF781FA0C215220BDE857
:1041C0000840FFF77BBA000008B5FFF771FD00F06B
:1041D0000DF8FDF77DFAFDF757FCFDF727FBFFF71C
:1041E00025FDBDE80840FFF74BBC00000023044953
:1041F0001A465A50C81808334260802BF9D17047CC
:10420000544F002010B501390244904201D10020E2
:1042100010BD10F8013B11F8014FA342F5D0181B57
:1042200010BD0000034611F8012B03F8012B002AF2
:10423000F9D170471210121312110000C832002079
:10424000CC23002038240020A424002053544D33D4
:104250003248373F3F3F0053544D333248373433B1
:104260002F373533000000000096000000000000EA
:10427000000000000000000000000000000000003E
:10428000000000009916000885160008C1160008F5
:10429000AD160008B9160008A5160008911600080A
:1042A0007D160008CD16000800000000A5170008C4
:1042B00091170008CD170008B9170008C5170008A6
:1042C000B11700089D170008891700082918000871
:1042D0000000000001000000000000006D61696E38
:1042E00000000000FC42000850310020C8320020CD
:1042F000010000006D2100080000000069646C6589
:10430000000000000200000000000000D1190008B9
:104310003D1A000840004000704B0020804B0020F8
:104320000200000000000000030000000000000088
:10433000851A00080000000010000000904B0020CB
:10434000000000000100000000000000044E0020FA
:10435000010102004865782F50726F6669434E4331
:104360000025424F415244252D424C0025534552D1
:1043700049414C250000000061250008792400080F
:1043800011250008F52400084300000090430008B0
:1043900009024300020100C03209040000010202C8
:1043A000010005240010010524010001042402027B
:1043B0000524060001070582030800FF0904010027
:1043C000020A000000070501024000000705810203
:1043D0004000000012000000DC4300081201100140
:1043E00002000040AE2D1610000201020301000081
:1043F0000403090425424F41524425004375626578
:104400004F72616E67655F43503230300030313239
:10441000333435363738394142434445460000008D
:1044200000000000FD1B0008DD1E0008891F0008B9
:10443000400040003C4F00203C4F002001000000A5
:104440004C4F0020800000004001000008000000E8
:104450000001000000040000080000000000812AA4
:1044600000000000AAAAAAAA00000024FFFF000082
:104470000000000000A00A00000100000000000091
:10448000AAAAAAAA00000000FFFF00000000000086
:10449000000000001400005400000000AAAAAAAA0C
:1044A00014000054FFFF00000000000000000000A6
:1044B00000681A1400000000AAAA8AAA0054150075
:1044C000FF9F000000007007770000004081461445
:1044D00000000000AAAAAAAA00410100F795000066
:1044E0000000007007000000000000000000000055
:1044F000AAAAAAAA00000000FFFF00000000000016
:10450000000000000000000000000000AAAAAAAA03
:1045100000000000FFFF000000000000000000009D
:104520000000000000000000AAAAAAAA00000000E3
:10453000FFFF00000000000000000000000000007D
:1045400000000000AAAAAAAA00000000FFFF0000C5
:10455000000000000000000000000000000000005B
:10456000AAAAAAAA00000000FFFF000000000000A5
:10457000000000000000000000000000AAAAAAAA93
:1045800000000000FFFF000000000000000000002D
:104590008C0000000000000000001E000000000071
:1045A000FF000000000000004C4200083F00000037
:1045B00050040000574200083F0000000096000031
:1045C0000000080096000000000800000400000041
:1045D000F0430008000000000000000000000000A0
:0C45E000000000000000000000000000CF
:00000001FF
