:020000040800F2
:1000000000070020F5040008C52E00087D2E00081A
:10001000A52E00087D2E00089D2E0008F70400087C
:10002000F7040008F7040008F7040008B93E0008C8
:10003000F7040008F7040008F7040008F7040008B4
:10004000F7040008F7040008F7040008F7040008A4
:10005000F7040008F70400088D640008B564000880
:10006000DD640008056500082D650008F704000838
:10007000F7040008F7040008F7040008F704000874
:10008000F7040008F7040008F7040008F704000864
:10009000F7040008F7040008F70400085565000895
:1000A000F7040008F7040008F7040008F704000844
:1000B00029660008F7040008F7040008F7040008A0
:1000C000F7040008F7040008F7040008F704000824
:1000D000F7040008F7040008F7040008F704000814
:1000E000B9650008F7040008F7040008F7040008E1
:1000F000F7040008F7040008F7040008F7040008F4
:10010000F7040008F7040008F7040008F7040008E3
:10011000F7040008F7040008F7040008F7040008D3
:10012000F7040008F7040008F7040008F7040008C3
:10013000F7040008F7040008F7040008312E00084F
:100140005D2E00086D2E0008F7040008815A000893
:10015000F7040008F7040008F7040008F704000893
:10016000F7040008F7040008F7040008F704000883
:10017000F7040008F7040008F7040008F704000873
:10018000F7040008F7040008F7040008F704000863
:10019000F7040008F7040008F7040008F704000853
:1001A000F7040008F7040008F7040008F704000843
:1001B000F7040008F7040008F7040008F704000833
:1001C000F7040008F7040008F7040008F704000823
:1001D000F7040008F7040008F7040008F704000813
:1001E0007918000800000000000000000000000076
:1001F00053B94AB9002908BF00281CBF4FF0FF318E
:100200004FF0FF3000F074B9ADF1080C6DE904CE89
:1002100000F006F8DDF804E0DDE9022304B07047E1
:100220002DE9F047089D04468E46002B4DD18A42A9
:10023000944669D9B2FA82F252B101FA02F3C2F1DC
:10024000200120FA01F10CFA02FC41EA030E94406D
:100250004FEA1C48210CBEFBF8F61FFA8CF708FB8E
:1002600016E341EA034306FB07F199420AD91CEB66
:10027000030306F1FF3080F01F81994240F21C8198
:10028000023E63445B1AA4B2B3FBF8F008FB1033E0
:1002900044EA034400FB07F7A7420AD91CEB040415
:1002A00000F1FF3380F00A81A74240F207816444E5
:1002B000023840EA0640E41B00261DB1D44000236A
:1002C000C5E900433146BDE8F0878B4209D9002DCE
:1002D00000F0EF800026C5E9000130463146BDE858
:1002E000F087B3FA83F6002E4AD18B4202D38242C2
:1002F00000F2F980841A61EB030301209E46002D71
:10030000E0D0C5E9004EDDE702B9FFDEB2FA82F2C5
:10031000002A40F09280A1EB0C014FEA1C471FFA23
:100320008CFE0126200CB1FBF7F307FB131140EA0A
:1003300001410EFB03F0884208D91CEB010103F1D7
:10034000FF3802D2884200F2CB804346091AA4B299
:10035000B1FBF7F007FB101144EA01440EFB00FE6D
:10036000A64508D91CEB040400F1FF3102D2A645D2
:1003700000F2BB800846A4EB0E0440EA03409CE771
:10038000C6F12007B34022FA07FC4CEA030C20FA1E
:1003900007F401FA06F31C43F9404FEA1C4900FA3E
:1003A00006F3B1FBF9F8200C1FFA8CFE09FB1811BB
:1003B00040EA014108FB0EF0884202FA06F20BD92E
:1003C0001CEB010108F1FF3A80F08880884240F27E
:1003D0008580A8F102086144091AA4B2B1FBF9F0C2
:1003E00009FB101144EA014100FB0EFE8E4508D9BD
:1003F0001CEB010100F1FF346CD28E456AD9023842
:10040000614440EA0840A0FB0294A1EB0E01A14226
:10041000C846A64656D353D05DB1B3EB080261EB94
:100420000E0101FA07F722FA06F3F1401F43C5E96E
:10043000007100263146BDE8F087C2F12003D840A4
:100440000CFA02FC21FA03F3914001434FEA1C47E6
:100450001FFA8CFEB3FBF7F007FB10360B0C43EAD8
:10046000064300FB0EF69E4204FA02F408D91CEB88
:10047000030300F1FF382FD29E422DD90238634486
:100480009B1B89B2B3FBF7F607FB163341EA034126
:1004900006FB0EF38B4208D91CEB010106F1FF3875
:1004A00016D28B4214D9023E6144C91A46EA00466C
:1004B00038E72E46284605E70646E3E61846F8E6FE
:1004C0004B45A9D2B9EB020864EB0C0E0138A3E747
:1004D0004646EAE7204694E74046D1E7D0467BE728
:1004E000023B614432E7304609E76444023842E7A0
:1004F000704700BF02E000F000F8FEE772B6374830
:1005000080F30888364880F3098836483649086001
:1005100040F20000CCF200004EF63471CEF2000141
:100520000860BFF34F8FBFF36F8F40F20000C0F23F
:10053000F0004EF68851CEF200010860BFF34F8FF5
:10054000BFF36F8F4FF00000E1EE100A4EF63C71E2
:10055000CEF200010860062080F31488BFF36F8F8D
:1005600004F056FF05F03AFE4FF055301F491B4A84
:1005700091423CBF41F8040BFAE71D49184A9142E9
:100580003CBF41F8040BFAE71A491B4A1B4B9A423D
:100590003EBF51F8040B42F8040BF8E7002018495D
:1005A000184A91423CBF41F8040BFAE704F034FFCB
:1005B00005F068FE144C154DAC4203DA54F8041BE8
:1005C0008847F9E700F042F8114C124DAC4203DACB
:1005D00054F8041B8847F9E704F01CBF000700200B
:1005E000002300200000000808ED00E000010020CA
:1005F00000070020F86B000800230020B023002033
:10060000B023002038560020E0010008E401000873
:10061000E4010008E40100082DE9F04F2DED108AF7
:10062000C1F80CD0C3689D46BDEC108ABDE8F08FC0
:10063000002383F311882846A047002004F0F4F932
:10064000FEE704F04DF900DFFEE70000F8B501F029
:1006500025F904F077FE074604F0C6FE0546B8BB50
:10066000204B9F4234D001339F4234D01E4B27F0A1
:10067000FF029A4232D1F8B200F01CFF2E4642F23D
:10068000107400F01DFF08B10024264601F008FD9B
:1006900020B1032000F07CF80024264635B1134B2E
:1006A0009F4203D004F098FE00242646002004F068
:1006B00053FE0EB100F082F801F0A2FA00F06CFFD8
:1006C00001F052F9204600F0DFF800F077F8F9E782
:1006D0002E460024D5E704460126D2E7064641F21D
:1006E0008834CEE7010007B0000008B0263A09B010
:1006F00008B501F00BF9A0F120035842584108BD9C
:1007000007B541F21203022101A8ADF8043001F04F
:100710001BF903B05DF804FB38B5302383F311886F
:10072000174803680BB104F04BFA164A144800232B
:100730004FF47A7104F03AFA002383F31188124CD3
:10074000236813B12368013B2360636813B16368B6
:10075000013B63600D4D2B7833B963687BB9022090
:1007600001F0C8F9322363602B78032B07D163684B
:100770002BB9022001F0BEF94FF47A73636038BDE3
:10078000B023002019070008D0240020C82300202F
:10079000084B187003280CD8DFE800F008050208A1
:1007A000022001F09DB9022001F090B9024B002215
:1007B0005A607047C8230020D024002010B501F0F3
:1007C0006FFC30B1294B03221A70294B00225A606A
:1007D00010BD284B284A1C4619680131F8D0043353
:1007E0009342F9D16268254B9A42F1D9244B9B6818
:1007F00003F1006303F580339A42E9D204F0C0FDAF
:1008000004F0D2FD002001F0C9F80220FFF7C0FF7C
:100810001C4B1A6C00221A64196E1A66196E596CF8
:100820005A64596E5A665A6E5A6942F080025A6189
:100830005A6922F080025A615A691A6942F00052DC
:100840001A611A6922F000521A611B6972B64FF0E0
:10085000E0233021C3F8084DD4E9003281F3118838
:100860009D4683F308881047B2E700BFC8230020E5
:10087000D02400200000010820000108FFFF00082C
:1008800000230020003802402DE9F04F93B0AC4B1C
:1008900000902022FF210AA89D6801F05BF9A94A77
:1008A0001378A3B9A848012103601170302383F3A2
:1008B000118803680BB104F083F9A44AA24800230D
:1008C0004FF47A7104F072F9002383F31188009BCE
:1008D00013B19F4B009A1A609E4A009C1378032B19
:1008E0001EBF002313709A4A4FF0000A18BF5360CE
:1008F000D3465646D146012001F0F2F824B1944B7C
:100900001B68002B00F01582002000F0FFFF039011
:10091000039B002B01DA00F087FE039B002BEDDB2D
:10092000012001F0D3F8039B213B162BE3D801A251
:1009300052F823F091090008B90900084D0A00088F
:10094000F7080008F7080008F7080008D70A0008A9
:10095000A70C0008C10B0008230C00084B0C000872
:10096000710C0008F7080008830C0008F70800085D
:10097000F50C0008310A0008F7080008390D0008D6
:100980009D090008310A0008F7080008230C000838
:100990000220FFF7ADFE002840F0F581009B022108
:1009A000BAF1000F08BF1C4605A841F21233ADF89A
:1009B000143000F0C9FF9EE74FF47A7000F0A6FFF4
:1009C000071EEBDB0220FFF793FE0028E6D0013F75
:1009D000052F00F2DA81DFE807F0030A0D10133665
:1009E00005230593042105A800F0AEFF17E0544845
:1009F0000421F9E758480421F6E758480421F3E7B1
:100A00004FF01C08404600F0CBFF08F104080590A9
:100A1000042105A800F098FFB8F12C0FF2D10120B5
:100A200000FA07F747EA0B0B5FFA8BFB4FF0000960
:100A300001F0DCF826B10BF00B030B2B08BF0024F0
:100A4000FFF75EFE57E746480421CDE7002EA5D00C
:100A50000BF00B030B2BA1D10220FFF749FE074639
:100A600000289BD0012000F099FF0220FFF790FEA4
:100A700000261FFA86F8404600F0A0FF044690B119
:100A80000021404600F0B2FF01360028F1D1BA46FD
:100A9000044641F21213022105A8ADF814303E4677
:100AA00000F052FF27E70120FFF772FE2546244B96
:100AB0009B68AB4207D9284600F072FF013040F036
:100AC00067810435F3E7234B00251D70204BBA46A0
:100AD0005D603E46ACE7002E3FF460AF0BF00B03C9
:100AE0000B2B7FF45BAF0220FFF752FE322000F0A9
:100AF0000DFFB0F10008FFF651AF18F003077FF4C7
:100B00004DAF0F4A926808EB050393423FF646AF9C
:100B1000B8F5807F3FF742AF124B0193B84523DD14
:100B20004FF47A7000F0F2FE0390039A002AFFF669
:100B300035AF019B039A03F8012B0137EDE700BFA6
:100B400000230020CC240020B02300201907000837
:100B5000D0240020C82300200423002008230020E4
:100B60000C230020CC230020C820FFF7C1FD07463E
:100B700000283FF413AF1F2D11D8C5F120024245C4
:100B80000AAB25F0030028BF42468349019218446E
:100B900000F0BAFF019A8048FF2100F0DBFF4FEA26
:100BA000A8037D490193C8F38702284600F0DAFFC5
:100BB000064600283FF46DAF019B05EB830537E740
:100BC0000220FFF795FD00283FF4E8AE00F02EFF6D
:100BD00000283FF4E3AE0027B846704B9B68BB4249
:100BE00018D91F2F11D80A9B01330ED027F0030309
:100BF00012AA134453F8203C05934046042205A949
:100C000001F006FA04378046E7E7384600F0C8FEF0
:100C10000590F2E7CDF81480042105A800F094FEB9
:100C200006E70023642104A8049300F083FE002853
:100C30007FF4B4AE0220FFF75BFD00283FF4AEAEB8
:100C4000049800F0DBFE0590E6E70023642104A889
:100C5000049300F06FFE00287FF4A0AE0220FFF79F
:100C600047FD00283FF49AAE049800F0D7FEEAE76B
:100C70000220FFF73DFD00283FF490AE00F0E6FEB5
:100C8000E1E70220FFF734FD00283FF487AE05A915
:100C9000142000F0E1FE04210746049004A800F0AF
:100CA00053FE3946B9E7322000F030FE071EFFF64A
:100CB00075AEBB077FF472AE384A926807EB090342
:100CC00093423FF66BAE0220FFF712FD00283FF47F
:100CD00065AE27F003074F44B9453FF4A9AE484637
:100CE00000F05EFE0421059005A800F02DFE09F13C
:100CF0000409F1E74FF47A70FFF7FAFC00283FF49B
:100D00004DAE00F093FE002844D00A9B01330BD077
:100D100008220AA9002000F025FF00283AD020224E
:100D2000FF210AA800F016FFFFF7EAFC1C4803F0B9
:100D300081FE13B0BDE8F08F002E3FF42FAE0BF014
:100D40000B030B2B7FF42AAE0023642105A8059327
:100D500000F0F0FD074600287FF420AE0220FFF7E8
:100D6000C7FC804600283FF419AEFFF7C9FC41F2EA
:100D7000883003F05FFE059800F06AFF464600F0F9
:100D800035FF3C46B7E5064652E64FF0000905E65A
:100D9000BA467EE637467CE6CC23002000230020BE
:100DA000A0860100094A136849F2690099B21B0C38
:100DB00000FB01331360064B186844F2506182B2A5
:100DC000000C01FB0200186080B27047182300205D
:100DD0001423002010B500211022044600F0BAFEB2
:100DE000034B03CB206061601868A06010BD00BF9A
:100DF000107AFF1F2DE9F041ADF54C7D0DF12C0867
:100E00006AAC40F2751207460D460CA80021C8F8DE
:100E1000001000F09FFE4FF4C4720021204600F045
:100E200099FE02F057F8274B4FF47A72B0FBF2F0BC
:100E3000186093E80700022384E807000DF5E570C9
:100E40002382FFF7C7FF47F217031F49238407A830
:100E500005F0FAFC0F2384F832310DF2DB2207ABE8
:100E60000DF1240C1E4603CE6645106051603346DA
:100E700002F10802F6D130681060B188B37993713D
:100E8000918020464146012200F0E4FE00230393B6
:100E9000AB7E029305F11903019380B20123CDE9E2
:100EA00004800093E97E05A3D3E90023384602F0CD
:100EB000D9FB0DF54C7DBDE8F08100BF9E6AC421D1
:100EC000818A46EED8240020586800082DE9F041B8
:100ED0002C4C237ADAB080460D465BBB27A9284606
:100EE00000F0C8FF0746002842D19DF89D60C82E3B
:100EF0003ED801464FF4A662204600F02BFE4FF488
:100F00008073C4F8F8314FF40073C4F80C334FF415
:100F10004073C4F8203432460DF19E0104F10900FB
:100F200000F0F2FD26449DF89C30777223720BB9D5
:100F3000EB7E23728122002106AC27A800F00AFE76
:100F40000122214627A800F0D1FF00230393AB7EA6
:100F5000029305F1190380B201932823CDE90440DF
:100F60000093E97E05A3D3E90023404602F07AFB13
:100F70005AB0BDE8F08100BFAFF300802641727225
:100F8000DF25D7B7F0450020F0B5254E4FF48A7520
:100F900005FB0065F1B096F8D83085F8DC30002408
:100FA000D822214685F8E8403AA800F0D3FD06F1A2
:100FB000090000F0C7FDD5F8E4308DF8F000C2B2AA
:100FC00006AF06F109010DF1F100CDE93A3400F068
:100FD0009BFD394601223AA800F0B4FF80B2CDE96A
:100FE000047008230127CDE9023706F1D8030193E5
:100FF00030230093317A0B4807A3D3E9002302F092
:1010000031FBA04206DD01F065FFC5F8E00038467F
:1010100071B0F0BD2046FBE778F6339F93CACD8DC3
:10102000F0450020F03400202DE9F0411D4D1E4E0A
:101030001E4F86B0284602F041FB034658B30024F9
:10104000CDE90344ADF81440027B8DF81420996873
:101050004068029403AA03C21B68DFF8548043F07F
:101060000043029301F038FF821941F1000300941C
:1010700002A9384601F0FAF9A04205DD284602F03F
:1010800021FB88F80040D5E798F80030072B05D8F9
:10109000013388F8003006B0BDE8F081014802F065
:1010A00011FBF8E7F034002040420F00203500200B
:1010B000254B002070B50D4614461E4602F02EFA50
:1010C00050B9022E10D1012C0ED112A3D3E9002366
:1010D000C5E90023012007E0282C10D005D8012CF9
:1010E00009D0052C0FD0002070BD302CFBD10BA3F4
:1010F000D3E90023ECE70BA3D3E90023E8E70BA334
:10110000D3E90023E4E70BA3D3E90023E0E700BF22
:10111000AFF30080401DA12026812A0B78F6339F73
:1011200093CACD8D9E6AC421818A46EE2641727291
:10113000DF25D7B7F017304A39059E5638B5054632
:101140000E4C0021013500F051FCA4F82C55B4F8E8
:101150002C0500F033FC78B1B4F82C0500F03EFC0F
:10116000014648B9B4F82C0500F040FCB4F82C3521
:101170000133A4F82C35EAE738BD00BFF045002064
:1011800010B50A4B0A4A1A6003F5805393F86020A1
:101190003AB9DC6D2CB1204601F000F8204605F08C
:1011A00093FABDE81040034800F0F8BF2035002056
:1011B00004690008684500202DE9F04F8FB000AFAA
:1011C00005460C4602F0AAF9002849D1237E022BDD
:1011D0001BD1E38A012B18D101F07CFE0646FFF7F4
:1011E000E1FD03464FF4C870DFF8C482B3FBF0F2B0
:1011F00006F5167602FB103316FA83F3C8F80030B2
:10120000E37E33B9A34B00221A703C37BD46BDE8DC
:10121000F08F07F12401204600F0EAFD0028F4D108
:1012200007F11400FFF7D6FD97F8264007F11401E7
:10123000224607F1270005F091FA0028E2D10F2C91
:1012400008D8944B1C70D8F80030A3F51673C8F872
:101250000030DAE797F82410284602F057F9D4E76F
:10126000E38A282B2BD010D8012B23D0052BCCD1EF
:10127000BFF34F8F8849894BCA6802F4E062134379
:10128000CB60BFF34F8F00BFFDE7302BBDD1844E45
:10129000E17E327A9142B8D1607E3146002291F8E7
:1012A000DC50854200F0A5800132042A01F58A71E4
:1012B000F5D1AAE721462846FFF79CFDA5E7214680
:1012C0002846FFF703FEA0E7B2F8EC507B6005F17B
:1012D00003094FEA99094FEA8902D11DC908A8EB11
:1012E000C1039D46EB460021584600F033FC04F153
:1012F000EE012A463144584600F006FC7B6813B9DB
:10130000012000F04BFB96F8D20000F057FB04469A
:1013100030B9307200F08AFB204600F03FFBB1E0AC
:10132000D6F8D4203AB996F8D200B6F82C258242E5
:1013300001D8FFF703FFD6F8D4202A44944208D2FC
:1013400096F8D200B6F82C250130824201D8FFF77A
:10135000F5FE70685FFA89F2594600F003FC08B99F
:10136000C54679E0726896F8D2002A447260D6F8D1
:10137000D42005EB0209C6F8D49000F01FFB81458C
:1013800009D396F8D220D6F8D4000132001B86F893
:10139000D220C6F8D400FF2D0FD80024347200F0FC
:1013A00045FB204600F0FAFA00F07AFE3D4B18812A
:1013B00008B9FFF703FAC54627E7BB6896F8D900D6
:1013C0000AFB0362FB68D2F8E41082F8E83001F50A
:1013D0008061C2F8E030C2F8E410FFF7D5FDFFF7F6
:1013E00023FE96F8D920013202F0030286F8D920B4
:1013F000B6E74FF48A7A0AFB02F505F1EA013144B7
:10140000204600F0CBFDF86000287FF4FEAE3544A6
:10141000012285F8E82001F05DFDD5F8E020D6ED49
:10142000007ADFED216A801A192838BF192040F6AA
:10143000B832904228BF1046B8EE677A07EE900A9D
:10144000F8EEE77A67EEA67ADFED186AE7EE267A1D
:10145000FCEEE77AC6ED007A96F8D930BB60BA6840
:1014600073680AFB02F4321992F8E81059B1D2F805
:10147000E4108B42E8463FF427AF002182F8E810E1
:10148000C2F8E010C5467368064A9B0A013313810F
:10149000BBE600BFE934002000ED00E00400FA05DF
:1014A000F0450020D8240020CDCCCC3D6666663FB8
:1014B000EC340020014B1870704700BFE42400207A
:1014C00030B54FF000542B4B22689A4285B007D0BC
:1014D00003F094FF044620BB0024204605B030BD35
:1014E000254B627D25481A70237D03724FF480736B
:1014F000C0F8F8314FF40073C0F80C3300254FF4F6
:101500004073C0F820341E49C0F8E450C9220930A5
:1015100000F0FAFA2046E022294600F01BFB0124E5
:10152000DBE7184A184D136C43F000731364AA6D7F
:10153000164B9A42D0D12B6E013B7E2BCCD8144A4D
:1015400007CA01AB83E807001846032100F076FDC7
:101550006B6D83424FF00003BED12A6D8A4201BFFA
:10156000AB65054B2A6E1A7003BF0A4BEA6D1A6011
:101570001C46B2E79AAD44C5E4240020F0450020A3
:101580001600002000380240006600405041A0B024
:10159000586600401023002037B51A4D00F080FD3A
:1015A00002236B71184B288119681848012201F039
:1015B0002FFB00230193164B164900931648174B37
:1015C0004FF4805201F07AFF154B197811B112488F
:1015D00001F09CFF01F07EFC0446FFF7E3FB4FF4B3
:1015E000C873B0FBF3F202FB130304F5167010FA94
:1015F00083F00C4B186003F0F7FE08B10F232B812A
:1016000003B030BDD8240020102300202035002056
:10161000B5100008E8240020F0340020B9110008BB
:10162000E4240020EC3400202DE9F04F2DED028B56
:101630000FF23829D9E90089834C93B00BAE9FEDA6
:101640007E8BFFF7F1FC814FDFF828A200230A937D
:10165000ADF834300B9373604FF0000B5B468DEDAB
:10166000008B01250DF11D0207A938468DF81C508D
:101670008DF81DB001F07CFA9DF81C30002B40F075
:10168000A580204601F04AFF0646002845D1704F4C
:1016900001F020FC3B6898423FD301F01BFC8246DE
:1016A000FFF780FB4FF4C873B0FBF3F202FB1303A8
:1016B0000AF5167010FA83F03860664F97F800B09C
:1016C000CBF1100ABBF1000F14BF33462B465FFA73
:1016D0008AFA0EA88DF82830FFF77CFBBAF1060FC6
:1016E00028BF4FF0060A0EAB03EB0B0152460DF17B
:1016F000290000F009FA0AAB0393182302930AF1B8
:101700000102554BD2B2CDE90053049220464CA3BE
:10171000D3E9002301F048FF3E7001F0DBFB4F4AA4
:101720004F4D1368C31AB3F57A7F2ED3106001F0C2
:10173000D3FB02460B46204601F0CEFF204601F0C7
:10174000EDFE10B32B7A474E002B14BF0323022368
:10175000737101F0BFFB0EAF4FF47A730122B0FB3F
:10176000F3F039463060304600F01AFB182302933C
:101770003D4B019380B240F25513CDE903700093C5
:1017800042464B46204601F00FFF2B7A93B101F001
:10179000A1FB002607464FF48A7A95F8D900304419
:1017A00000F003000AFB005393F8E82092B30136DF
:1017B000042EF2D1C82003F03DF92B7A002B7FF4E0
:1017C0003DAF13B0BDEC028BBDE8F08FDAF81430FA
:1017D00083F48073CAF81430594610220EA800F022
:1017E000B9F90DF11E0308AA0AA9384600F03CFF1A
:1017F00096E803000FAB83E803009DF834308DF8C2
:1018000044300A9B0E930EA9DDE90823204602F01E
:1018100037F921E7D3F8E02042B12B68FA2B38BF23
:10182000FA23BA1A0533B2EB430FC0D3FFF7ACFB70
:101830000028BCD1BEE700BF00000000000000008F
:10184000401DA12026812A0BF034002020350020E5
:10185000EC340020E9340020E8340020204B002044
:10186000F0450020D8240020244B0020F1C6A7C159
:10187000D068080F0008024008B5054800F08EFF48
:10188000BDE80840034A0449002004F017BF00BF28
:1018900020350020604B00208111000870470000B7
:1018A00070B50F4B1B780133DBB2012B0C4611D8FE
:1018B0000C4D29684FF47A730E6AA2FB033201467D
:1018C00022462846B047844204D1074B00221A70B2
:1018D000012070BD4FF4FA7003F0ACF80020F8E777
:1018E0001C230020D84D0020544B002070B5044626
:1018F0004FF47A76412C254628BF412506FB05F09A
:1019000003F098F8641BF5D170BD000007B5002303
:10191000024601210DF107008DF80730FFF7C0FFE7
:1019200020B19DF8070003B05DF804FB4FF0FF30D5
:10193000F9E700000A4608B50421FFF7B1FF80F07F
:101940000100C0B2404208BD30B4054C2368DD69D7
:10195000044B0A46AC460146204630BC604700BFF7
:10196000D84D0020A086010070B503F083FB094E1E
:10197000094D3080002428683388834208D903F059
:1019800073FB2B6804440133B4F5803F2B60F2D322
:1019900070BD00BF564B0020284B002003F01ABC3E
:1019A00000F1006000F580300068704700F10060D1
:1019B000920000F5803003F0A3BB0000054B1A68CD
:1019C000054B1B889B1A834202D9104403F04CBB81
:1019D00000207047284B0020564B0020024B1B680C
:1019E000184403F049BB00BF284B0020024B1B6882
:1019F000184403F059BB00BF284B002010F003032C
:101A00000AD1B0F5047F05D200F10050A0F51040D6
:101A1000D0F80038184670470023FBE700F100506B
:101A2000A0F51040D0F8100A70470000064991F860
:101A3000243033B10023086A81F824300822FFF7EC
:101A4000B5BF0120704700BF2C4B0020014B186828
:101A5000704700BF002004E070B5194B1D68194B9A
:101A60000138C5F30B0408442D0C04221E88A6423D
:101A70000BD15C680A46013C824213460FD214F92E
:101A8000016F4EB102F8016BF6E7013A03F108036A
:101A9000ECD181420B4602D22C2203F8012B0A4AD8
:101AA00005241688AE4204D1984284BF967803F884
:101AB000016B013C02F10402F3D1581A70BD00BF62
:101AC000002004E0A868000894680008022802BF0B
:101AD000024B4FF480729A61704700BF00080240C9
:101AE000022802BF024B4FF080729A61704700BF1C
:101AF00000080240022801BF024A536983F4807340
:101B0000536170470008024010B50023934203D090
:101B1000CC5CC4540133F9E710BD000010B50138A6
:101B200010F9013F3BB191F900409C4203D11AB139
:101B30000131013AF4E71AB191F90020981A10BD69
:101B40001046FCE703460246D01A12F9011B002991
:101B5000FAD1704702440346934202D003F8011BB6
:101B6000FAE770472DE9F8431F4D144695F82420F5
:101B70000746884652BBDFF870909CB395F8243036
:101B80002BB92022FF2148462F62FFF7E3FF95F88B
:101B90002400C0F10802A24228BF2246D6B2414624
:101BA000920005EB8000FFF7AFFF95F82430A41BEF
:101BB0001E44F6B2082E17449044E4B285F824601F
:101BC000DBD1FFF733FF0028D7D108E02B6A03EB06
:101BD00082038342CFD0FFF729FF0028CBD100201A
:101BE000BDE8F8830120FBE72C4B0020024B1A785C
:101BF000024B1A70704700BF544B00201C2300207A
:101C000010B5104C104802F045FA21460E4802F07B
:101C10006DFA2468626DD2F8043843F00203C2F80A
:101C200004384FF47A70FFF761FE0849204602F04D
:101C300063FB626DD2F8043823F00203C2F8043863
:101C400010BD00BFF0690008D84D0020F8690008F9
:101C5000704700002DE9F0470D46044600219046EC
:101C6000284640F27912FFF775FF23462022002113
:101C7000284601F0A7FE231D02222021284601F05C
:101C8000A1FE631D03222221284601F09BFEA31D15
:101C900003222521284601F095FE04F108031022B5
:101CA0002821284601F08EFE04F110030822382175
:101CB000284601F087FE04F111030822402128463E
:101CC00001F080FE04F1120308224821284601F0A9
:101CD00079FE04F1140320225021284601F072FEFF
:101CE00004F1180340227021284601F06BFE04F134
:101CF00020030822B021284601F064FE04F12103EC
:101D00000822B821284601F05DFE04F12207C02612
:101D10003B46314608222846083601F053FEB6F508
:101D2000A07F07F10107F3D104F132030822314605
:101D3000284601F047FE002704F1330A94F83230B8
:101D40004FEAC7099F4209F5A47615D3B8F1000FF1
:101D500008D1314604F599730722284601F032FE76
:101D600009F24F16274694F832213B1B93420CD3BD
:101D7000F01DC008BDE8F0870AEB070308223146D2
:101D8000284601F01FFE0137D8E707F2331331462A
:101D90000822284601F016FE08360137E3E7000066
:101DA00013B504460846002101602346C0F803101D
:101DB0002022019001F006FE0198231D022220211D
:101DC00001F000FE0198631D0322222101F0FAFDBB
:101DD0000198A31D0322252101F0F4FD019804F1CF
:101DE00008031022282101F0EDFD072002B010BDEC
:101DF000F7B50023047F00910E46072219460546D9
:101E000001F0A4FC731C0093012200230721284643
:101E100001F09CFCC4B9B31C0093052223460821A1
:101E2000284601F093FC0D243746B278BB1B934241
:101E300011D32B7FA88A0734E408BBB9844294BF2E
:101E40000020012003B0F0BDAB8ADB00083BDB08BB
:101E5000B3700824E8E7FB1C009321460023082206
:101E6000284601F073FC08340137DEE7201A18BF5A
:101E70000120E7E7F7B50023047F00910E46082212
:101E80001946054601F062FC731CC4B90822009390
:101E900011462346284601F059FC1024012372788C
:101EA0005F1C013B934211D32B7FA88A0734E408BF
:101EB000BBB9844294BF0020012003B0F0BDAB8ABF
:101EC000DB00083BDB0873700824E7E7F319009395
:101ED000214600230822284601F038FC08343B46FE
:101EE000DDE7201A18BF0120E7E70000F8B50E462D
:101EF00005461446002181223046FFF72BFE2B4673
:101F000008220021304601F05DFD7CB96B1C0722E0
:101F10000821304601F056FD0F2401236A785F1C2A
:101F2000013B934204D3E01DC008F8BD0824F4E748
:101F3000EB1921460822304601F044FD08343B46A7
:101F4000ECE70000F8B50E46054614460021CE2207
:101F50003046FFF7FFFD2B4628220021304601F0D6
:101F600031FD7CB905F1080308222821304601F033
:101F700029FD30242F462A7A7B1B934204D3E01D8F
:101F8000C008F8BD2824F5E707F109032146082217
:101F9000304601F017FD08340137ECE7F7B5047F50
:101FA00000910E46012310220021054601F0CEFBD0
:101FB000C4B9B31C0093092223461021284601F01E
:101FC000C5FB192437467288BB1B9A4211D82B7F58
:101FD000A88A0734E408BBB9844294BF00200120DA
:101FE00003B0F0BDAB8ADB00103BDB08738010242C
:101FF000E8E73B1D0093214600230822284601F014
:10200000A5FB08340137DEE7201A18BF0120E7E7F7
:1020100030B5094D0A4491420DD011F8013B5840AA
:10202000082340F30004013B2C4013F0FF0384EA33
:102030005000F6D1EFE730BD2083B8EDF7B54FF093
:10204000FF33DFF854C0DFF854E000EB81011A469B
:1020500088421CD050F8044B019401AF042417F8B7
:10206000015B82EA05620825DB18164605F1FF359B
:102070005241002EBCBF83EA0C0382EA0E0215F027
:10208000FF05F1D1013C14F0FF04E8D1E0E7D843AB
:10209000D14303B0F0BD00BF9336EAA9EBE1F042B3
:1020A000F7B5384A106851686B4603C36A4636492B
:1020B0003648082304F062FB0446002833D10A2581
:1020C000334A106851686B4603C36A4631492F484A
:1020D000082304F053FB0446002849D00369B3F5F4
:1020E000E02F45D8B0F8661041F2707291423FD1AE
:1020F000294A024402F15C018B4239D35C3B2349FB
:1021000000209E1AFFF784FF3246074604F164015F
:102110000020FFF77DFFA3689F4229D1E368984222
:1021200008BF002524E00369B3F5E02F27D8418BD1
:1021300041F27072914220D1174A024402F110011B
:102140008B4218D3103B114900209D1AFFF760FF06
:102150002A46064604F118010020FFF759FFA3683C
:102160009E4202D1E368984201D00D25A8E70025E0
:10217000284603B0F0BD1025A2E70C25A0E70B25EB
:102180009EE700BFC8680008DCFF060000000108E9
:10219000D168000890FF06000800FFF710B5037C27
:1021A000044613B9006804F0D1FA204610BD0000BF
:1021B0000023BFF35B8FC360BFF35B8FBFF35B8F05
:1021C0008360BFF35B8F7047BFF35B8F0068BFF323
:1021D0005B8F704770B505460C30FFF7F5FF05F1D2
:1021E000080604463046FFF7EFFFA04206D9304606
:1021F0006D68FFF7E9FF2544281A70BD3046FFF7E8
:10220000E3FF201AF9E7000070B50546406898B171
:1022100005F10800FFF7D8FF05F10C06044630462B
:10222000FFF7D2FF8442304694BF6D680025FFF768
:10223000CBFF013C2C44201A70BD000038B50C4681
:102240000546FFF7C7FFA04210D305F10800FFF7CE
:10225000BBFF04446868B4FBF0F100FB1144BFF31A
:102260005B8F0120AC60BFF35B8F38BD0020FCE7C3
:102270002DE9F041144607460D46FFF7C5FF84429D
:1022800028BF0446D4B1B84658F80C6B4046FFF757
:102290009BFF3044286040467E68FFF795FF331A65
:1022A0009C4203D86C600120BDE8F0816B60A41BE8
:1022B0003B68AB602044E8600220F5E72046F3E786
:1022C00038B50C460546FFF79FFFA04210D305F135
:1022D0000C00FFF779FF04446868B4FBF0F100FBE1
:1022E0001144BFF35B8F0120EC60BFF35B8F38BDFF
:1022F0000020FCE72DE9FF41884669460746FFF7C5
:10230000B7FF6C4606B204EBC6060025B44209D0FE
:102310006268206808EB0501FFF7F6FB6368083484
:102320001D44F3E729463846FFF7CAFF284604B0A4
:10233000BDE8F081F8B505460C300F46FFF744FFC5
:1023400005F1080604463046FFF73EFFA04230463E
:1023500088BF6C68FFF738FF201A386020B130461C
:102360002C68FFF731FF2044F8BD000073B5144618
:1023700006460D46FFF72EFF844228BF0446019013
:10238000DCB101A93046FFF7D5FF019B33B93268B4
:10239000C5E90233C5E9002401200CE09C4238BFA6
:1023A00001942860019868608442F5D93368AB6075
:1023B000241AEC60022002B070BD2046FBE700004A
:1023C0002DE9FF410F466946FFF7D0FF6C4600B28A
:1023D00004EBC0050026AC4209D0D4F8048054F8C0
:1023E000081BB8194246FFF78FFB4644F3E7304617
:1023F00004B0BDE8F081000038B50546FFF7E0FF06
:10240000044601462846FFF719FF204638BD000064
:10241000302383F3118862B670470000002383F3F2
:10242000118862B67047000010B4026854681A46FA
:1024300023465DF8044B1847012070470020704781
:102440000020704770470000002070470E20704742
:1024500000F5805090F8C800C0F3400070470000BD
:1024600000F5805090F9C90070470000F7B50C687E
:10247000BDF8207014F000541E466FD10B7B082B62
:102480006CD8FFF7C5FF4569AB685B010CD4AB683E
:102490001B0108D4AC6814F080545DD1FFF7BEFF77
:1024A000204603B0F0BD01240B6804F1180C002B8A
:1024B000B8BFDB004FEA0C1CB4BF43F004035B055C
:1024C00045F80C300B680FFA84FC13F0804F18BFEE
:1024D00005EB0C1E05EB0C1C1EBFDEF8803143F033
:1024E0000203CEF880310B7BCCF8843105EB041568
:1024F0008B68C5F88C314B68C5F88831DCF88031C1
:1025000043F00103CCF8803100EB441541F268033D
:102510001D4403EB44130344C5E9002608330D466C
:1025200001F10C0C55F804EB43F804EB6545F9D1C7
:1025300084342D881D8000EB441407F003032579B3
:1025400025F00B052B432371FFF768FF00973346F7
:1025500000F0E2FC0120A4E70224A5E74FF0FF30E1
:102560009FE7000013B500F580540191E06DFFF77F
:102570004BFE1F280AD90199E06D2022FFF7BAFE11
:10258000A0F120035842584102B010BD0020FBE7E3
:1025900008B500F58050FFF73BFFC06DFFF708FE60
:1025A000BDE80840FFF73ABF002202608281426026
:1025B0008260704710B500220023C0E90023002389
:1025C000044603810C30FFF7EFFF204610BD0000EA
:1025D000F0B5054600F580500C4690F8C83013F071
:1025E000040FC3F3800108BF114661F3820304F1B5
:1025F000840680F8C83005EB461389B01B79D807EC
:102600002ED57AB319072DD46846FFF7D3FF05EB13
:10261000441303F5835303F1180703AA1033186812
:102620005968144603C40833BB422246F7D11868E0
:1026300020609B88A380DDE90E23CDE900230123E0
:10264000ADF808302B686946DB6B2846984705EBE8
:1026500046152B791A075CBF43F008032B7101E084
:10266000002AF4D109B0F0BD2DE9F047074688B043
:1026700007F5805468469A468846FFF7C9FE91469A
:10268000FFF798FFE06DFFF7A5FD1F2829D9E06D42
:1026900020226946FFF7B0FE202822D103AD444630
:1026A00005AB2E4603CE9E4220606160354604F1A4
:1026B0000804F6D130682060B388A380DDE90023E8
:1026C000C9E90023BDF80830AAF80030FFF7A6FEDC
:1026D0004A4653464146384608B0BDE8F04700F048
:1026E00009BCFFF79BFE002008B0BDE8F0870000A2
:1026F0002DE9F84F0023C0E90133254B044640F88B
:10270000183B0F46FFF750FF04F12800FFF752FF78
:1027100004F1480804F5825546460835304620360F
:10272000FFF748FFAE42F9D104F580554FF48053CE
:102730004FF00009C5E91339C5F848800123EE655B
:1027400004F5875804F58456C5F8549085F8583038
:1027500085F86030083608F108084FF0000A4FF09D
:10276000000B46E908ABA6F11800FFF71DFF203665
:1027700046F8289C4645F4D185F8C97017B105483C
:1027800000F0A2FB044B63612046BDE8F88F00BF58
:1027900004690008DC6800080068004010B5044BBC
:1027A000197804464A1C1A70FFF7A2FF204610BD94
:1027B0005C4B00202DE9F047002950D0294B2A4FCF
:1027C000B7FBF1F599428CBF0A231123581EB5FBC4
:1027D000F3FC03FB1C53C4B22BB102280346F5D80B
:1027E0000020BDE8F0870CF1FF36B6F5806FF7D218
:1027F000C4EBC40E0EF103034FEAE309C3F3C703AE
:10280000A4EB030809F1010A4FF47A755FFA88F026
:1028100009FB05555AFA88F8B5FBF8F5B5F5617F5F
:10282000C1BF0EF1FF33C3F3C703E01AC0B25C1C93
:1028300050FA84F40CFB04F4B7FBF4F4A142CFD1BA
:10284000013BDBB20F2BCBD80138C0B20728C7D869
:102850000021107116809170D3700120C1E70846E5
:10286000BFE700BF3F420F0080DE800270B5054623
:102870000E464FF47A746B695B6803F00103B34250
:1028800007D04FF47A7002F0D5F8013CF3D120461E
:1028900070BD0120FCE7000030B54269936913F078
:1028A000700F16D000230B4C936103F1840200EBF0
:1028B000421211794D0709D5890707D5416954F8A6
:1028C00023508D60117941F0040111710133032B04
:1028D000EBD130BDF068000873B51D46436916465C
:1028E0009A68D207044609D59A6801219960C2F313
:1028F0004002CDE900650021FFF76AFE63699A682E
:10290000D1050BD59A684FF480719960C2F34022CB
:10291000CDE9006501212046FFF75AFE63699A68F8
:10292000D2030BD59A684FF480319960C2F34042CC
:10293000CDE9006502212046FFF74AFE204602B09D
:10294000BDE87040FFF7A8BFF8B504464669002906
:102950006CD106F10C07386880076AD006EB0115C8
:102960003868D5F8B00110F0040FD5F8B0011ABFDF
:10297000C00840F00040400DA061D5F8B0C11CF087
:10298000020F1CBF40F08040A061D5F8B40106EBF7
:10299000011100F00F0084F82400D1F8B80120776D
:1029A000D1F8B801000A6077D1F8B801000CA0771F
:1029B000D1F8B801000EE077D1F8BC0184F820000E
:1029C000D1F8BC01000A84F82100D1F8BC01000C48
:1029D00084F82200D1F8BC11090E84F823103821A4
:1029E000396004F1340004F1180104F1240551F8B0
:1029F000046B40F8046BA942F9D109880180C4E94D
:102A00000A2321460023238651F8283B2046DB6B0E
:102A1000984704F58052204692F8C83043F00403EA
:102A200082F8C830BDE8F840FFF736BF06F110075E
:102A300091E7F8BD10B5044600F04EFA02460B4689
:102A400052EA030102D0013A63F100030449086825
:102A500020B12146BDE81040FFF776BF10BD00BF92
:102A6000584B0020F8B500F583511E46FFF7D0FC07
:102A7000DFF844C00831002404F1840500EB45155B
:102A80002B795F070ED4DB060CD5D1E90073974292
:102A9000B34107D243695CF824709F602B7943F0FF
:102AA00004032B710134032C01F12001E4D1BDE8B2
:102AB000F840FFF7B3BC00BFF068000808B5FFF7A7
:102AC000A7FCFFF7E9FEBDE80840FFF7A7BC000040
:102AD000F8B543690546986800F0E050B0F1E05F52
:102AE0000F461FD0E8B1FFF793FC05F5835410346F
:102AF000002606F1840305EB43131B791A0706D55C
:102B00000136032E04F12004F3D1012007E05B0716
:102B1000F6D42146384600F039FA0028F0D1FFF704
:102B20007DFCF8BD0120FCE700F5805008B5FFF7FB
:102B30006FFCC06DFFF74EFBFFF770FC43090CBF45
:102B40000120002008BD0000F8B51D4600231370C9
:102B50000F4606461446FFF7E7FF80F00100387085
:102B600025B129463046FFF7B3FF2070F8BD0000BD
:102B70002DE9B8410C4615461F46804600F0ACF9D9
:102B80000B462178024609B9287850B14046FFF734
:102B900069FFFFF793FF3B462A462146FFF7D4FF24
:102BA0000120BDE8B881000010B5FFF731FC174BDC
:102BB0001A6C42F080621A641A6A42F080621A62E9
:102BC0001A6A00F5805422F080621A62FFF726FC30
:102BD00094F8C830DB0718D4B9B103213F20FFF7C0
:102BE00017FC01F0C7F90321402001F0C3F90321CC
:102BF000412001F0BFF994F8C83043F0010384F894
:102C0000C830BDE81040FFF709BC10BD00380240D5
:102C10002DE9F04700F5805588B095F8C930012BB3
:102C20000446884616467FD8804F57F823200AB9B5
:102C300047F82300D7F800A0C4F80C802674BAF136
:102C4000000F63D095F8C930012B6FD001212046C9
:102C5000FFF7AAFFFFF7DCFB6269136823F00203AA
:102C600013606269136843F001031360636900270E
:102C70005F6101212046FFF7D1FBFFF7F7FD002838
:102C800000F09580E86DFFF793FA04F58359BA4692
:102C900009F10809202200216846FEF75BFF02A81F
:102CA000FFF782FCCDF818A06A4609EB07030DF187
:102CB000180E9446BCE80300F4451860596062465B
:102CC00003F10803F5D1DCF80000186020379CF808
:102CD00004201A71602FDDD195F8C8306FF382039C
:102CE000002785F8C8306A4641462046ADF8007096
:102CF000ADF802708DF80470FFF75CFD636948BBA6
:102D00004FF400421A6008B0BDE8F08741F2D000ED
:102D100003F0DCFC814610B15146FFF7E9FCC7F82F
:102D20000090B9F1000F8DD10020ECE738680368FE
:102D30001B6B98470146002888D13868FFF734FF9D
:102D40003868036832465B684146984700287FF43C
:102D50007DAFE9E761221A609DF802309DF80320FB
:102D60001B06120402F4702203F040731343BDF8F3
:102D70000020C2F3090213439DF804201205022E1D
:102D800002F4E0020CBF4FF00041002113436269DE
:102D90000B43D361636913225A616269136823F09C
:102DA0000103136039462046FFF760FD08B96369E7
:102DB000A6E795F8C93093BB6169D1F8002242F0CB
:102DC0000102C1F800226169D1F8002222F47C528C
:102DD00022F00E02C1F800226169D1F8002242F40B
:102DE0006062C1F800226269C2F814326269C2F8F6
:102DF0000432626941F6FF71C2F80C126269C2F8CE
:102E000040326269C2F8443263690122C3F81C226D
:102E10006269D2F8003223F00103C2F8003295F85B
:102E2000C83043F0020385F8C8306CE7584B0020E7
:102E300008B500F051F850EA0103024602D0421EE4
:102E400061F10001044B186810B10B46FFF744FD17
:102E5000BDE8084001F064B8584B002008B50020D8
:102E6000FFF7E8FDBDE8084001F05AB808B50120B9
:102E7000FFF7E0FDBDE8084001F052B800B59BB097
:102E8000EFF3098168226846FEF73EFEEFF3058303
:102E9000014B9B6BFEE700BF00ED00E008B5FFF7BC
:102EA000EDFF000000B59BB0EFF309816822684692
:102EB000FEF72AFEEFF30583014B5B6BFEE700BFD5
:102EC00000ED00E0FEE700000FB408B5029801F045
:102ED0003DFDFEE702F0D4B902F0ACB913B56C4683
:102EE00084E80600031D94E8030083E80500012040
:102EF00002B010BD73B58568019155B11B885B07A1
:102F000007D4D0E900369B6B9847019AC1B230468E
:102F1000A847012002B070BDF0B5866889B00546AB
:102F20000C465EB1BDF838305B070AD4D0E90037F3
:102F30009B6B98472246C1B23846B047012009B082
:102F4000F0BD00220023CDE900230023ADF80830B6
:102F50000A4603AB01F10806106851681C4603C419
:102F60000832B2422346F7D1106820609288A280CE
:102F7000FFF7B2FF0423ADF808302B68CDE900015C
:102F8000DB6B694628469847D8E7000030B50368F0
:102F90000968DD0FB5EBD17F23F0604421F060427A
:102FA0004FEAD1700BD0002BB8BFA40C0029B8BFDA
:102FB000920C944202D034BF0120002030BD9442D4
:102FC00005D1C1F38070C3F380738342F6D194427C
:102FD0002CBF00200120F1E72DE9F041456A15B929
:102FE0004162BDE8F0814B6823F06047C3F38A4635
:102FF0004FEAD37EC3F3807816EA230638BF3E46F5
:10300000AC462B465A68BEEBD27F22F060440AD011
:10301000002A18DAA40CB44217D19D420FD10D60DA
:10302000DEE71346EEE7A74207D102F08044C2F381
:10303000807242450BD054B1EFE708D2EDE7CCF8EF
:1030400000100B60CDE7B44201D0B442E5D81A6855
:103050009C46002AE5D11960C3E700002DE9F0473E
:10306000089D01F007044FEAD508224405F0070542
:1030700000EBD1004FF47F49944201D1BDE8F087C5
:1030800004F0070705F0070A57453E4638BF564685
:10309000C6F10806111B8E4228BF0E46E10808EB58
:1030A000D50E415C13F80EC0B94029FA06F721FA93
:1030B0000AF1FFB28CEA010147FA0AF739408CEABB
:1030C000010C03F80EC034443544D5E780EA0120F2
:1030D000082341F2210201B24000002980B203F12D
:1030E000FF33B8BF504013F0FF03F4D17047000026
:1030F00038B50C468D18A54200D138BD14F8011B17
:10310000FFF7E4FFF7E7000042684AB11368436045
:103110004389818901339BB29942438138BF8381BE
:103120001046704770B588B0202204460D466846A8
:103130000021FEF70FFD20460495FFF7E5FF02464C
:1031400058B16B46054608AE1C4603CCB442286015
:103150006960234605F10805F6D1104608B070BD38
:10316000082817D909280CD00A280CD00B280CD015
:103170000C280CD00D280CD00E2814BF4020302075
:1031800070470C207047102070471420704718209B
:103190007047202070470000082817D90C280CD948
:1031A00010280CD914280CD918280CD920280CD98F
:1031B00030288CBF0F200E207047092070470A204E
:1031C00070470B2070470C2070470D20704700009F
:1031D0002DE9F843078C072F04461ED9D0E9029841
:1031E00000254FF6FF73C5F12006A5F1200029FA4E
:1031F00005F108FA06F628FA00F031430143C9B296
:103200001846FFF763FF0835402D0346EBD1E1690F
:103210003A46BDE8F843FFF76BBF4FF6FF70BDE8D5
:10322000F883000010B54B6823B9CA8A63F309021A
:10323000CA8210BD04691A681C600361C38A013B1D
:10324000C3824A60EFE700002DE9F84F1D46CB8AA4
:103250000F46C3F309010529814692460B4630D03B
:103260000020AAB207F11A049EB2042E1FFA80F8B9
:103270000FD8904503F1010306D3FB8A0A4462F399
:103280000903FB8201201AE01AF80060E6540130BD
:10329000EAE79045F1D2A1F1050B1C237C68BBFB4A
:1032A000F3F203FB12BB1FFA8BF6002C45D1484604
:1032B000FFF72AFF044638B978606FF00200BDE8D6
:1032C000F88F4FF00008E6E7002606607860ADB2A0
:1032D0004FF0000B454510D90AEB0803221D13F8E7
:1032E000011B9155B1B208F101081B291FFA88F89A
:1032F0002BD0454506F10106F1D8FB8AC3F309023C
:10330000154465F30903BCE7013292B21C462368F9
:10331000002BF9D16B1F0B441C21B3FBF1F30133DC
:103320009BB29A42D3D2BBF1000FD0D14846FFF7EF
:10333000EBFE20B9C4F800B0BFE70122E7E7C0F810
:1033400000B05E4620600446C1E74545D5D94846F1
:10335000FFF7DAFE08B92060AFE7C0F800B000263A
:1033600020600446B6E700002DE9F04F2DED028BFA
:103370001C4683B05B69019207468846002B00F02B
:103380009A80238C2BB1E269002A00F09480072BED
:1033900035D807F10C00FFF7B7FE054638B96FF0D6
:1033A0000205284603B0BDEC028BBDE8F08F142265
:1033B0000021FEF7CFFB228CE16905F10800FEF742
:1033C000A3FB208C013080B2FFF7E6FEFFF7C8FEBA
:1033D000013880B22084013028746369228C1B7804
:1033E0002A4403F01F0363F03F0348F000411372C7
:1033F000384669602946FFF7EFFD0125D1E700F166
:103400000C034FF0000908EE103A4FF0800A4E46C8
:103410004D4618EE100AFFF777FE83460028BED00F
:1034200014220021FEF796FB002E3AD1019BABF847
:10343000083002220BF1080E1FFA82FC0CF1010089
:10344000BCF1060F218C80B201D88E422BD3FFF73E
:10345000A3FEFFF785FE62691278013802F01F02B1
:103460008E4208BF4FF0400A42EA49121BFA80F12F
:103470004AEA020A013048F0004281F808A08BF8BD
:103480001000CBF8042059463846FFF7A5FD238CE1
:103490000135B3422DB289F001094FF0000AB8D1CD
:1034A0007FE70022C6E7E169895D0EF80210013668
:1034B000B6B20132C0E76FF0010572E7F8B5154604
:1034C0000E463022002104461F46FEF743FB069BB2
:1034D0006360B5F5001F079BA76034BF6A094FF60C
:1034E000FF72A36297B2E66104F1100000239A42D2
:1034F00006D800230360A782E3822383E360F8BD3C
:103500000660013330462036F1E7000003781BB92E
:103510004BB2002BC8BF01707047000000787047A5
:10352000F8B50C46C969074611B9238C002B37D171
:10353000257E1F2D34D8387828BB228C072A2CD81A
:10354000268A36F003032BD14FF6FF70FFF7D0FD2C
:1035500020F001003102400441EA0561400C41EADB
:1035600040254FF6FF72234629463846FFF7FCFEFA
:10357000002807DD626913780133DBB21F2B88BF97
:1035800000231370F8BD218A2D0645EA0125054365
:103590002046FFF71DFE0246E5E76FF00300F1E766
:1035A0006FF00100EEE7000070B58AB004461646E1
:1035B0000021282268461D46FEF7CCFABDF83830B7
:1035C000ADF810300F9B05939DF840308DF8183002
:1035D000119B07936946BDF84830ADF8203020466E
:1035E000CDE90265FFF79CFF0AB070BD2DE9F041FF
:1035F000D36905460C4616460BB9138C5BBB377E68
:103600001F2F28D895F80080B8F1000F26D030463B
:10361000FFF7DEFD3378210241EAC33141EA0801B8
:10362000338A41EA076141EA03410246334641F0E9
:1036300080012846FFF798FE00280ADD3378012B29
:1036400007D1726913780133DBB21F2B88BF0023C7
:103650001370BDE8F0816FF00100FAE76FF003002E
:10366000F7E70000F0B58BB004460D461746002181
:10367000282268461E46FEF76DFA9DF84C305A1E09
:10368000534253418DF800309DF84030ADF8103072
:10369000119B05939DF848308DF81830149B0793C3
:1036A0006A46BDF85430ADF8203029462046CDE9B1
:1036B0000276FFF79BFF0BB0F0BD0000406A00B13F
:1036C00004307047436A1A68426202691A600361F3
:1036D000C38A013BC38270472DE9F041D0F82080B6
:1036E000194E14461D464146002709B9BDE8F08130
:1036F000D1E90223A21A65EB0303964277EB030399
:103700001ED2036A8B420DD1FFF78CFD036A1B6842
:10371000036203690B60C38A0161016A013BC382D2
:103720008846E2E7FFF77EFD0B68C8F800300369C2
:103730000B60C38A0161013BC382D8F80010D4E753
:1037400088460968D1E700BF80841E002DE9F04F4C
:103750008BB00D46DDF8509014469B4680460028FD
:1037600000F01981B9F1000F00F01581531E3F2BB5
:1037700000F21181012A03D1BBF1000F40F00B814F
:103780000023CDE90833B8F81430B5EBC30F4FEA86
:10379000C30703D300200BB0BDE8F08F2B199F4265
:1037A000D8F80C303ABF7F1BFFB227461BB9D8F8B8
:1037B0001030002B7AD0272D4ED8C5F12806B742FD
:1037C0004FF000032CBFF6B23E4600932946D8F8CE
:1037D000080008AB3246FFF741FCA7EB060A354468
:1037E0005FFA8AFAB8F8143003F10053053BDB00A6
:1037F0000493D8F80C3003932821039B13B1BAF13A
:10380000000F2CD1D8F8100040B1BAF1000F05D04C
:10381000009608AB5246691AFFF720FC38B2002F19
:10382000B8D066070AD00AAB03EBD401624211F8A4
:10383000083C02F00702134101F8083C082C3CD96F
:10384000102C40F2B580202C40F2B780BBF1000F65
:1038500000F09C80082334E0BA460026C2E7049BAF
:10386000E02B28BFE02306930B44AB42059314D909
:103870005A1B03980096924534BF5246D2B2691A39
:1038800008AB04300792FFF7E9FB079A1644AAEB4E
:10389000020A1544F6B25FFA8AFA049B069A059961
:1038A0009B1A0493039B1B680393A6E70093D8F825
:1038B000080008AB3A462946AEE7BBF1000F13D02B
:1038C0000123B4EBC30F6CD0082C12D89DF8203024
:1038D000621E23FA02F2D50706D54FF0FF3202FA34
:1038E00004F423438DF820309DF8203089F800300F
:1038F00051E7102C12D8BDF82030621E23FA02F2D4
:10390000D10706D54FF0FF3202FA04F42343ADF895
:103910002030BDF82030A9F800303CE7202C0FD82B
:103920000899631E21FA03F3DA0705D54FF0FF3239
:1039300002FA04F40C430894089BC9F800302AE703
:10394000402C2BD0DDE90865611EC4F12102A4F1F1
:10395000210326FA01F105FA02F225FA03F31143D5
:103960001943CB0712D50122A4F12003C4F1200191
:1039700002FA03F322FA01F1A240524243EA0103A0
:1039800063EB430332432B43CDE90823DDE90823EE
:10399000C9E90023FFE66FF00100FCE66FF00800C4
:1039A000F9E6082CA0D9102CB3D9202CEED8C3E707
:1039B000BBF1000FADD0022383E7BBF1000FBBD0FA
:1039C00004237EE730B5012A144638BF0124402C79
:1039D00085B028BF40240025012ACDE9025518D81A
:1039E0001B788DF8083063070AD004AB03EBD405CD
:1039F000624215F8083C02F00702934005F8083CC3
:103A0000009103462246002102A8FFF727FB05B0DC
:103A100030BD082AE4D9102A03D81B88ADF8083035
:103A2000E1E7202A8DBFD3E900231B680293CDE98B
:103A30000223D8E710B5CB681BB98B600B618B8272
:103A400010BD04691A681C600361C38A013BC3820C
:103A5000CA60F0E703064CBFC0F3C03002207047D5
:103A600008B50246FFF7F6FF022806D15306C2F357
:103A70000F2001D100F0030008BDC2F30740FBE7AF
:103A80002DE9F04F93B0CDE903230A6804461046B0
:103A9000FFF7E0FF022814BFC2F306260026002A23
:103AA0000D46824680F2F28112F0C04940F0EE816C
:103AB000097B002900F0EA81022803D02378B34271
:103AC00040F0E781C2F304630693104602F07F03DF
:103AD0000593FFF7C5FF059B29444FEA834848EA51
:103AE0000A4848EA4668CE7800230022CDE9082338
:103AF000F309834648EA0008029367D0059B0093C8
:103B000002466768534608A92046B847002800F0D7
:103B1000C381276A4FB9414604F10C00FFF702FB4D
:103B2000074690B96FF0020054E03B6998450DD00C
:103B30003F68002FF9D1414604F10C00FFF7F2FA7B
:103B400007460028EED0236A3B60276297F817C02B
:103B500006F01F08CCF3840CACEB08001FFA80FEC3
:103B60000028B8BF0EF12000A8EB0C031FFA83FE5B
:103B7000D7E90221B8BF00B2002B0793BEBF0EF1F8
:103B800020031BB2079352EA010338D0039BDFF8EE
:103B900024E39A1A049B4FF0000C63EB0101964555
:103BA0007CEB01032BD36B7B97F81AE0734519D19B
:103BB000029B002B78D0012821DC7868F8B9DFF867
:103BC000F0C2944570EB010316D337E0276A27B99A
:103BD0006FF00C0013B0BDE8F08F3B699845B5D08D
:103BE0003F68F4E7B24890427CEB010301D3002028
:103BF000F0E7029B002BFAD0079B0F2B17DCFA7D16
:103C0000B30002F0030203F07C031343FB75394653
:103C10002046FFF707FB6B7BBB76029B3BB9FB7D26
:103C2000C3F38402013262F38603FB75D0E76A7B3B
:103C3000BB7E9A42DBD1029B002B35D0B309022B0D
:103C400032D0039BBB60049BFB60142200210DA8B3
:103C5000FDF780FF039B0A93049B0B932B1D0C9392
:103C60002B7BADF83EB0013BDBB2ADF83C30069BA0
:103C70008DF84230059B8DF8433094F82C308DF848
:103C800040A083F001038DF844308DF84180A36893
:103C90000AA920469847FB7DC3F38403013303F050
:103CA0001F039B02FB82A2E7FB7DC6F34012B2EB2F
:103CB000D31F40F0F480C3F38403434540F0F28007
:103CC000029A2B7BB609002A4DD0F2075DD4032B54
:103CD00040F2EB80039BBB60049BFB602B7BAE1D23
:103CE000033BDBB23246394604F10C00FFF7ACFA75
:103CF00000280CDA39462046FFF794FAFB7DC3F31F
:103D00008403013303F01F039B02FB820AE7DDE912
:103D10000884AB883B834FF6FF73C9F12000A9F1FB
:103D2000200228FA09F104FA00F0014324FA02F211
:103D300011431846C9B2FFF7C9F909F10809B9F1E9
:103D4000400F0346E9D1B8822A7B033AD2B231460A
:103D5000FFF7CEF9FB7DB882DA43C2F3C01262F3FB
:103D6000C713FB7543E786B92E1D013BDBB2324614
:103D7000394604F10C00FFF767FA0028BADB2A7B0A
:103D8000B88A013AD2B23146E2E7F98AC1F30901B1
:103D9000013B0429DAB25BD8281D002307F11B067A
:103DA0009A4208D910F801CB06F801C0013101335D
:103DB0000529DBB2F4D103990A9104990B9193423E
:103DC00007F11B010C9138BF043379680D9134BFA2
:103DD00055FA83F300230E93FB8AADF83EB0C3F38C
:103DE00009031A44069B8DF84230059B8DF8433039
:103DF00094F82C30ADF83C2083F001038DF844306A
:103E000000238DF840A08DF841807B602A7BB88A22
:103E1000013A291DFFF76CF93B8BB882834203D12D
:103E2000A3680AA92046984720460AA9FFF702FE80
:103E3000FB7DBA8AC3F38403013303F01F039B02A3
:103E4000FB823B8B9A420CBF00206FF01000C1E652
:103E50007B68002BAFD0052001E01C3033461E6884
:103E6000002EFAD1091A081D2E1D184401EB090C69
:103E7000BCF11B0F5FFA89F39DD89A429BD916F8C3
:103E8000013B00F8013B09F10109EFE76FF0090080
:103E9000A0E66FF00A009DE66FF00B009AE66FF067
:103EA0000D0097E66FF00E0094E66FF00F0091E6BC
:103EB00040420F0080841E00EFF3098305494A6BDE
:103EC00022F001024A63683383F30988002383F3F5
:103ED0001188704700EF00E0302080F3118862B64F
:103EE0000C4B0D4AD96821F4E0610904090C0A431E
:103EF000DA60D3F8FC20094942F08072C3F8FC2054
:103F00000A6842F001020A602022DA7783F8220070
:103F1000704700BF00ED00E00003FA05001000E06C
:103F200010B5302383F311880E4B5B6813F40063E4
:103F300014D0F1EE103AEFF30984683C4FF080732F
:103F4000E361094BDB6B236684F3098800F0BCFC5A
:103F500010B1064BA36110BD054BFBE783F311883D
:103F6000F9E700BF00ED00E000EF00E043060008C5
:103F70004606000800F1604303F561430901C9B238
:103F800083F80013012200F01F039A4043099B00AD
:103F900003F1604303F56143C3F880211A60704761
:103FA000026843681143016003B11847704700007D
:103FB00013B5446BD4F894341A681178042915D1D8
:103FC000217C022912D11979128901238B401342D5
:103FD0000CD101A904F14C0001F0BCFFD4F89444C9
:103FE000019B21790246206800F0D0F902B010BD93
:103FF000143001F03FBF00004FF0FF33143001F0E8
:1040000039BF00004C3002F011B800004FF0FF3310
:104010004C3002F00BB80000143001F00DBF00006E
:104020004FF0FF31143001F007BF00004C3001F0B9
:10403000DDBF00004FF0FF324C3001F0D7BF000071
:104040000020704710B5D0F894341A68117804290C
:10405000044617D1017C022914D1597952890123D0
:104060008B4013420ED1143001F0A0FE024648B13D
:10407000D4F894444FF4807361792068BDE810400F
:1040800000F072B910BD0000406BFFF7DBBF00000D
:10409000704700007FB5124B036000234360C0E906
:1040A0000233012502260F4B05740446029001934A
:1040B00000F18402294600964FF48073143001F019
:1040C00051FE094B0294CDE9006304F523724FF4CD
:1040D0008073294604F14C0001F018FF04B070BD54
:1040E0004469000889400008B13F00080B6830228D
:1040F00082F311880A7903EB820290614A790932CE
:1041000043F822008A7912B103EB820398610223FB
:10411000C0F894140374002080F3118870470000E5
:1041200038B5037F044613B190F85430ABB9201D65
:1041300001250221FFF734FF04F1140025776FF009
:10414000010100F09FFC84F8545004F14C006FF022
:104150000101BDE8384000F095BC38BD10B5012123
:1041600004460430FFF71CFF0023237784F8543003
:1041700010BD000038B504460025143001F00AFED9
:1041800004F14C00257701F0D9FE201D84F854502D
:104190000121FFF705FF2046BDE83840FFF752BF79
:1041A00090F8443003F06003202B07D190F84520AD
:1041B000212A4FF0000303D81F2A06D80020704799
:1041C000222AFBD1C0E90E3303E0034A82630722AF
:1041D000C2630364012070471D23002037B5D0F867
:1041E00094341A681178042904461AD1017C0229F2
:1041F00017D11979128901238B40134211D100F193
:104200004C05284601F05AFF58B101A9284601F093
:10421000A1FED4F89444019B21790246206800F065
:10422000B5F803B030BD0000F0B500EB810385B0F8
:104230009E6904460D46FEB1302383F3118804EBDA
:104240008507301D0821FFF7ABFEFB685B691B6823
:1042500006F14C001BB1019001F08AFE019803A900
:1042600001F078FE024648B1039B2946204600F043
:104270008DF8002383F3118805B0F0BDFB685A69FF
:104280001268002AF5D01B8A013B1340F1D104F1DA
:104290004402EAE7093138B550F82140DCB1302357
:1042A00083F31188D4F894241368527903EB8203C2
:1042B000DB689B695D6845B104216018FFF770FEFB
:1042C000294604F1140001F07BFD2046FFF7BAFEF9
:1042D000002383F3118838BD7047000001F0F0B867
:1042E000012303700023C0E90133C36183620362C9
:1042F000C36243620363704738B50446302383F3D7
:1043000011880025C0E90355C0E90555416001F059
:10431000E7F80223237085F31188284638BD000092
:1043200070B500EB810305465069DA600E4614460D
:1043300018B110220021FDF70DFCA06918B1102260
:104340000021FDF707FC31462846BDE8704001F02A
:1043500091B90000826802F0011282600022C0E977
:104360000422826101F012BAF0B400EB81044789A3
:10437000E4680125A4698D403D4345812360002305
:10438000A2606360F0BC01F02DBA0000F0B400EB55
:1043900081040789E468012564698D403D430581F6
:1043A00023600023A2606360F0BC01F0A7BA0000A4
:1043B00070B50223002504460370C0E90255C0E928
:1043C0000455C564856180F8345001F0EFF86368E6
:1043D0001B6823B129462046BDE87040184770BDD0
:1043E0000378052B10B504460AD080F85030052319
:1043F000037043681B680BB1042198470023A36036
:1044000010BD00000178052906D190F850204368BE
:1044100002701B6803B118477047000070B590F830
:104420003430044613B1002380F8343004F14402E0
:10443000204601F0CDF963689B68B3B994F8443025
:1044400013F0600535D00021204601F06DFC0021FD
:10445000204601F05FFC63681B6813B1062120460B
:104460009847062384F8343070BD204698470028CA
:10447000E4D0B4F84A30E26B9A4288BFE36394F91F
:104480004430E56B002B4FF0300380F20381002DA8
:1044900000F0F280092284F8342083F3118800218F
:1044A000D4E90E232046FFF771FF002383F3118820
:1044B000DAE794F8452003F07F0343EA022340F251
:1044C0000232934200F0C58021D8B3F5807F48D0F6
:1044D0000DD8012B3FD0022B00F09380002BB2D1DE
:1044E00004F14C02A2630222E2632364C1E7B3F544
:1044F000817F00F09B80B3F5407FA4D194F84630D3
:10450000012BA0D1B4F84C3043F0020332E0B3F5F4
:10451000006F4DD017D8B3F5A06F31D0A3F5C063AD
:10452000012B90D8636894F846205E6894F8471091
:10453000B4F848302046B047002884D04368A363CD
:104540000368E3631AE0B3F5106F36D040F6024219
:1045500093427FF478AF5C4BA3630223E3630023B1
:10456000C3E794F84630012B7FF46DAFB4F84C30BC
:1045700023F00203C4E90E55A4F84C30256478E713
:10458000B4F84430B3F5A06F0ED194F8463084F8F7
:104590004E30204601F062F863681B6813B10121B8
:1045A00020469847032323700023C4E90E339CE779
:1045B00004F14F03A3630123C3E72378042B10D135
:1045C000302383F311882046FFF7C4FE85F311885A
:1045D0000321636884F84F5021701B680BB120469B
:1045E000984794F84630002BDED084F84F300423EF
:1045F000237063681B68002BD6D0022120469847A1
:10460000D2E794F848301D0603F00F0120460AD582
:1046100001F0D0F8012804D002287FF414AF2B4B0E
:104620009AE72B4B98E701F0B7F8F3E794F8463098
:10463000002B7FF408AF94F8483013F00F01B3D08B
:104640001A06204602D501F083FBADE701F076FBA8
:10465000AAE794F84630002B7FF4F5AE94F8483082
:1046600013F00F01A0D01B06204602D501F05CFB21
:104670009AE701F04FFB97E7142284F8342083F384
:1046800011882B462A4629462046FFF76DFE85F302
:104690001188E9E65DB1152284F8342083F311888E
:1046A0000021D4E90E232046FFF75EFEFDE60B2233
:1046B00084F8342083F311882B462A462946204665
:1046C000FFF764FEE3E700BF746900086C69000847
:1046D0007069000838B590F834300446002B3ED09D
:1046E000063BDAB20F2A34D80F2B32D8DFE803F0BA
:1046F00037313108223231313131313131313737CF
:10470000C56BB0F84A309D4214D2C3681B8AB5FB12
:10471000F3F203FB12556DB9302383F311882B4656
:104720002A462946FFF732FE85F311880A2384F8CA
:1047300034300EE0142384F83430302383F31188AE
:1047400000231A4619462046FFF70EFE002383F386
:10475000118838BD036C03B198470023E7E70021B7
:10476000204601F0E1FA0021204601F0D3FA636807
:104770001B6813B10621204698470623D7E700009F
:1047800010B590F83430142B044629D017D8062BD6
:1047900005D001D81BB110BD093B022BFBD800216D
:1047A000204601F0C1FA0021204601F0B3FA636807
:1047B0001B6813B1062120469847062319E0152BE4
:1047C000E9D10B2380F83430302383F311880023A0
:1047D0001A461946FFF7DAFD002383F31188DAE75A
:1047E000C3689B695B68002BD5D1036C03B1984704
:1047F000002384F83430CEE7002303758268036910
:104800001B6899689142FBD25A680360426010604D
:104810005860704700230375826803691B689968B4
:104820009142FBD85A68036042601060586070473C
:1048300008B50846302383F311880B7D032B05D080
:10484000042B0DD02BB983F3118808BD8B6900228E
:104850001A604FF0FF338361FFF7CEFF0023F2E7CA
:10486000D1E9003213605A60F3E70000FFF7C4BFDC
:10487000054BD9680875186802681A6053600122F0
:104880000275D860FBF7C8BE684B002030B50C4BF2
:10489000DD684B1C87B004460FD02B46094A68469A
:1048A00000F084F92046FFF7E3FF009B13B1684650
:1048B00000F086F9A86907B030BDFFF7D9FFF9E726
:1048C000684B002031480008044B1A68DB68906888
:1048D0009B68984294BF002001207047684B0020DD
:1048E000084B10B51C68D86822681A605360012212
:1048F0002275DC60FFF78EFF01462046BDE81040C0
:10490000FBF78ABE684B0020044B1A68DB6892688C
:104910009B689A4201D9FFF7E3BF7047684B0020BC
:1049200038B5074C07490848012300252370656006
:1049300001F0FCFB0223237085F3118838BD00BF12
:10494000D04D00207C690008684B002008B572B685
:10495000044B186500F052FC00F010FD024B0322DE
:104960001A70FEE7684B0020D04D002000F05EB9C1
:10497000EFF3118020B9EFF30583302282F3118821
:104980007047000010B530B9EFF30584C4F3080494
:1049900014B180F3118810BDFFF7B6FF84F31188BE
:1049A000F9E70000034A516853685B1A9842FBD844
:1049B000704700BF001000E08B60022308618B820B
:1049C000084670478368A3F1840243F8142C0269F7
:1049D00043F8442C426943F8402C094A43F8242CFC
:1049E000C26843F8182C022203F80C2C002203F8AA
:1049F0000B2C044A43F8102CA3F12000704700BF91
:104A000031060008684B002008B5FFF7DBFFBDE862
:104A10000840FFF72BBF0000024BDB6898610F20B6
:104A2000FFF726BF684B0020302383F31188FFF780
:104A3000F3BF000008B50146302383F31188082036
:104A4000FFF724FF002383F3118808BD064BDB68C2
:104A500039B1426818605A60136043600420FFF760
:104A600015BF4FF0FF307047684B00200368984235
:104A700006D01A680260506099611846FFF7F6BECA
:104A80007047000038B504460D462068844200D1C6
:104A900038BD036823605C608561FFF7E7FEF4E7DB
:104AA00010B503689C68A2420CD85C688A600B60F1
:104AB0004C602160596099688A1A9A604FF0FF3300
:104AC000836010BD1B68121BECE700000A2938BF89
:104AD0000A2170B504460D460A26601901F020FB34
:104AE00001F00CFB041BA54203D8751C2E4604469E
:104AF000F3E70A2E04D9BDE87040012001F056BB4F
:104B000070BD0000F8B5144B0D46D96103F11001DA
:104B100041600A2A1969826038BF0A220160486030
:104B20001861A818144601F0EDFA0A2701F0E6FA18
:104B3000431BA342064606D37C1C281901F0F0FA59
:104B400027463546F2E70A2F04D9BDE8F840012090
:104B500001F02CBBF8BD00BF684B0020F8B506463D
:104B60000D4601F0CBFA0F4A134653F8107F9F42CF
:104B700006D12A4601463046BDE8F840FFF7C2BFDD
:104B8000D169BB68441A2C1928BF2C46A34202D90C
:104B90002946FFF79BFF224631460348BDE8F8400F
:104BA000FFF77EBF684B0020784B002010B4C0E9AF
:104BB000032300235DF8044B4361FFF7CFBF0000E0
:104BC00010B5194C236998420DD0D0E900328168A4
:104BD00013605A609A680A449A60002303604FF099
:104BE000FF33A36110BD2346026843F8102F5360C2
:104BF0000022026022699A4203D1BDE8104001F010
:104C000089BA936881680B44936001F077FA22694E
:104C1000E1699268441AA242E4D91144BDE8104007
:104C2000091AFFF753BF00BF684B00202DE9F0477A
:104C3000DFF8BC8008F110072C4ED8F8105001F0B6
:104C40005DFAD8F81C40AA68031B9A423ED8144467
:104C5000D5E900324FF00009C8F81C4013605A60D3
:104C6000C5F80090D8F81030B34201D101F052FAE3
:104C700089F31188D5E9033128469847302383F317
:104C800011886B69002BD8D001F038FA6A69A0EB63
:104C900004094A4582460DD2022001F087FA00221B
:104CA000D8F81030B34208D151462846BDE8F04745
:104CB000FFF728BF121A2244F2E712EB090938BFA6
:104CC0004A4629463846FFF7EBFEB5E7D8F81030DC
:104CD000B34208D01444211AC8F81C00A960BDE8EA
:104CE000F047FFF7F3BEBDE8F08700BF784B002028
:104CF000684B002000207047FEE70000704700006E
:104D00004FF0FF307047000002290CD0032904D077
:104D10000129074818BF00207047032A05D8054815
:104D200000EBC2007047044870470020704700BF86
:104D3000546A00082C230020086A000870B59AB055
:104D40000546084601A9144600F0C2F801A8FCF780
:104D5000F9FE431C5B00C5E90034002223700323E5
:104D60006370C6B201AB02341046D1B28E4204F178
:104D7000020401D81AB070BD13F8011B04F8021C1C
:104D800004F8010C0132F0E708B5302383F31188F1
:104D90000348FFF723FA002383F3118808BD00BFFF
:104DA000D84D002090F8443003F01F02012A07D1AB
:104DB00090F845200B2A03D10023C0E90E3315E0FB
:104DC00003F06003202B08D1B0F848302BB990F8DD
:104DD0004520212A03D81F2A04D8FFF7E1B9222A47
:104DE000EBD0FAE7034A82630722C263036401201F
:104DF000704700BF2423002007B5052917D8DFE836
:104E000001F0191603191920302383F31188104A71
:104E100001900121FFF784FA01980E4A0221FFF761
:104E20007FFA0D48FFF7A6F9002383F3118803B03A
:104E30005DF804FB302383F311880748FFF770F90E
:104E4000F2E7302383F311880348FFF787F9EBE794
:104E5000A8690008CC690008D84D002038B50C4D71
:104E60000C4C0D492A4604F10800FFF767FF05F1D5
:104E7000CA0204F110000949FFF760FF05F5CA7284
:104E800004F118000649BDE83840FFF757BF00BFDE
:104E9000A05200202C230020886900089269000895
:104EA0009D69000870B5044608460D46FCF74AFEA9
:104EB000C6B22046013403780BB9184670BD32469D
:104EC0002946FCF72BFE0028F3D10120F6E700006D
:104ED0002DE9F84F05460C46FCF734FE2B49C6B2C7
:104EE0002846FFF7DFFF08B10236F6B22849284608
:104EF000FFF7D8FF08B11036F6B2632E0DD8DFF8F1
:104F00008C80DFF88C90234FDFF890A0DFF890B012
:104F10002E7846B92670BDE8F88F29462046BDE8B0
:104F2000F84F01F091BC252E2BD10722414628468F
:104F3000FCF7F4FD58B9DBF800302360DBF80430EF
:104F400063609BF80830237207350934E0E70822D4
:104F500049462846FCF7E2FD98B90F4BA21C197888
:104F600009090232C95D02F8041C13F8011B01F0A3
:104F70000F015345C95D02F8031CF0D11834083500
:104F8000C6E704F8016B0135C2E700BF746A000888
:104F90009D690008866A0008107AFF1F1C7AFF1FAF
:104FA0007C6A0008BFF34F8F024AD368DB03FCD44E
:104FB000704700BF003C024008B5094B1B7873B92D
:104FC000FFF7F0FF074B1A69002ABFBF064A5A6075
:104FD00002F188325A601A6822F480621A6008BDB1
:104FE000FE540020003C02402301674508B50B4BEE
:104FF0001B7893B9FFF7D6FF094B1A6942F00042BC
:105000001A611A6842F480521A601A6822F48052B7
:105010001A601A6842F480621A6008BDFE540020CB
:10502000003C02400728F0B516D80C4C0C492378F8
:105030007BB90C4D0E4608234FF0006255F8047BF7
:1050400046F8042B013B13F0FF033A44F6D1012349
:10505000237051F82000F0BD0020FCE7205500200F
:1050600000550020986A0008014B53F82000704753
:10507000986A000808207047072810B5044601D92F
:10508000002010BDFFF7CEFF064B53F82430184424
:10509000C21A0BB90120F4E712680132F0D1043BC7
:1050A000F6E700BF986A0008072810B5044621D823
:1050B000FFF778FFFFF780FF0F4AF323D360C300A9
:1050C000DBB243F4007343F002031361136943F44A
:1050D00080331361FFF766FFFFF7A4FF074B53F818
:1050E000241000F047F9FFF781FF2046BDE810408B
:1050F000FFF7C2BF002010BD003C0240986A0008C4
:10510000F8B512F00103144642D185182E4A954293
:1051100057D82E4B1B6813F0010352D02C4DFFF7CC
:105120004BFFF323EB60FFF73DFF40F20127032C19
:1051300015D824F001046618254C401A40F20117D6
:10514000B142236900EB010524D123F0010323615F
:10515000FFF74CFF0120F8BD043C0430E7E783076C
:10516000E7D12B6923F440732B612B693B432B61FF
:1051700051F8046B0660BFF34F8FFFF713FF03680E
:105180009E42E9D02B6923F001032B61FFF72EFF2C
:105190000020E0E723F44073236123693B4323614C
:1051A0000B882B80BFF34F8FFFF7FCFE2D8831F863
:1051B000023BADB2AB42C3D0236923F001032361AC
:1051C000E4E71846C7E700BF0000080800380240BF
:1051D000003C0240084908B50B7828B11BB9FFF71D
:1051E000EBFE01230B7008BD002BFCD0BDE808408E
:1051F0000870FFF7FBBE00BFFE54002008B54FF457
:1052000000314FF0005000F0B7F8BDE808404FF40F
:1052100080314FF0805000F0AFB8000008461146D2
:1052200001F076BA012001F073BA0000084601F0DF
:105230008DBA000070B582B0FFF79AFB0E4E05469E
:1052400000F05CFF3268904237BF0C4A0B4951684E
:1052500014682EBFD1E900410131516004190346A1
:1052600041F10001284601913360FFF78BFB019962
:10527000204602B070BD00BF2455002028550020F4
:1052800070B582B0FFF774FB104E054600F036FF94
:105290003268904237BF0E4A0D49516814682EBFDC
:1052A000D1E9004101315160041941F10001034687
:1052B000284601913360FFF765FB01994FF47A723C
:1052C00000232046FAF794FF02B070BD2455002059
:1052D0002855002010B50244064BD2B2904200D1AE
:1052E00010BD441C00B253F8200041F8040BE0B29A
:1052F000F4E700BF502800400F4B30B51C6F24046A
:1053000007D41C6F44F400741C671C6F44F4004401
:105310001C670A4C236843F4807323600244084BE3
:10532000D2B2904200D130BD441C00B251F8045BAF
:1053300043F82050E0B2F4E700380240007000402B
:105340005028004007B5012201A90020FFF7C2FF45
:10535000019803B05DF804FB13B50446FFF7F2FFB4
:10536000A04205D0012201A900200194FFF7C4FF4B
:1053700002B010BD70470000704700007047000089
:10538000074B45F255521A6002225A6040F6FF72EE
:105390009A604CF6CC421A60024B01221A70704798
:1053A0000030004034550020034B1B781BB1034BE9
:1053B0004AF6AA221A607047345500200030004097
:1053C000034B1A681AB9034AD2F874281A60704756
:1053D0003055002000300240024B4FF08072C3F87D
:1053E000742870470030024008B5FFF7E9FF024B10
:1053F0001868C0F3407008BD3055002008B5FFF7AD
:10540000DFFF024B1868C0F3007008BD3055002064
:1054100070470000FEE700000A4B0B480B4A904221
:105420000BD30B4BDA1C121AC11E22F003028B4263
:1054300038BF00220021FCF78DBB53F8041B40F855
:10544000041BECE7A86C00083856002038560020F2
:105450003856002070B5D0E915439E6800224FF001
:10546000FF3504EB42135101D3F800090028BEBFF9
:10547000D3F8000940F08040C3F80009D3F8000BCE
:105480000028BEBFD3F8000B40F08040C3F8000BEB
:10549000013263189642C3F80859C3F8085BE0D29A
:1054A0004FF00113C4F81C3870BD0000890141F0B1
:1054B0002001016103699B06FCD41220FFF772BA38
:1054C00010B5054C2046FEF70BFF4FF0A043636577
:1054D000024BA36510BD00BF38550020DC6A0008F0
:1054E00070B50378012B054650D12A4B446D984284
:1054F0001BD1294B5A6B42F080025A635A6D42F01D
:1055000080025A655A6D5A6942F080025A615A699E
:1055100022F080025A610E2143205B69FEF72AFDCA
:105520001E4BE3601E4BC4F800380023C4F8003E55
:10553000C02323606E6D4FF40413A3633369002B03
:10554000FCDA012333610C20FFF72CFA3369DB0707
:10555000FCD41220FFF726FA3369002BFCDA002670
:10556000A6602846FFF776FF6B68C4F81068DB6812
:10557000C4F81468C4F81C684BB90A4BA3614FF017
:10558000FF336361A36843F00103A36070BD064B62
:10559000F4E700BF385500200038024040140040B6
:1055A00003002002003C30C0083C30C0F8B5446D18
:1055B000054600212046FFF779FFA96D00234FF033
:1055C00001128F68C4F834384FF00066C4F81C2804
:1055D0004FF0FF3004EB431201339F42C2F80069E1
:1055E000C2F8006BC2F80809C2F8080BF2D20B68C7
:1055F0006A6DEB65636210231361166916F010067D
:10560000FBD11220FFF7CEF9D4F8003823F4FE6363
:10561000C4F80038A36943F4402343F01003A361A6
:105620000923C4F81038C4F814380A4BEB604FF063
:10563000C043C4F8103B084BC4F8003BC4F81069E1
:10564000C4F80039EB6D03F1100243F48013EA65EE
:10565000A362F8BDB86A000840800010426D90F85F
:105660004E10D2F8003823F4FE6343EA0113C2F867
:10567000003870472DE9F84300EB8103456DDA6887
:10568000166806F00306731E022B05EB41130C4649
:1056900080460FFA81F94FEA41104FF00001C3F83C
:1056A000101B4FF0010104F1100398BFB60401FA7A
:1056B00003F391698EBF334E06F1805606F500461E
:1056C00000293AD0578A04F15801490137436F50F5
:1056D000D5F81C180B43C5F81C382B180021C3F84B
:1056E000101953690127611EA7409BB3138A928B3F
:1056F0009B08012A88BF5343D8F85C20981842EAD7
:10570000034301F1400205EB8202C8F85C00214628
:1057100053602846FFF7CAFE08EB8900C3681B8A5E
:1057200043EA8453483464011E432E51D5F81C3893
:105730001F43C5F81C78BDE8F88305EB4917D7F877
:10574000001B21F40041C7F8001BD5F81C1821EA02
:105750000303C0E704F13F0305EB83030A4A5A60E1
:1057600028462146FFF7A2FE05EB4910D0F8003984
:1057700023F40043C0F80039D5F81C3823EA0707A2
:10578000D7E700BF0080001000040002826D12689D
:10579000C265FFF75FBE00005831436D49015B5899
:1057A00013F4004004D013F4001F0CBF02200120AA
:1057B000704700004831436D49015B5813F40040C5
:1057C00004D013F4001F0CBF02200120704700001A
:1057D00000EB8101CB68196A0B6813604B6853605A
:1057E0007047000000EB810330B5DD68AA691368DB
:1057F000D36019B9402B84BF402313606B8A1468AF
:10580000426D1C44013CB4FBF3F46343033323F0C7
:10581000030302EB411043EAC44343F0C043C0F822
:10582000103B2B6803F00303012B09B20ED1D2F811
:10583000083802EB411013F4807FD0F8003B14BF0E
:1058400043F0805343F00053C0F8003B02EB411299
:10585000D2F8003B43F00443C2F8003B30BD0000E7
:105860002DE9F041244D6E6D06EB40130446D3F84C
:10587000087BC3F8087B38070AD5D6F8143819070F
:1058800006D505EB84032146DB6828465B6898470C
:10589000FA071FD5D6F81438DB071BD505EB8403B0
:1058A000D968CCB98B69488A5A68B2FBF0F600FB1C
:1058B00016228AB91868DA6890420DD2121AC3E922
:1058C0000024302383F311880B482146FFF78AFF19
:1058D00084F31188BDE8F081012303FA04F26B8997
:1058E00023EA02036B81CB68002BF3D021460248E8
:1058F000BDE8F041184700BF3855002000EB810398
:1059000070B5DD68436D6C692668E6604A0156BB78
:105910001A444FF40020C2F810092A6802F003026A
:10592000012A0AB20ED1D3F8080803EB421410F48E
:10593000807FD4F8000914BF40F0805040F0005040
:10594000C4F8000903EB4212D2F8000940F0044009
:10595000C2F80009D3F83408012202FA01F1014328
:10596000C3F8341870BD19B9402E84BF40202060A0
:1059700020682E8A8419013CB4FBF6F440EAC44046
:1059800040F000501A44C6E72DE9F8433B4D6E6DD8
:1059900006EB40130446D3F80889C3F8088918F0C9
:1059A000010F4FEA40171AD0D6F81038DB0716D58A
:1059B00005EB8003D9684B691868DA68904230D2E9
:1059C000121A4FF000091A60C3F80490302383F3D1
:1059D000118821462846FFF791FF89F3118818F0B6
:1059E000800F1CD0D6F834380126A640334216D09A
:1059F00005EB84036D6DD3F80CC0DCF81420013482
:105A0000E4B2D2F800E005EB04342F44516871454C
:105A100015D3D5F8343823EA0606C5F83468BDE84E
:105A2000F883012303FA04F22B8923EA02032B8172
:105A30008B68002BD3D0214628469847CFE7BCF887
:105A40001000AEEB0103834228BF0346D7F81809C4
:105A500080B2B3EB800FE2D89068A0F1040959F846
:105A6000048FC4F80080A0EB09089844B8F1040F33
:105A7000F5D818440B4490605360C7E738550020B0
:105A80002DE9F74FA24C656D6E69AB691E4016F4A7
:105A900080586E6107D02046FEF78AFC03B0BDE84F
:105AA000F04FFEF73DBA002E12DAD5F8003E9848C6
:105AB0009B071EBFD5F8003E23F00303C5F8003E48
:105AC000D5F8043823F00103C5F80438FEF79AFC32
:105AD000370505D58E48FFF7BDFC8D48FEF780FCE5
