:020000040800F2
:1000000000070020E90500088D2C0008912C00084D
:10001000E92C0008912C0008BD2C0008EB05000815
:10002000EB050008EB050008EB0500084D3F000854
:10003000EB050008EB050008EB050008EB050008E0
:10004000EB050008EB050008EB050008EB050008D0
:10005000EB050008EB050008E56D0008116E0008CF
:100060003D6E0008696E0008956E0008EB050008FB
:10007000EB050008EB050008EB050008EB050008A0
:10008000EB050008EB050008EB050008A52B0008B0
:10009000EB050008092C0008EB050008C16E0008FC
:1000A000EB050008EB050008EB050008EB05000870
:1000B000EB050008EB050008EB050008EB05000860
:1000C000EB050008EB050008EB050008EB05000850
:1000D000EB050008EB050008EB050008EB05000840
:1000E000296F0008EB050008EB050008EB05000888
:1000F000EB050008EB050008EB050008EB05000820
:10010000EB050008EB0500087D6A0008EB05000818
:10011000EB050008EB050008EB050008EB050008FF
:10012000EB050008EB050008EB050008EB050008EF
:10013000EB050008EB050008EB050008EB050008DF
:10014000EB050008EB050008EB050008EB050008CF
:10015000EB050008EB050008EB050008EB050008BF
:10016000EB050008EB050008EB050008EB050008AF
:10017000EB0500081D650008EB050008EB0500080D
:10018000EB050008EB05000809400008EB05000836
:10019000EB050008EB050008EB050008EB0500087F
:1001A000EB050008EB050008EB050008EB0500086F
:1001B000EB050008EB050008EB050008EB0500085F
:1001C000EB050008EB050008EB050008EB0500084F
:1001D000EB05000809650008EB050008EB050008C1
:1001E000EB050008EB050008EB050008EB0500082F
:1001F000EB050008EB050008EB050008EB0500081F
:10020000EB050008EB050008EB050008EB0500080E
:10021000EB050008EB050008EB050008EB050008FE
:10022000EB050008EB050008EB050008EB050008EE
:10023000EB050008EB050008EB050008EB050008DE
:10024000EB050008EB050008EB050008EB050008CE
:10025000EB050008EB050008EB050008EB050008BE
:10026000EB050008EB050008EB050008EB050008AE
:10027000EB050008EB050008EB050008EB0500089E
:10028000EB050008EB050008EB050008EB0500088E
:10029000EB050008EB050008EB050008EB0500087E
:1002A000711A000800000000D0400B1CD1409C4691
:1002B000203AD34018435242634693401843704754
:1002C0009140031C90409C46203A9340194352426F
:1002D0006346D3401943704753B94AB9002908BF50
:1002E00000281CBF4FF0FF314FF0FF3000F07AB90B
:1002F000ADF1080C6DE904CE00F006F8DDF804E07D
:10030000DDE9022304B070472DE9F0478C460D4625
:100310000446089E002B51D18A4217466DD9B2FA85
:1003200082FEBEF1000F0BD0CEF1200C01FA0EF5CB
:1003300020FA0CFC02FA0EF74CEA050C00FA0EF457
:100340004FEA174A250CBCFBFAF81FFA87F90AFB9B
:1003500018CC45EA0C4508FB09F3AB420AD9ED1964
:1003600008F1FF3280F02381AB4240F22081A8F1F6
:1003700002083D44ED1AA4B2B5FBFAF00AFB105591
:1003800044EA054400FB09F9A14509D9E41900F143
:10039000FF3380F00A81A14540F2078102383C44D6
:1003A000A4EB090440EA08400021002E61D024FAA1
:1003B0000EF4002334607360BDE8F0878B4207D9E8
:1003C000002E54D0002186E821000846BDE8F087C1
:1003D000B3FA83F1002940F08E80AB4202D382420F
:1003E00000F2FA80841A65EB03050120AC46002E6A
:1003F0003FD086E81010BDE8F08712B90127B7FB9F
:10040000F2F7B7FA87FEBEF1000F34D1EB1B3A0CBE
:100410001FFA87FC0121B3FBF2F8250C02FB18330D
:1004200045EA03450CFB08F3AB4207D9ED1908F187
:10043000FF3002D2AB4200F2D1808046ED1AA3B267
:10044000B5FBF2F002FB105543EA05440CFB00FC3F
:10045000A44507D9E41900F1FF3302D2A44500F204
:10046000B8801846A4EB0C0440EA08409DE73146EA
:100470003046BDE8F087CEF1200405FA0EF307FA06
:100480000EF720FA04F83A0C25FA04F448EA0308B7
:10049000B4FBF2F14FEA184502FB11441FFA87FC46
:1004A00045EA044501FB0CF3AB4200FA0EF409D90E
:1004B000ED1901F1FF3080F08A80AB4240F2878075
:1004C00002393D44EB1A1FFA88F5B3FBF2F002FB48
:1004D000103345EA034500FB0CF3AB4207D9ED1995
:1004E00000F1FF386FD2AB426DD902383D44EB1AB0
:1004F00040EA01418FE7C1F1200722FA07F88B405B
:1005000005FA01F448EA030320FA07FE4FEA134C08
:10051000FD404EEA040EB5FBFCF94FEA1E440CFB0D
:1005200019551FFA83F844EA054509FB08F4AC4263
:1005300002FA01F200FA01FA08D9ED1809F1FF30C8
:1005400043D2AC4241D9A9F102091D442D1B1FFA27
:100550008EFEB5FBFCF00CFB10554EEA054400FB8B
:1005600008F8A04507D9E41800F1FF3529D2A045C5
:1005700027D902381C4440EA0940A4EB0804A0FB38
:1005800002894C45C6464D4615D312D056B1BAEB3A
:100590000E0364EB050404FA07F7CB401F43CC407D
:1005A000376074600021BDE8F0871846F8E6904691
:1005B000E0E6C245EAD2B8EB020E69EB030501386A
:1005C000E4E72846D7E7404691E78146BEE7014683
:1005D00078E702383C4445E7084608E7A8F10208F6
:1005E0003D442BE7704700BF02E000F000F8FEE753
:1005F00072B6394880F30888384880F3098838484B
:100600004EF60851CEF20001086040F20000CCF234
:1006100000004EF63471CEF200010860BFF34F8F38
:10062000BFF36F8F40F20000C0F2F0004EF6885129
:10063000CEF200010860BFF34F8FBFF36F8F4FF012
:100640000000E1EE100A4EF63C71CEF200010860A7
:10065000062080F31488BFF36F8F05F001FA06F0CF
:100660008BF94FF055301F491B4A91423CBF41F86E
:10067000040BFAE71C49194A91423CBF41F8040BAC
:10068000FAE71A491A4A1B4B9A423EBF51F8040B2B
:1006900042F8040BF8E700201749184A91423CBF82
:1006A00041F8040BFAE705F01FFA06F0D9F9144CEB
:1006B000144DAC4203DA54F8041B8847F9E700F004
:1006C0003FF8114C114DAC4203DA54F8041B884733
:1006D000F9E705F007BA000000070020002300201A
:1006E000000000080001002000070020807B0008B7
:1006F00000230020B4230020B82300202C6E00200B
:10070000A0020008A4020008A4020008A402000835
:100710002DE9F04F2DED108AC1F80CD0D0F80CD097
:10072000BDEC108ABDE8F08F002383F311882846C2
:10073000A047002004F05AFD04F046FC00DFFEE76D
:10074000F8B5314C7B23002523700523A570637019
:100750001A23E57025716571A571E57125726572C1
:10076000A372E57201F0E0FA20B10E2325726572E2
:10077000A372E57205F0FAF8064605F06BF9044637
:1007800078BB224B9E422CD001339E422CD026F0C7
:10079000FF021F4B9A422AD1274642F21075F0B24F
:1007A00000F0A0FD00F0C8FF00F0A2FD18B334B1C6
:1007B000184B9E4203D0002505F044F92F46002037
:1007C00005F0DEF80FB100F06FF801F053FB00F018
:1007D000D7FF01F0E3F9284600F02AF900F064F8A9
:1007E000F9E727460025DDE705460127DAE7074652
:1007F00041F28835D6E714B1064B9E42DBD100208A
:10080000002505F0BDF8E0E7B8230020010007B09F
:10081000000008B0263A09B008B501F03DF9A0F192
:1008200020035842584108BD054B07B51B880221DB
:1008300001A8ADF8043001F09BF903B05DF804FBAA
:100840002072000810B5202383F311881248C36872
:100850000BB104F051FD0023104A4FF47A710E4899
:1008600004F00EFD002383F311880D4C236813B1AF
:100870002368013B2360636813B16368013B6360D5
:10088000084B1B7833B9636823B9022001F062FA80
:100890003223636010BD00BFC42300204508000858
:1008A000E0240020D8230020574B58492DE9F0417F
:1008B00053F8042F013201D1BDE8F0818B42F7D10A
:1008C000534C544B22689A4240F29C80524B9B6896
:1008D00003F1006303F500339A4280F0938005F042
:1008E00085F805F097F8002001F082F902204B4BC3
:1008F000187001F025FA4A4BD3F8E8200022C3F81B
:10090000E820D3F81011C3F81021D3F81011D3F850
:10091000EC10C3F8EC20D3F81411C3F81421D3F869
:100920001411D3F8F010C3F8F020D3F81811C3F85D
:100930001821D3F81811D3F8801041F00061C3F8E2
:100940008010D3F8801021F00061C3F88010D3F834
:100950008010D3F8801041F00071C3F88010D3F8F4
:10096000801021F00071C3F88010D3F8803072B687
:100970002C4B2D490B601D682468BFF34F8FBFF3CC
:100980006F8F2A4BC3F88420BFF34F8F5A6922F42C
:1009900080325A61BFF34F8FD3F8802043F6E07E58
:1009A000C2F3C906C2F34E32B707520102EA0E087B
:1009B00038463146013948EA000C00F14040B1F1B7
:1009C000FF3FC3F874C2F5D1203A12F1200FEDD1E8
:1009D000BFF34F8FBFF36F8FBFF34F8FBFF36F8F97
:1009E0005A6922F400325A610022C3F85022BFF340
:1009F0004F8FBFF36F8F202383F31188AD4685F3AC
:100A000008882047BDE8F081FCFF01081C000208AF
:100A100004000208FFFF0108B8230020D8230020AB
:100A2000004402580000020808ED00E000ED00E07C
:100A30002DE9F04F99B0B34C2022FF21019010A86E
:100A4000A66801F0B9F9B04AA3461378A3B9012109
:100A5000AE481170C360202383F31188C3680BB1C3
:100A600004F04AFC0023AA4A4FF47A71A74804F024
:100A700007FC002383F31188019B13B1A54B019A56
:100A80001A600023A44AA349019F99461C461D46AB
:100A9000984613704B600292012001F051F9002F2B
:100AA00000F012829B4B1B68002B40F00D8219B0A6
:100AB000BDE8F08F0220FFF7AFFE002840F0FB8179
:100AC000019BB9F1000F08BF1F46944B1B88022100
:100AD0000BA8ADF82C3001F04BF8DDE74FF47A703D
:100AE00000F0DAFF031E0393EADB0220FFF794FE17
:100AF00082460028E4D0039B581E042800F2DD81C2
:100B0000DFE800F0030E1114170018A805230421D4
:100B100040F8343D01F02CF854464FF0000856E000
:100B200004217848F6E704217D48F3E704217D4855
:100B3000F0E71C242046043401F05CF804210B90FB
:100B40000BA801F015F82C2CF4D1E5E7002DB7D057
:100B5000002CB5D00220FFF75FFE0546002800F00C
:100B6000AF8101206C4C01F043F84FF000090220E6
:100B7000207001F0E5F85FFA89FA504601F048F874
:100B8000074658B1504609F1010901F051F8002813
:100B9000F1D12C46A9460027634B97E701233E4637
:100BA0000220237001F0C2F8DBF808309E4206D222
:100BB000304601F01FF80130EBD10436F4E700268F
:100BC000029BA9462C461E703746524B5E6001F0D0
:100BD00047F915B1002C18BF0027FFF725FE5BE78A
:100BE000002D3FF46DAF002C3FF46AAF0220029B52
:100BF000187001F0A5F8322000F04EFFB0F1000AA5
:100C0000C0F25E811AF0030540F05A8106EB0A0338
:100C1000DBF80820934200F25381BAF5807F00F29E
:100C20004F8155450DDA4FF47A7000F035FF04908E
:100C3000049B002BC0F24481049B3C4AAB54013519
:100C4000EFE7C820FFF7E8FD0546002800F03881EF
:100C50001F2E11D8C6F1200410AB26F00300334933
:100C60005445184428BF5446224601F07DF82246D8
:100C7000FF212E4801F0A0F84FEAAA0A2B4930467E
:100C80005FFA8AF201F0A0F80446002800F01A8109
:100C900006EB8A0605469AE70220FFF7BDFD00280D
:100CA0003FF40EAF00F0DEFF00283FF409AF4FF035
:100CB000000A5346DBF8082092451CD2BAF11F0FF8
:100CC00012D8109A01320FD02AF0030218A90A4450
:100CD00052F8202C0B92184604220BA90AF1040AA0
:100CE00002F062F90346E5E75046039300F082FF05
:100CF000039B0B90EFE718A8042140F84C3D00F04F
:100D000037FF64E7B8230020DC240020C423002040
:100D100045080008E0240020D823002022720008A3
:100D2000BC230020C023002024720008DC23002004
:100D300018A80023642140F8343D00F0E5FE0028A7
:100D40007FF4BEAE0220FFF767FD00283FF4B8AE87
:100D50000B9800F07FFF18AB43F8480D04211846AC
:100D6000CDE718A80023642140F8343D00F0CCFE04
:100D700000287FF4A5AE0220FFF74EFD00283FF4C7
:100D80009FAE0B9800F068FF18AB43F8440DE5E701
:100D90000220FFF741FD00283FF492AE00F072FF01
:100DA00018AB43F8400DD9E70220FFF735FD0028C6
:100DB0003FF486AE0BA9142000F06AFF824618A803
:100DC000042140F83CAD00F0D3FE51460BA896E755
:100DD000322000F061FEB0F1000AFFF671AE1AF0A9
:100DE000030F7FF46DAE0AEB0803DBF80820934293
:100DF0003FF666AE0220FFF70FFD00283FF460AE1D
:100E00002AF0030AC244D0453FF4E1AE404608F15F
:100E1000040800F0EFFE04210A900AA800F0A8FEE2
:100E2000F1E74FF47A70FFF7F7FC00283FF448AE83
:100E300000F018FF00283FF4AFAE109B01330CD038
:100E4000082210A9002000F0BFFF00283FF4A4AE44
:100E50002022FF2110A800F0AFFFFFF7E5FC394882
:100E600004F0CAF923E6002D3FF42AAE002C3FF42B
:100E700027AE18A80023642140F8343D00F044FE5A
:100E8000824600287FF41CAE0220FFF7C5FC002834
:100E90003FF416AE0390FFF7C7FC41F28830574687
:100EA00004F0AAF90B9801F01FF800F0D9FF039B9A
:100EB0001C461D46F0E5054689E64FF00008FFE5B3
:100EC0002546FDE52C4667E6002000F0E5FD049090
:100ED000049B002B01DA00F097FC049B002BFFF62B
:100EE000DEAD012000F022FF049B213B122B3FF6D8
:100EF000D3AD01A252F823F0B50A0008DD0A0008BC
:100F00004D0B0008990A0008990A0008990A000880
:100F1000E10B0008D10D0008990C0008310D000804
:100F2000630D0008910D0008990A0008A90D00083A
:100F3000990A0008230E0008CF0B0008990A000840
:100F4000670E0008A0860100094949F269000B6894
:100F50009AB21B0C00FB0233064A0B6044F250614C
:100F6000136898B21B0C01FB0030106080B2704710
:100F7000082300200423002010B50021102204467D
:100F800000F01AFF034B03CB206061601868A0607B
:100F900010BD00BF00E8F11FF0B51F4CBBB001F061
:100FA000BFFEA368C31AF92B2FD906AD2346A06054
:100FB00028220021284602F081FD04F10E0000F0F5
:100FC000F3FE0023C6B2591D5F1CDBB2C900B34259
:100FD00007DA0E3308222846234402F06FFD3B4611
:100FE000F1E70123207BC1F3CF010495039308238C
:100FF000059101460293094B094801933023009360
:1010000003A3D3E9002302F02BFB3BB0F0BD00BFEC
:1010100078F6339F93CACD8DA0490020AD490020BA
:10102000FC34002038B50B4B0446036041F23C030E
:10103000C21812793AB9C5582DB1284601F074FE8C
:10104000284605F0E3FF04F58150083001F06CFEFE
:10105000204638BD1874000870B50D4614461E466B
:1010600002F0A4FA50B9022E0ED1012C0CD112A319
:10107000D3E90023C5E90023012070BD052C14D05D
:1010800003D8012C09D0002070BD282C09D0302CA9
:10109000F9D10BA3D3E90023ECE70BA3D3E9002399
:1010A000E8E70BA3D3E90023E4E70BA3D3E900238C
:1010B000E0E700BFAFF30080401DA12026812A0B8E
:1010C00078F6339F93CACD8D9E6AC421818A46EEFD
:1010D00026417272DF25D7B7F017304A39059E5680
:1010E00038B50D460446034620222846002102F06A
:1010F000E5FC227923462846032A4FF0200128BF29
:10110000032203F8042F022202F0D8FC627923465E
:101110002846072A4FF0220128BF072203F8052F8F
:10112000032202F0CBFCA27923462846072A4FF07F
:10113000250128BF072203F8062F032202F0BEFC78
:10114000284604F108031022282102F0B7FC3820B9
:1011500038BD00002DE9F04FFFB040F27912804613
:101160000F461FAE0CAD00210DF15209304600F0C4
:1011700023FE48220021284600F01EFE01F0D0FD8B
:101180004FF47A72554BB0FBF2F0186093E8070009
:1011900001232B74002385E807000DF152006B74C6
:1011A000FFF7EAFE05234E4985F820307B2385F8BA
:1011B000213006AB184605F0DBFF152228643146C6
:1011C000284685F83C20FFF78BFF10AB044601460C
:1011D0000822304602F072FC08220DF1410330462D
:1011E000A11804F1880A02F069FC0DF142030822FB
:1011F00004F11001304604F5847B02F05FFC11AB72
:10120000202204F11801304602F058FC12AB4022B3
:1012100004F13801304602F051FC14AB082204F10D
:101220007801304602F04AFC0DF15103082204F126
:101230008001304602F042FC51460AF1080A4B4652
:101240000822304609F1010902F038FCD345F3D1F8
:1012500004F588744FF0000919AB0822594630464E
:1012600002F02CFC95F834304B4510D84FF00009B3
:1012700095F83C304B4515D92B6C21460822304659
:101280004B44083402F01AFC09F10109F0E7AB6B9A
:101290002146082230464B44083402F00FFC09F185
:1012A0000109DFE7E31DF97E04961937C3F3CF0385
:1012B00040460593002303937B7801970293012313
:1012C000009304A3D3E9002302F0CAF97FB0BDE87C
:1012D000F08F00BF9E6AC421818A46EEE824002078
:1012E00058730008014B1870704700BF002300209E
:1012F000334BF0B51C7B85B034B10E22314B1A81D3
:101300000024204605B0F0BD2F4A02AB106851689A
:1013100003C308232D492E480DEB030205F0BCFE44
:10132000054630B90A22274B2A481A8101F0A4FC4D
:10133000E6E70169B1F5F01F06D90B22214B2648DB
:101340001A8101F099FCDCE7438B40F27B52934217
:1013500007D00C201B4908811946204801F08CFC5D
:10136000CFE71F4A024402F11003994204D210222F
:10137000144B1C481A81E4E7103920468E1A144990
:1013800001F012FE05F1180107463246204601F031
:101390000BFEAB689F4202D1EB6898420AD00D2247
:1013A000084B1A813B4600900F48EA68A96801F093
:1013B00063FCA5E70D48012401F05EFCA1E700BF36
:1013C000A0490020E824002028720008DCFF1D004E
:1013D00000000208307200083C7200084E720008DB
:1013E0000800FEF76C72000889720008B2720008EB
:1013F0002DE9F04FADB080460C4606AF02F0D6F8AE
:10140000054600286AD1237E022B18D1E38A012BDE
:1014100015D101F085FC8146FFF796FD4FF4C873A6
:1014200009F51679BA4EB0FBF3F202FB1300E37E26
:1014300019FA80F030608BB90022B64B1A709C37D5
:10144000BD46BDE8F08F3B1D08224FEAC90120468A
:101450001D44002300954D4602F096F9A38A5FFAD9
:1014600085F9013BAB420BD905F10109B9F1110F27
:10147000E9D1A94B40F23911A84AA94805F0C8FDA5
:1014800007F11400FFF778FD2A4607F11401381D13
:1014900005F0F2FD03460028CED1B9F1100F07D0B8
:1014A0009C4B83F800903368A3F516733360C6E74E
:1014B00007F19802014602F8950D20460092072296
:1014C00002F062F9F9787F2904DD964B4FF4A87198
:1014D000924AD2E7404602F04DF8B0E7E38A052B86
:1014E00000F0038106D8012BA9D121464046FFF721
:1014F00031FEA4E7282B3BD0302BA0D1637EE946F8
:10150000894D01336A7BDBB2934240F0EC80E27E8E
:101510002B7B9A4240F0E78007F1980300261022C7
:10152000204623F8846D31460093012302F02CF904
:10153000B4F81480A8F102081FFA88F808F1030330
:1015400023F003030A3323F00703ADEB030D0DF182
:10155000180A3346B11C01369BB2C90098456CDDB0
:101560005344082220460093002302F00DF9F0E7CF
:10157000A38A013B9BB2C92B3FF661AF6A4E357B14
:101580004DBB06F10C0308222946204600932B464A
:1015900002F0FAF8A38A05F10109EDB2013B4FEA26
:1015A000C9019D4209DA0E35002308222046354440
:1015B00000954D4602F0E8F8ECE700230022C6E96A
:1015C00000230023B36086F8D730C6F8D830337BC9
:1015D0000BB9E37E3373002507F114063B1D082287
:1015E000294630467D60BD60FD6002F067FA3B7AB7
:1015F00005F10109AB424FEAC90107D9FB6808228E
:1016000030462B444D4602F059FAF0E7C1F3CF01C2
:101610000023E07E19340591049601460393404669
:101620006378019402932823009337A3D3E900231E
:1016300002F016F8FFF7B0FC01E795F8D70000F0CC
:10164000E7FAD5F8D83006461BB995F8D70000F070
:10165000EFFAD5F8D83043449E4204D295F8D7002B
:10166000013000F0E5FA4FEA980B0024A0B20134F3
:10167000584508DA80002B6801220AEB0001184463
:1016800000F0A2FBF2E7D5E90023D5F8D84012EB31
:10169000080295F8D700444443F10003C5F8D84048
:1016A000C5E9002300F0B4FA844209D395F8D73095
:1016B000013385F8D730D5F8D8309E1BC5F8D860EF
:1016C000B8F1FF0F08DC00232B7300F0CBFAFFF713
:1016D0000FFE08B1FFF7E8F82B68144A9B0A0133A4
:1016E00013810023AB60CD46A9E6BFF34F8F1049AD
:1016F000104BCA6802F4E0621343CB60BFF34F8F14
:1017000000BFFDE7AFF3008026417272DF25D7B737
:10171000F8340020F5340020C4720008707300080B
:101720001D7300083F730008A0490020E824002032
:1017300000ED00E00400FA0508B54FF000530C4A34
:10174000196891420BD1597D0A4A0B481170C92280
:101750001B7D0E30094900F8023C00F005FBE02239
:1017600000214FF00050BDE8084000F025BB00BF4D
:101770009AAD44C500230020A04900201600002097
:1017800037B50223174D0122174918486B7100F035
:10179000D1FE002316494FF4805216480193164B90
:1017A0000093164B01F0B0FE154B197811B111489A
:1017B00001F0E0FE01F0B4FA0446FFF7C5FB4FF478
:1017C000C87304F51674B0FBF3F202FB13000D4B63
:1017D00014FA80F0186004F03DF908B10F232B8152
:1017E00003B030BDE824002040420F002035002027
:1017F000F4240020FC34002059100008F1130008E4
:1018000000230020F83400202DE9F04F8C4C93B0D9
:101810008C4E0027DFF84C82204601F06DFF024617
:1018200068B300250146DFF840920E958DF84450CC
:101830000F951095037B8DF844300FAB51F8040FD2
:10184000496803C3136843F000430E9301F06AFA3A
:1018500082190095404641EB07030EA900F07EFB7C
:10186000A84205DD204601F04BFF89F80050D3E780
:1018700099F80030072B46DC013389F8003000234B
:101880000BAD4FF000084FF00009DFF8D8A1DFF8EA
:10189000DCB10A938DF834300B936B60002612AAEA
:1018A000012707A902F82B6D334650468DF81C70AE
:1018B000CDE9008901F018F99DF81C303BB3DBF845
:1018C0001430314610220EA883F48073CBF8143004
:1018D00000F072FA0DF11E0308AA0AA9504600F0A2
:1018E00019FD0FAB95E8030083E803009DF8343041
:1018F0000EA920468DF844300A9B0E93DDE908239B
:1019000002F042F9CAE7204601F0FAFEB7E72046A6
:1019100001F04CFE0546002842D14B4E01F000FA82
:10192000336898423CD301F0FBF98046FFF70CFB8B
:101930004FF4C87308F516788DF82850B0FBF3F211
:1019400002FB130018FA80F03060404E96F80080D9
:10195000B8F1000F01D18DF82870C8F110050EA85C
:10196000FFF70AFB0EABEDB20DF1290003EB080106
:10197000062D28BF06252A46013500F0F5F90AABE9
:1019800004952046039318230293314B01930123BE
:10199000009327A3D3E9002301F00AFE002333704C
:1019A00001F0BEF92B4A2C4D1368C31AB3F57A7FA8
:1019B00030D3106001F0B6F902460B46204601F024
:1019C000A5FE204601F0F2FD20B32B7B0EAF234E87
:1019D000002B14BF03230223737101F0A1F94FF40C
:1019E0007A733946B0FBF3F030603046FFF778FB8E
:1019F0001823073003970293194BC0F3CF000193CC
:101A000040F255130490204600930BA3D3E9002322
:101A100001F0CEFD2B7B0BB1FFF7BEFA2B7B002B29
:101A20007FF4F6AE13B0BDE8F08F00BFAFF30080D7
:101A3000401DA12026812A0BF1C6A7C1D068080F3E
:101A4000FC34002040420F00F8340020F534002020
:101A5000F4340020804A0020A0490020E82400201F
:101A6000844A002020350020854A002000080258C2
:101A700010B5064C0021204600F08CFC2046044A9C
:101A80000449BDE8104005F0BBBA00BF2035002076
:101A9000DC4A0020251000082DE9F3474FF47A7541
:101AA000002402AE154F4543DFF8588006F8014D7B
:101AB00097F900305FFA84F95A1C01D0A34212D181
:101AC00058F82400012231460368D3F820A02B46A1
:101AD000D047012807D10A4B9DF8070083F80090F2
:101AE00002B0BDE8F0870134022CE1D14FF4FA7066
:101AF00003F082FB4FF0FF30F2E700BF0C23002021
:101B0000CC4A0020B47300082DE9F0474FF47A75F1
:101B100006460024134F4D43DFF8508097F90030FC
:101B20005FFA84F95A1C01D0A34210D158F824005E
:101B3000042231460368D3F820A02B46D04704285E
:101B400005D1094B002083F80090BDE8F0870134EF
:101B5000022CE3D14FF4FA7003F04EFB4FF0FF304C
:101B6000BDE8F0870C230020CC4A0020B4730008A5
:101B7000074B30B41A78074B53F822400A46014607
:101B800023682046DD69044BAC4630BC604700BF8B
:101B9000CC4A0020B4730008A0860100F8B5104CB0
:101BA0000025104E03F070FD0F4F20703068237831
:101BB00083420CD800250D4E2078013803F060FDDB
:101BC00023780544013BB5422370F5D9F8BD03F0F5
:101BD00057FD336805440133BD423360E6D9E9E778
:101BE000CD4A0020884A0020FFFF0100FFFF0300CC
:101BF00003F018BE00F1006000F500300068704787
:101C000000F10060920000F5003003F099BD000083
:101C1000054B1A68054B1B789B1A834202D9104466
:101C200003F02EBD00207047884A0020CD4A0020D6
:101C300038B5074D04462868204403F027FD28B92D
:101C400028682044BDE8384003F032BD38BD00BFED
:101C5000884A002000207047014BC058704700BFE1
:101C600000E8F11F064991F8243033B1002308221F
:101C7000086A81F82430FFF7C3BF0120704700BF16
:101C80008C4A0020014B1868704700BF0010005CB0
:101C9000234BF0B5234C1B682788C3F30B066568FC
:101CA0001B0C94F90820BE4228D0A789BE4206D159
:101CB00001220C2505FB0244656894F9082041F2D5
:101CC0000104A3421CD041F20304A3421AD042F201
:101CD0000104A34218D042F20304A34208BF5622D3
:101CE000441E013D0B460C44A34217D215F9016F67
:101CF000581C5EB1034600F8016CF5E70022D8E7F6
:101D00005A22EDE75922EBE75822E9E72C258442D5
:101D10001D7001D9981C5A70401AF0BD1846FBE797
:101D20000010005C1023002000207047022803D11F
:101D30004FF08072014B9A61704700BF0008025853
:101D4000022803D14FF48072014B9A61704700BFA3
:101D500000080258022804D1024A536983F48073B0
:101D60005361704700080258002310B5934203D016
:101D7000CC5CC4540133F9E710BD000030B5441EFB
:101D800014F9010F0B4658B193F900500131854207
:101D900006D11AB993F90020801A30BD013AEFE755
:101DA000002AF7D1104630BD02460346981A13F9AF
:101DB000011B0029FAD1704702440346934202D026
:101DC00003F8011BFAE770472DE9F047234C05465D
:101DD0008846174694F8243083BB2E46DFF87C9063
:101DE000C7B394F824302BB92022FF21484626623D
:101DF000FFF7E2FF94F824004146C0F1080504EB28
:101E00008000BD4228BF3D465FFA85FAAD00A7EBD2
:101E10000A072A462E44FFF7A7FF94F82430A84467
:101E2000FFB29A445FFA8AFABAF1080F84F824A044
:101E3000D6D1FFF717FF0028D2D108E0266A06EBBB
:101E40008306B042CAD0FFF70DFF0028C5D100209D
:101E5000BDE8F0870120BDE8F08700BF8C4A002074
:101E6000024B1A78024B1A70704700BFCC4A002010
:101E70000C23002038B5164C164D204602F028FCE5
:101E80002946204602F050FC2D681348D5F89020D2
:101E9000D2F8043843F00203C2F8043803F0ACF976
:101EA0000E49284602F052FDD5F890200C48D2F891
:101EB00004380C49A04223F00203C2F804384FF45E
:101EC000E1330B6003D0BDE8384002F05FBB38BDA2
:101ED00088510020B478000840420F00DC780008E8
:101EE000604B0020B44A002038B50B4B05461A78E9
:101EF0000A4B53F822400A4B9C420CD0094B00215C
:101F000018221846FFF758FF056001462046BDE835
:101F1000384002F03BBB38BDCC4A0020B473000807
:101F200088510020B44A0020202383F3118862B630
:101F300070470000002383F3118862B670470000E9
:101F400001207047704700007047000041F2514384
:101F5000C05C704741F24A43C05C7047F8B5164612
:101F600041F254421F46BDF8185083580133835044
:101F70000B6813F0005406D10B7B082B03DC41F2F5
:101F80004A43C35C83B941F25842835801338350BA
:101F90004FF0FF30F8BD41F258428358013383506F
:101FA0002046FFF7C7FFF8BDFFF7BEFF436AD3F82F
:101FB000C4209202EFD40A68D3F8C440002AC3694F
:101FC000C4F30444B4BF42F08042920403EB041310
:101FD0001A600A68520042BF1A6842F000521A6042
:101FE000220691F80CE042EA0E425A604A689A6072
:101FF0008A68DA600123426AA340C2F8D03000EB5D
:10200000441301F10C0203F58253C3E9026700EBAC
:10201000441303F58253103351F8046B914243F893
:10202000046BF9D10A781A7004F183025201811805
:102030000B798450012065F30003C5F3400565F377
:10204000410303F0FB0343F010036FF3C3030B7171
:10205000A7E700005020704708B5FFF765FF41F281
:10206000744341F27042C3588258134441F26C42A7
:102070008258134441F258428258134441F2644258
:10208000825800F5A350134400681844FFF752FF2C
:1020900008BD000008B5FFF747FF41F23C03C058F8
:1020A00000F04CFEBDE80840FFF744BF2DE9F843BF
:1020B00041F24A430446C55C002D40F0F880037AA3
:1020C000032B40F08A802B4628462E46DFB29742EB
:1020D0000EDA01EBC70E51F83770002F03DBDEF884
:1020E0000470002F02DB01360133EFE70130FBE71C
:1020F000FFF71AFF636AF0B9D3F8800040F00200DE
:10210000C3F880005020636A002E69D1D3F8802084
:1021100042F00102C3F88020664B674A1B6803F156
:10212000805303F52C539B009342236240F2A88016
:10213000624800F0EDFD4F283DD8DFF878C14FEA46
:10214000004EDFF87C91DCF800704EEA870EC3F891
:1021500084E007F1805307444FF0000E03F52C5341
:10216000C0F15000CCF80070F4469B00676AE36051
:10217000D7F8803043F03003C7F88030D4F80C80B3
:102180005FFA8EF39A42BEDD01EBC30751F833309C
:10219000002B0DDB7F68002F0ADA07F07F0709EAC2
:1021A000034347F008473B4348F82C300CF1010C3F
:1021B0000EF1010EE4E79A6922F001029A6100F043
:1021C000AFFD0646636A9B69D90704D500F0A8FDF8
:1021D000801BFA28F6D9FFF7ADFE2846BDE8F88344
:1021E000B6EB500F3BD2DFF8CCE03704DEF800004E
:1021F00047EA800700EB4606C3F8887000F1805379
:10220000606A03F52C53CEF8006000269B00374629
:102210002361D0F8803043F00C03C0F88030D4F84C
:1022200010E0F3B29A427FF777AF51F8330001EB39
:10223000C30C0028DCF8043001DB002B0DDB20F0A0
:10224000604023F0604340F0005043F000434EF8FC
:1022500037000EEBC700013743600136E1E79A69AA
:1022600022F001029A6100F05BFD0646636A9B69F9
:10227000DA07B0D500F054FD801BFA28F6D9AAE79A
:10228000626A936923F00103936100F049FD0646F9
:10229000636A9B69DB0705D500F042FD801BFA28C5
:1022A000F6D998E7012541F24A43E55493E7002522
:1022B00093E700BFD84A0020FCB50040D87300085F
:1022C0000000FF0738B5044600680D4600F060FDC9
:1022D0001F2809D920222946206800F0D1FDA0F14D
:1022E00020035842584138BD002038BD002202600A
:1022F00002734260826070470022002310B5C0E97B
:102300000023002304460C3020F8043CFFF7EEFFC6
:10231000204610BD2DE9F04188B0054641F23C064B
:102320000C4690461F46FFF7FFFD6846FFF7E4FFA7
:10233000A85900F015FD1F2805D80020FFF7FAFD69
:1023400008B0BDE8F08120226946A85900F020FEBF
:102350002028F2D141F24A43EB5C002BEDD003AAD6
:10236000234605AD1446083303CCAC4243F8080CB1
:1023700043F8041C2246F5D1206818600120227918
:102380001A71DDE90023C8E90023BDF808303B805D
:10239000D4E700002DE9F047234B064600F58157AE
:1023A000044646F8283B89463546083728462035F6
:1023B000FFF7A2FFBD42F9D141F2280341F23002FA
:1023C00041F23C0104F5A25AE6504FF480536018E4
:1023D0000AF1100A6B60002300260027A35041F287
:1023E00034029846A35001222A74655004F58255A0
:1023F000027110352846203545E90A67FFF776FF58
:1024000045F8108C5545F5D141F2504304F803903E
:10241000B9F1000F02D0054800F07AFC044B2046C9
:102420006362BDE8F08700BF18740008FC73000801
:1024300000A00040F0B579B12648274BB0FBF1F081
:10244000994294BF102309235C1CB0FBF4F704FBF2
:10245000170434B1022B01DC0020F0BD013BDBB2DC
:10246000F2E77E1EB6F5806FF6D2C3EBC30E4FF4D3
:102470007A7C0EF10300C010C5B201305C1B0CFB6E
:1024800000FCE4B220449CFBF0F080B2B0F5617F28
:1024900008D90EF1FF354FF0080E95FBFEF5EDB2B1
:1024A0005B1BDCB22B1903FB07770A4BB3FBF7F777
:1024B000B942D1D1691EC9B20F29CDD8631EDBB292
:1024C000072BC9D800201680D1709070012013719D
:1024D000F0BD00BF0090D0033F420F0038B5124C52
:1024E000416A2268930043F4D013C1F8A03002F18E
:1024F000805302F16801456A03F52C53E8328900E4
:102500009B00226041F00051084A4361C5F8C010A9
:1025100003F5D07103F56873C1619342036202D978
:10252000034800F0F5FB38BDD84A0020FCB5004058
:10253000D873000841F250432DE9F041C35C88B0E4
:1025400004460F46012B154650DC844A52F82310EE
:1025500009B942F82300824967600B782572C3B934
:10256000FFF7E2FC7F4BD3F8EC2042F48072C3F813
:10257000EC20D3F8942042F48072C3F89420D3F86E
:10258000942022F48072C3F8942001230B70FFF78B
:10259000D1FC41F24943E35C9BB9FFF7C5FC41F232
:1025A0005043E35C3BB90221132001F037FE0221C6
:1025B000152001F033FE012241F24943E254FFF7B6
:1025C000B9FCFFF7B1FC626A936923F010039361D1
:1025D00000F0A6FB0646636A9A69100708D500F06A
:1025E0009FFB801BFA28F6D9FFF7A4FC0027B0E078
:1025F0009A6942F001029A6100F092FB0646636A12
:102600009A69D10705D400F08BFB801BFA28F6D914
:10261000EAE79A69002642F00202B0469A61636ACC
:102620005E65FFF787FC41F23C03E05800F086FB53
:10263000202200216846FFF7BFFB02A8FFF756FEE5
:1026400006F582530DF1200C6A4608334CF8088DCC
:10265000234496460833BEE80300E64543F8080CD9
:1026600043F8041C7246F4D1DEF8000020361860EE
:10267000B6F5806F9EF804201A71D9D1002641F278
:1026800048436A463946E65441F24B432046ADF88A
:102690000060E6548DF802608DF803608DF80460E8
:1026A000FFF7C8FE626A074680B9936923F0010309
:1026B000936100F035FB0546636A9B69DA0795D59F
:1026C00000F02EFB401BFA28F6D98FE79DF8033067
:1026D00020469DF802101B0243EA41639DF8041056
:1026E0000B43BDF8001043EA0143D361636AC3F8AA
:1026F000BC60FFF7F3FE41F251436FF04042E654F5
:10270000636A1A65184A636A5A654FF00222636A5F
:102710009A654FF0FF32636AC3F8E0200322636AD0
:102720009542DA6515D0626A936923F001039361DB
:1027300000F0F6FA0546636A9B69DB0705D500F0F1
:10274000EFFA401BFA28F6D950E7012241F24A433A
:10275000E254384608B0BDE8F08100BFD04A0020FE
:10276000D44A002000440258550200022DE9F043EB
:1027700000F5A25989B0044616461F46002509F106
:102780001C0941F24C48202D4BD0636AD3F8D83055
:10279000EB40D90743D505F1830304EB43131A79C2
:1027A00012073CD4D9F800200132C9F800201A7968
:1027B00042F008021A71D30729D541F24B43E35C7A
:1027C0002BB36846FFF798FD03AA04EB451303F506
:1027D000825303F1180C10331868083353F8041CA3
:1027E00096466345AEE803007246F5D1186869461F
:1027F000CEF8000004F581501B791C308EF80430AF
:102800000123CDE90067ADF80830FFF75BFD54F810
:10281000083023B141F27842A3580133A350013567
:10282000B1E709B0BDE8F0832DE9F0478A468CB0E6
:10283000044600F077FA06460F46BAF1000F41D180
:10284000636AD3F8A02012F4FE0F03D100200CB06D
:10285000BDE8F087D3F8A420920141BF41F2704156
:10286000625801326250D3F8A4205506EED0D3F856
:10287000A4306569C3F3052805EB08156846FFF722
:1028800035FDE9462B685A004ABF23F06042C3F386
:102890008A4242F000429B0000920DF1030242BFC7
:1028A000009B43F080430093EB8803F00F038DF807
:1028B0000C30EB1D0F35AB4220D013F8011F02F88E
:1028C000011FF8E7BAF1010FC0D1636AD3F8B02055
:1028D00012F4FE0FBAD0D3F8B420900141BF41F2F8
:1028E0007041625801326250D3F8B4205106ADD025
:1028F000D3F8B430A569C3F30528BDE7BAF1000FDA
:102900001CD1636AC3F8A88004A807ADFFF7F4FCE4
:1029100099E80F0007C504F581502B70002304A926
:102920001C30ADF81830CDE90467FFF7CBFC60B17F
:1029300041F26842A3580133A35088E7BAF1010F6E
:10294000E2D1636AC3F8B880DEE741F26C4201204D
:10295000A3580133A3507AE7F8B500F5A255044611
:102960000F4601260B3539462046FFF75DFF08B1BB
:102970002E70F8E741F24C43E35823B141F278421C
:10298000A3580133A350F8BD436AF0B51B6CC3F3E1
:10299000074323B300F5A35100230125043103F1BC
:1029A000830200EB42121479A60715D5640713D4ED
:1029B0005C01466A04F58354D6F8CC70045905FAD4
:1029C00004F43C4208D0C6F8D440147944F004041E
:1029D00014710A6801320A600133202BDFD1F0BD87
:1029E00008B5FFF7A1FAFFF7CFFFBDE80840FFF7F2
:1029F000A1BA0000436AD3F8C00010F07C5005D0A3
:102A0000D3F8C40080F40010C0F3405070470000B9
:102A100008B5FFF789FA41F23C03C05800F0A0F96D
:102A2000FFF788FA1F288CBF0020012008BD000096
:102A300041F25142835C5BB1416A8B6923F001032F
:102A40008B6141F274414358013343500023835456
:102A5000704700002DE9F84F90469946FFF764FA59
:102A600000F5825300224FF0010E083300F5A35702
:102A700002F1830100EB41110C7965070FD4E406E4
:102A80000DD59E69456A0EFA06F6D5F8CC40264269
:102A900005D0D3E900ABCB4508BFC24507D301320F
:102AA0002033202AE4D1BDE8F84FFFF743BAC5F838
:102AB000D4600C7944F004040C7139680131396038
:102AC000EDE70000F8B51E4600230F4605461370DB
:102AD0001446FFF79DFF80F0010038701EB12846B4
:102AE000FFF788FF2070F8BD2DE9F74F0D46984697
:102AF0000B780446164692F80090019300F00EF908
:102B00002B780BB93378C3B14FF0000B02468246E5
:102B100020465B46FFF79EFF2046FFF761FF2046F9
:102B2000FFF786FF4346324629462046FFF7CAFF95
:102B30002B7833B1019B23B10123184603B0BDE8C4
:102B4000F08F337813B1B9F1000FF5D104F5A25726
:102B50000C37DDE90C239B4508BF9245ECD2386861
:102B60000028E9D00368D968DDE90C23B2EB0A023A
:102B700063EB0B0388474346324629462046FFF75E
:102B8000A1FF2B7813B1019B002BD5D1337813B162
:102B9000B9F1000FD0D100F0C1F84FF0000B824620
:102BA000D7E7000010B5164C164B2068C0B90122BB
:102BB0001A6510221A654FF480521A650CE01A6DDE
:102BC000520710D40F4B1A6DD00612D41A6D51064D
:102BD0000FD42068FFF7D8FEBDE8104001F0C6B959
:102BE0001A6DD207EBD5052200211A65FFF7B4FE56
:102BF000E8E7502201211A652068FFF7ADFEE8E7FB
:102C0000D04A002000A0004010B5194C194B226892
:102C10003AB901221A6510221A654FF480521A65DA
:102C200022E01A6D920510D54FF400721A6500F07B
:102C300079F802460B4652EA030103D012F1FF3243
:102C400043F1FF332068FFF791FD0A4B1A6D9101A4
:102C500007D54FF0007201211A6541F251432268F5
:102C6000D1542068FFF790FEBDE8104001F07EB916
:102C7000D04A002000A000400FB4002004B07047EC
:102C80000FB44FF0FF3004B070470000FEE70000C3
:102C900000B59BB0EFF3098168226846FFF764F83E
:102CA000EFF30583044B9A6BDA6A9A6A9A6A9A6A16
:102CB0009A6A9A6A9B6AFEE700ED00E000B59BB055
:102CC000EFF3098168226846FFF74EF8EFF30583BA
:102CD000044B9A6B9A6A9A6A9A6A9A6A9A6A9B6A87
:102CE000FEE700BF00ED00E000B59BB0EFF3098107
:102CF00068226846FFF738F8EFF30583034B5A6BF9
:102D00009A6A9A6A9A6A9A6A9B6AFEE700ED00E0FC
:102D10000FB408B5029802F0BBF9FEE702F0C8BD97
:102D200002F0E2BD02F0A0BD10B5037C044613B969
:102D3000006804F099F9204610BD00000023BFF39D
:102D40005B8FC360BFF35B8FBFF35B8F8360BFF3A9
:102D50005B8F7047BFF35B8F0068BFF35B8F70477B
:102D600070B506460C30FFF7F5FF044606F108057E
:102D70002846FFF7EFFF844206D276682846FFF721
:102D8000E9FF3444201A70BD2846FFF7E3FFF9E756
:102D900070B505464068A0B105F10C0605F10800C4
:102DA000FFF7D8FF04463046FFF7D4FF844204F112
:102DB000FF34304694BF6D680025FFF7CBFF2C44ED
:102DC000201A70BD38B50C460546FFF7C9FFA04272
:102DD00010D305F10800FFF7BDFF6B682044BFF377
:102DE0005B8FB0FBF3F403FB1400A8600120BFF37A
:102DF0005B8F38BD002038BD2DE9F0411446804678
:102E00000D46FFF7C5FF844228BF0446DCB14746A4
:102E100057F80C6B3846FFF79DFF30442860384662
:102E2000D8F80460FFF796FF301AA0423DBF6860F3
:102E3000241AD8F8003001202FBF6C600220AB604C
:102E4000EC60BDE8F0812046BDE8F08138B50C4665
:102E50000546FFF79DFFA04210D305F10C00FFF7D8
:102E600079FF6B682044BFF35B8FB0FBF3F403FB87
:102E70001400E8600120BFF35B8F38BD002038BD2F
:102E80002DE9F04385B0002688460746694601AD26
:102E9000FFF7B2FF344681464E4505F108050CDACE
:102EA00008EB040155F8082C55F80C0C0136FEF718
:102EB0005BFF55F8083C1C44EEE721463846FFF717
:102EC000C5FF204605B0BDE8F0830000F8B5064612
:102ED0000C300F46FFF73EFF06F108050446284672
:102EE000FFF738FF8442284638BF7468FFF732FF87
:102EF000201A386020B134682846FFF72BFF2044A1
:102F0000F8BD000073B5144606460D46FFF728FFCE
:102F10008442019028BF0446DCB101A93046FFF786
:102F2000D5FF019B33B93268AB60EB6085E81400D4
:102F300001200CE0A342286088BF01940198A042C0
:102F40006860F5D23368241A0220AB60EC6002B0EE
:102F500070BD2046FBE700002DE9FF4100240F462D
:102F60006946FFF7CFFF2546804644450BDA0DEB57
:102F7000C4035DF83410781901345E683246354474
:102F8000FEF7F2FEF1E7284604B0BDE8F08100004C
:102F900038B50546FFF7E0FF044601462846FFF72F
:102FA00011FF204638BD000030B50A44074D91425C
:102FB0000BD011F8013B09245840013CF7D040F3F5
:102FC00000032B4083EA5000F7E730BD2083B8EDC3
:102FD0000246006848B1036811891360D388013341
:102FE0009BB29942D38038BF1381704770B588B0C7
:102FF00004460D46202200216846FEF7DDFE2046ED
:103000000495FFF7E5FF054660B16B46044608AE40
:103010001A46083403CAB24244F8080C44F8041CA7
:103020001346F5D1284608B070BD00002DE9F041E7
:1030300030B9274B40F2C531264A274803F0E8FF54
:103040000B7C23B9254B40F2C631224AF5E7C6690D
:1030500086B9C161BDE8F081002B29DA930CAB423F
:1030600029D1B44201D10C60F3E7C8F800100C601C
:10307000BDE8F0814B68B046344623F060474FEA24
:10308000D37EC3F3807CBD0C15EA230538BF3D46D3
:103090006368BEEBD37F23F06042DDD1974203D15A
:1030A000C3F380739C450AD1974205E01C46EFE7C5
:1030B000AA4206D013469D422CBF00230123002BB9
:1030C000CFD12368A046002BF0D12160BDE8F0816C
:1030D000DC760008D074000894770008B577000803
:1030E00008B5034A40F25E31024B034803F090FFFB
:1030F000AC740008547700089477000808B503689A
:103100000B60C388016033B9044B4FF4C761044AB4
:10311000044803F07DFF013BC38008BD247700080D
:10312000207500089477000870B50C4600F10C0576
:10313000616831B9E38A002061F309030021E38269
:1031400070BD0E682846FFF7D9FF6660F0E7000003
:1031500008B5426832B10B4B40F22F410A4A0B4886
:1031600003F056FFC37DC3F38401013161F386038D
:10317000C375C38A62F30903C3821B0A62F3C713D0
:10318000C37508BD70770008DC74000894770008E8
:103190002DE9F047089E32B91F4B40F239511F4AC2
:1031A0001F4803F035FF01F007054FEAD60800EB92
:1031B000D10006F007062A444FF47F49954201D119
:1031C000BDE8F08705F0070E06F0070A511BEC0872
:1031D000D6457746045D38BF574604FA0EF4C7F16A
:1031E000080724FA0AF48F4228BF0F4608EBD601DD
:1031F00029FA07FE13F801C03D443E445FFA8EFEF3
:103200008CEA04044EFA0AFE04EA0E048CEA040C6A
:1032100003F801C0D2E700BFF0760008F47400089C
:10322000947700082DE9F04106460F4600254FF639
:10323000FF7441F221082A4630463946FDF734F83A
:103240000823C0B284EA002414F4004F4FEA440477
:1032500003F1FF33A4B218BF84EA080413F0FF039C
:10326000F2D10835402DE6D12046BDE8F0810000BE
:1032700010B50A4441F22104914200D110BD11F869
:10328000013B80EA0320082310F4004F4FEA40007E
:1032900003F1FF3380B218BF604013F0FF03F3D196
:1032A000EAE700002DE9F04F85B08A468146BDF877
:1032B0003C408DE80C0030B9494B40F26E31494A30
:1032C000494803F0A5FE11F0604F04D0474B40F28F
:1032D0006F31444AF4E7009B002B7ED024B10E9B53
:1032E000002B7AD0072C28D809F10C00FFF770FECC
:1032F000054628B96FF00205284605B0BDE8F08FF5
:1033000014220021FEF758FD22460E9905F108000F
:10331000FEF72AFD631C2C4429462B744846009B6B
:103320001B7803F01F0363F03F0323724AF000434E
:103330006B600125FFF77AFEDEE7019B4FF0000886
:103340004FF0800B1B0A46464546029300F10C03E2
:1033500003930398FFF73CFE07460028CAD01422C7
:103360000021FEF729FDB6BB9DF8043002223B7216
:103370009DF808307B72711E0E9B1944B4420AD925
:10338000B818013211F801EF0136D2B280F808E026
:10339000B6B2072AF2D1009BB44208BF4FF0400BEF
:1033A000B81801321978013501F01F012DB241EA38
:1033B000481188F001084BEA010339464FF0000B31
:1033C00003724AF000433A7448467B60FFF72EFED2
:1033D000B442BED190E70022CDE76FF001058BE744
:1033E000DC760008C07400089477000800770008B5
:1033F0002DE9F0471E46CB8A91468046C3F3090269
:103400000F46062A19D013460021B0B28DB25A19C0
:1034100092B2052A09D9A84210D8FA8A034463F364
:103420000902FA820120BDE8F087A842F3D919F811
:1034300001403A4401319476E8E70025FB8A7C6834
:10344000C3F309001C23821FB2FBF3FA03FB1A2A01
:103450001FFA8AF27CB301212368002B39D1B31FF4
:1034600003441C20B3FBF0F301339BB299420CD20E
:10347000BAF1000F09D14046FFF7AAFD08B1C0F824
:1034800000A0206008B304460022B6B24FF0000A44
:10349000B54230D2691E13464944E018013311F891
:1034A00001EF01359BB280F804E0ADB21C2B14D0C3
:1034B000AE42F2D8ECE74046FFF78AFD044608B179
:1034C000002303607C60002CDED16FF00200BDE8B9
:1034D000F08701311C4689B2BEE7AE42D8D94046DA
:1034E000FFF776FD08B1C0F800A020600028ECD0FE
:1034F00004460022CCE7FB8AC3F30902164466F3B4
:103500000903FB828EE70000F8B50E4615461F46FC
:10351000044628B9144B4F21144A154803F078FD8E
:1035200024220021FEF748FC069B6A090020636004
:1035300004F10C05079BA76023624FF6FF73207010
:103540009A42A061E06128BF1A4697B2824205D133
:1035500000232B6027826382A382F8BD2E60013096
:1035600035462036F2E700BFD87600084C740008D4
:103570009477000808B528B9084B7321084A094810
:1035800003F046FD037823B94BB2002B01DD017037
:1035900008BD054B7D21024AF1E700BFDC7600083B
:1035A0005874000894770008207600080078704767
:1035B0002DE9F7430D9E074619461046BDF82890A1
:1035C0000B9D9DF83040BDF8388016B9B8F1000F5A
:1035D00043D11F2C41D83B78D3B9B8F1070F39D864
:1035E00039F0030339D1424631464FF6FF704FEAB6
:1035F0000929FFF73DFE20F0010009F4407940045D
:1036000049EA0464400C44EA40244FF6FF730DE09D
:1036100043EA0923B8F1070F43EA0464F5D9FFF739
:1036200001FE42463146FFF723FE03462A46214665
:1036300038468DE84001FFF735FE0DB9FFF750FD24
:103640002B780133DBB21F2B88BF00232B7003B014
:10365000BDE8F0836FF00300F9E76FF00100F6E7D3
:103660002DE9F7430E9F81460B9D9DF830009DF894
:103670003480BDF83C6007B9C6BB1F2836D899F81E
:1036800000E0BEF1000F34D00C029DF82810072E88
:1036900044F0800444EAC83444EA014444EA0E0495
:1036A00044EA006415D919461046FFF7BBFD3246BF
:1036B0003946FFF7DDFD034601962A46009721466D
:1036C0004846FFF7EFFDB8F1010F0CD125B9FFF720
:1036D00007FD4FF6FF73EFE72B780133DBB21F2BAB
:1036E00088BF00232B7003B0BDE8F0836FF00100AA
:1036F000F9E76FF00300F6E7C06900B104307047E6
:10370000C1690C300B680361FFF7F8BC2DE9F84F75
:10371000D0F818A0054616461F465446DFF86480C8
:103720004FF0000900F10C0B0CB9BDE8F88FD4E99B
:103730000223B21A67EB0303994508BF90451FD2D5
:10374000AB69214628469C420DD1FFF7EDFCAB69E1
:10375000214658461B68AB61FFF7D0FCAC69234695
:10376000A2461C46E0E7FFF7DFFC236821465846E7
:10377000CAF800305446FFF7C1FCDAF80030EFE732
:103780002368EDE780841E002DE9F04F8BB00D46D5
:10379000144682460793DDF85090002800F06381BC
:1037A000B9F1000F00F05F81531E3F2B00F25B81E7
:1037B000012A03D1079B002B40F05581BAF8146011
:1037C0000023F60008930993B54280F052812B192B
:1037D0009E420AD2761B16F0FF0607D1AA4B40F292
:1037E0006751AA4AAA4803F013FC2646DAF80C30BF
:1037F00023B9DAF81030002B00F0A4802F2D30D838
:10380000C5F13008002329464645009308ABDAF895
:1038100008002CBF5FFA88F8B046A6EB08074544BD
:103820004246FFB2FFF7B4FCBAF814304FF0300B49
:1038300003F10053063BDB000293DAF80C300593EA
:10384000059B002B51D087B9DAF81000002861D011
:10385000002F5FD0AB4550D98E4B40F2A6518B4A1A
:10386000C0E737464FF00008DEE7029B23B98A4BDA
:103870004FF4B161854AB5E7029BE02B28BFE023F6
:1038800006935B44AB4204931DD95B1B9F422ABF46
:10389000DBB203970393AB4504D97E4B40F29151C1
:1038A0007A4A9FE7059808ABCDF80080A5EB0B019D
:1038B000039A0430FFF76CFC039B9844FF1A1D44E5
:1038C0005FFA88F8FFB2049B9B4504D3734B40F228
:1038D0009B516E4A86E7029B069ADDF810B09B1A50
:1038E0000293059B1B680593AAE7029BBB42ABD2E0
:1038F0006B4B40F2A151654A74E7CDF80080B844A3
:103900003A46A5EB0B015FFA88F83D44002708AB67
:10391000FFF73EFCBAF81430B5EBC30F04D9614B86
:1039200040F2B151594A5DE7B8F1400F04D95E4BFE
:1039300040F2B251554A55E767B15C4B40F2B35182
:10394000524A4FE70093324608AB2946DAF808009E
:10395000FFF71EFC731E35B23F2B01D8A64204DDD3
:10396000534B40F23521534A3CE760070AD00AAB7B
:10397000624203EBD40102F0070211F8083C134144
:1039800001F8083C082C21D9102C21D9202C8CBFFF
:1039900008230423079A002A6DD0B4EBC30F6CD020
:1039A000082C04F1FF3215D89DF8203023FA02F2DA
:1039B000D10706D54FF0FF3202FA04F423438DF805
:1039C00020309DF8203089F800304EE00123E1E7F7
:1039D0000223DFE7102C11D8BDF8203023FA02F2C1
:1039E000D20706D54FF0FF3202FA04F42343ADF8B4
:1039F0002030BDF82030A9F8003036E0202C0ED859
:103A0000089921FA02F2D30705D54FF0FF3303FAE4
:103A100004F40C430894089BC9F8003025E0402CBE
:103A20001CD0DDE9086730463946FCF73DFC002133
:103A300000F0010050EA01030BD0224601200021D2
:103A4000FCF73EFC404261EB410106430F43CDE9E8
:103A50000867DDE90823C9E9002306E0164B4FF4A7
:103A60002071144ABEE66FF0010528460BB0BDE890
:103A7000F08F1D46F9E7012CA3D0082CA1D9102CFA
:103A8000B7D9202CE5D8C6E72C75000804750008C6
:103A9000947700084E7500083B75000873750008A0
:103AA0009B750008C2750008F075000808760008CC
:103AB00022760008847400082076000830B585B0AE
:103AC00030B9244B40F2B121234A244803F0A0FA34
:103AD00023B9234B40F2B2211F4AF6E7402A04D90A
:103AE000204B40F2B6211C4AEFE722B91D4B4FF4A0
:103AF0002F71194AE9E70024012A0294039417D18F
:103B00001B788DF8083053070AD004AB554203EBFD
:103B1000D20305F0070513F8084CAC4003F8084C35
:103B200000910346002102A8FFF732FB05B030BD2B
:103B3000082AE5D9102A03D81B88ADF80830E2E737
:103B4000202A02D81B680293DDE7D3E90045CDE9BE
:103B50000245D8E75C76000898740008947700085E
:103B6000777600082076000870B50C4600F10C0549
:103B7000E16819B9A1602161A18270BD0E68284673
:103B8000FFF7BCFAE660F3E72DE9F04FD1F80090BB
:103B900091B004460D46C9F3C016CDE90223002EAC
:103BA00050D0C9F3C03BC9F30626B9F1000F80F22B
:103BB0009F8119F0C04F40F09B812B7B002B00F0C0
:103BC0009781BBF1020F03D02278B24240F093817B
:103BD00009F07F02BBF1020F059236D119F07F0F79
:103BE000C9F30F2A01D10AF0030A2B447606059A7D
:103BF00046EA0B4693F8038046EA82465FEAD8130A
:103C000046EA0A06069300F09A800022002310A9D3
:103C10006768204661E90823059B524600935B468E
:103C2000B847002800F08880A7698FB9314604F1B1
:103C30000C00FFF7DBF90746D0B96FF0020011B0B6
:103C4000BDE8F08F4FF0020BAFE7C9F3074ACCE7AE
:103C50003B699E420DD03F68002FF9D1314604F1F7
:103C60000C00FFF7C3F907460028E6D0A3693B60C4
:103C7000A761DDE90801FFF7D5FAB882F97D08F000
:103C80001F06C1F38401711A89B20FFA81FEBEF1D9
:103C9000000FD7E90223B8BF01F1200EC9F3046178
:103CA000B8BF0FFA8EFE079152EA030100F02F8190
:103CB000DDE90201801A61EB030102469F480B46D1
:103CC0000021994208BF9042C0F02181069B002B41
:103CD0003FD0BEF1010F00F31A8118F0400F38D029
:103CE0000021DDE90223C7E9022320220DEB0200B7
:103CF000FEF762F82046ADF836A008A98DF838B076
:103D00008DF83960DDE90223CDE908232B1D0A93E4
:103D10002B7B013BDBB2ADF834309DF81C308DF8C5
:103D20003A309DF814308DF83B30A36898473846F8
:103D3000FFF70EFA002082E76FF00B007FE7A7691C
:103D400017B96FF00C007AE73B699E4296D03F6846
:103D5000F6E7FB7DC8F34012B2EBD31F40F0CE80F4
:103D6000C3F38403B34240F0CC8006994FEA981223
:103D70002B7B79B3D2073CD4032B40F2C580AE1D18
:103D8000394604F10C00DDE90223C7E902232B7B4D
:103D90003246033BDBB2FFF72BFB002808DA39463B
:103DA0002046FFF7C1F93846FFF7D2F9032046E76E
:103DB000AB883B832A7B033AD2B2B88A3146FFF7FD
:103DC00057FAFB7DB882DA43C2F3C01262F3C7131D
:103DD000FB75AFE76AB92E1D013B394604F10C00B3
:103DE000DBB23246FFF704FB0028D8DB2A7B013A1E
:103DF000E2E7FA8A013BC2F30902D9B2052A50D898
:103E0000281D002399420AD907EB020E013210F84F
:103E100001CB0133062A8EF81AC0DBB2F2D18B42F5
:103E200007F11A02DDE9028938BF04330A922CBF78
:103E300000235B19CDE908897A680C930B92FB8A01
:103E4000ADF836A0C3F309038DF838B08DF83960AA
:103E500019449DF81C308DF83A309DF81430ADF8B7
:103E60003410291D8DF83B300023B88A7B602A7BF3
:103E7000013AFFF7FDF93B8BB882834203D1A36877
:103E800008A92046984708A92046FFF76DFE384646
:103E9000FFF75EF9B88A3B8B984214BF11200020CF
:103EA000CDE6786810B34FF0060E03689BB9A2EB1D
:103EB0000E021B2A13D8033205F1040E02441F30F0
:103EC0009942ACD91EF801CB013302F801CF9042E0
:103ED000DBB2F5D1A3E70EF11C0E1846E5E7184B4F
:103EE00040F2B311174A184803F092F8034696E7D8
:103EF0006FF00900A3E66FF00A00A0E66FF00D0076
:103F00009DE66FF00E009AE66FF00F0097E6FB7DDE
:103F10003946204668F386036FF3C713FB75FFF736
:103F200003F9069B002B7FF4D8AEFB7DC3F384021C
:103F3000013262F38603FB7503E700BF80841E0035
:103F40008C7600087074000894770008064A53685D
:103F500023F001035360EFF30983683383F3098887
:103F6000002383F31188704730EF00E010B5202361
:103F700083F31188104B5B6813F4006318D0F1EEE3
:103F8000103AEFF309844FF0807344F84C3C0B4B2C
:103F9000DB6844F8083CA4F1680383F3098801F066
:103FA00007F818B1064B44F8503C10BD054BFAE732
:103FB00083F3118810BD00BF00ED00E030EF00E09A
:103FC000390700083C070008002304491A465A50E4
:103FD000C81808334260802BF9D17047E04A0020AE
:103FE000024A136843F0C003136070470078004032
:103FF000044B5A6810439A6858600AB1181D10475C
:10400000704700BF604B00202DE9F84F414EF56D21
:104010002F68EC6921072C6219D014F0080F0CBF2F
:1040200000208020E20748BF40F02000A3074FF0A7
:10403000200348BF40F04000610748BF40F4807053
:1040400083F31188FFF7D4FF002383F31188E2057F
:1040500009D5202383F311884FF40070FFF7C8FFC0
:10406000002383F311884FF02009DFF8A8A04FF058
:10407000000B14F0200832D13B0615D54FF0200973
:10408000DFF894A020060FD589F31188504600F080
:10409000F1F9002830DA0820FFF7AAFF27F08003A3
:1040A0002B60002383F3118879060DD562060BD5AA
:1040B000202383F31188F26C336D9A4201D1336C63
:1040C00003BB002383F31188E30604D5B26E1369A2
:1040D0000BB150699847BDE8F84FFFF747BF89F328
:1040E0001188AB8C504696F86410194000F05CFAC9
:1040F0008BF31188EC69BCE780B2288588F31188BE
:10410000EC69BFE727F040071020FFF771FF2F6031
:10411000D7E700BF604B0020984B002013B5104C30
:10412000204600F027FA04F11400009400234FF415
:1041300000720C4900F0E8F804F1380000944FF4E4
:104140000072094B094900F061F9094B0C2152201A
:10415000E365084B236602B0BDE8104000F05EB88E
:10416000604B0020CC4B0020E13F0008CC4D0020EC
:104170000078004000E1F505254B002908BF1946ED
:10418000037C012B816630B511D1224B98420ED1B0
:10419000214BD3F8E82042F08042C3F8E820D3F85E
:1041A000102142F08042C3F81021D3F810310A6880
:1041B000036EC46D03EB5203B3FBF2F34A681504BC
:1041C00042BF23F0070503F0070343EA4503E3601A
:1041D0008B6843F040036360CB68510543F00103F3
:1041E000A36042F4967343F0010323604FF0FF3362
:1041F000236205D512F0102205D0B2F1805F04D001
:1042000080F8643030BD7F23FAE73F23F8E700BF32
:10421000D0770008604B00200044025800F1604352
:1042200000F01F020901400903F56143C9B2800093
:1042300083F80013012300F16040934000F56140D2
:10424000C0F8803103607047F8B5154682680446AF
:104250000B46AA4200D28568A1692669761AB54242
:1042600007D218462A46FDF77FFDA3692B44A361B8
:104270000DE011D9AF1B32461846FDF775FD3A46E1
:10428000E1683044FDF770FDE2683A44A261A3683A
:1042900028465B1BA360F8BD18462A46FDF764FD5F
:1042A000E368E4E7836893422DE9F04104460F4652
:1042B000154600D2856860692669361AB54207D26C
:1042C0002A463946FDF750FD63692B4463610EE0D1
:1042D00013D9A5EB060832463946FDF745FD42469F
:1042E000B919E068FDF740FDE26842446261A368E5
:1042F00028465B1BA360BDE8F0812A463946FDF7DE
:1043000033FDE368E2E7000010B50A440024C3610E
:10431000029B006040608460C16081614161026114
:10432000036210BD08B582694369934201D1826876
:1043300082B98268013282605A1C426119704269F6
:1043400003699A4201D3C3684361002100F070FF02
:10435000002008BD4FF0FF3008BD000070B52023DD
:1043600004460E4683F31188A568A5B1A368A26927
:10437000013BA360531CA36115782269934224BFBB
:10438000E368A361E3690BB120469847002383F3F8
:104390001188284670BD3146204600F039FF0028BC
:1043A000E2DA85F3118870BD2DE9F74F05460F4617
:1043B00090469A46D0F81C90202686F311884FF03C
:1043C000000B144664B1224639462846FFF73CFFED
:1043D000034668B95146284600F01AFF0028F1D07C
:1043E000002383F31188A8EB040003B0BDE8F08F2D
:1043F000B9F1000F03D001902846C847019B8BF309
:104400001188E41A1F4486F31188DBE7C1608161DB
:1044100041611144C361009B0060406082600161A2
:1044200003627047F8B504460E461746202383F30F
:104430001188A568A5B1A368013BA36063695A1CF4
:1044400062611E70236962699A4224BFE3686361F6
:10445000E3690BB120469847002080F31188F8BD2E
:104460003946204600F0D4FE0028E2DA85F31188B0
:10447000F8BD0000836942699A4210B501D1826893
:104480007AB98268013282605A1C82611C780369A1
:104490009A4201D3C3688361002100F0C9FE20461F
:1044A00010BD4FF0FF3010BD2DE9F74F05460F4608
:1044B00090469A46D0F81C90202686F311884FF03B
:1044C000000B144664B1224639462846FFF7EAFE3F
:1044D000034668B95146284600F09AFE0028F1D0FC
:1044E000002383F31188A8EB040003B0BDE8F08F2C
:1044F000B9F1000F03D001902846C847019B8BF308
:104500001188E41A1F4486F31188DBE702684368C8
:104510001143016003B11847704700001430FFF7E2
:1045200043BF00004FF0FF331430FFF73DBF0000E2
:104530003830FFF7B9BF00004FF0FF333830FFF7D6
:10454000B3BF00001430FFF709BF00004FF0FF3188
:104550001430FFF703BF00003830FFF763BF0000DF
:104560004FF0FF323830FFF75DBF0000002070478A
:10457000FFF7D4BD044B0360002343608360C36036
:1045800001230374704700BFE877000810B52023AB
:10459000044683F31188FFF7EFFD02232374002301
:1045A00083F3118810BD000038B5C36904460D4679
:1045B0001BB904210844FFF7A9FF294604F11400A0
:1045C000FFF7B0FE002806DA201D4FF48061BDE839
:1045D0003840FFF79BBF38BD026843681143016054
:1045E00003B118477047000037B5446B41F6A40586
:1045F00063591A681178042914D1217C022911D138
:104600001979012312898B4013420BD101A904F1BE
:104610004C0002F0B5F864590246019B21792068EC
:1046200000F0ECF903B030BD143002F039B80000EE
:104630004FF0FF33143002F033B800004C3002F07A
:104640000BB900004FF0FF334C3002F005B9000009
:10465000143002F007B800004FF0FF31143002F0C0
:1046600001B800004C3002F0D7B800004FF0FF3224
:104670004C3002F0D1B8000070B541F6A4060546F2
:10468000825913681978042901D0012070BD017C7A
:104690000229FAD1127901205C8990400440F4D1BA
:1046A00005F1140001F098FF02460028EDD0AD5945
:1046B0004FF440732868697900F08EF9204670BD88
:1046C000406BFFF7D9BF0000002070477047000023
:1046D0007FB5124B012504260446036000230574B0
:1046E00000F18402436029468360C3600C4B029052
:1046F000143001934FF44073009601F049FF094BC9
:1047000004F694422946019304F14C004FF440739F
:104710000294009602F010F804B070BD1078000802
:10472000C1460008E94500080A68202383F3118880
:104730000B790B3342F823004B79133342F82300F3
:104740008B7913B10B3342F8230041F6A403C15017
:1047500002230374002383F31188704738B5037F65
:10476000044613B190F85430ABB90125201D022145
:10477000FFF732FF04F1140025776FF0010100F01C
:1047800063FD84F8545004F14C006FF00101BDE862
:10479000384000F059BD38BD10B501210446043041
:1047A000FFF71AFF0023237784F8543010BD000070
:1047B00038B504460025143001F002FF04F14C0026
:1047C000257701F0D1FF201D84F854500121FFF717
:1047D00003FF2046BDE83840FFF74EBF90F8803019
:1047E00003F06003202B19D190F88120212A0AD0F0
:1047F000222A4FF000030ED0202A0FD1084A426728
:104800000722826704E0064B436707238367002380
:10481000C3670120704743678367F9E7002070474B
:104820002823002073B541F6A405044643591A68AD
:104830001178042919D1017C022916D11979012393
:1048400012898B40134210D100F14C06304602F021
:104850004BF850B101A9304601F092FF645902466D
:10486000019B2179206800F0C9F802B070BD0000FA
:1048700001F10B03F7B550F8234005460E46F4B19D
:10488000202383F3118805EB8607201D08214C3473
:10489000FFF7A2FEFB685B691B6813B1204601F0BD
:1048A0007DFF01A9204601F06BFF024648B1019B44
:1048B0003146284600F0A2F8002383F3118803B0A4
:1048C000F0BDFB685A691268002AF5D01B8A013BCB
:1048D0001340F1D105F18002EAE70000133138B549
:1048E00050F82140E4B1202383F3118841F6A4035A
:1048F000E2581368527903EB8203DB689B695D68B9
:1049000045B104216018FFF767FE294604F1140041
:1049100001F06CFE2046FFF7AFFE002383F3118801
:1049200038BD00007047000001F066B9012300F1B6
:10493000300200F1500103700023436042F8043B51
:104940008A42D361FAD103814381704738B5044666
:10495000202383F31188002500F10C0300F13002BD
:10496000416043F8045B9342FBD1204601F066F9B5
:104970000223237085F3118838BD000070B500EB69
:104980008103054650690E461446DA6018B11022BC
:104990000021FDF711FAA06918B110220021FDF7DE
:1049A0000BFA31462846BDE8704001F059BA0000C4
:1049B000038900F13002002103F0010303814389E0
:1049C00003F00103438100F1100343F8041B9342F9
:1049D000FBD101F0DDBA0000F0B4012500EB810449
:1049E00047898D40E4683D43A469458123600023E5
:1049F000A2606360F0BC01F0F9BA0000F0B40125D8
:104A000000EB810407898D40E4683D4364690581BA
:104A100023600023A2606360F0BC01F071BB000062
:104A2000022300F10C0200F1300110B503700446BE
:104A30000023A0F8883080F88A3080F88B3003811A
:104A4000438142F8043B8A42FBD184F8703020460F
:104A500001F09AF963681B6823B120460021BDE884
:104A60001040184710BD00000278436880F88C2081
:104A700005221B6802700BB1042118477047000023
:104A8000436890F88C201B6802700BB10521184711
:104A90007047000090F8703070B5044613B10023E1
:104AA00080F8703004F18002204601F095FA6368C6
:104AB0009B6863BB94F8805015F0600615D194F89C
:104AC000813005F07F0545EA032540F202339D421F
:104AD00000F00E815BD8022D00F0DC803FD8002D65
:104AE00000F08780012D00F0CF800021204601F0EA
:104AF0002BFD0021204601F01BFD63681B6813B1EC
:104B0000062120469847062384F8703070BD204661
:104B100098470028CED094F8872094F8863043EA4E
:104B20000223A26F934238BFA36794F98030A56F28
:104B3000002B4FF0200380F2FD80002D00F0EC8070
:104B4000092284F8702083F311880021A36F626F1B
:104B50002046FFF753FF002383F3118870BDB5F59E
:104B6000817F00F0B180B5F5407F49D0B5F5807FF9
:104B7000BBD194F88230012BB7D1B4F8883023F040
:104B80000203A4F888306667A667E667C3E740F2C9
:104B900001639D421ED8B5F5C06F3BD2B5F5A06F3D
:104BA000A3D1B4F88030B3F5A06F0ED194F8823061
:104BB000204684F88A3001F045F963681B6813B118
:104BC0000121204698470323237000236367A367CE
:104BD000E367A0E7B5F5106F32D040F602439D427F
:104BE00052D0B5F5006F80D104F18B0363670123C8
:104BF00024E004F18803E56763670223A3678AE77B
:104C000094F88230012B7FF470AFB4F8883043F011
:104C10000203B6E794F885202046616894F8843052
:104C20004D6843EA022394F8831094F88220A84741
:104C300000283FF45AAF436863670368A367A4E79B
:104C40002378042B10D1202383F311882046FFF70B
:104C5000AFFE86F311886368032184F88B601B68BC
:104C600021700BB12046984794F88230002BACD0CD
:104C700084F88B300423237063681B68002BA4D056
:104C8000022120469847A0E7374B63670223A367BA
:104C900000239DE794F88410204611F0800F01F066
:104CA0000F010ED001F08AF9012806D002287FF406
:104CB0001CAF2E4BA067636767E72D4BA567636743
:104CC00063E701F06DF9EFE794F88230002B7FF491
:104CD0000CAF94F8843013F00F013FF476AF1A064E
:104CE000204602D501F048FC6FE701F039FC6CE783
:104CF00094F88230002B7FF4F8AE94F8843013F0EF
:104D00000F013FF462AF1B06204602D501F01CFCE8
:104D10005BE701F00DFC58E7142284F8702083F360
:104D200011882B462A4629462046FFF755FE85F373
:104D3000118870BD5DB1152284F8702083F311884D
:104D40000021A36F626F2046FFF746FE03E70B22A8
:104D500084F8702083F311882B462A462946204682
:104D6000FFF74CFEE3E700BF407800083878000802
:104D70003C78000838B590F870300446152B29D8D7
:104D8000DFE803F03E28282828283E28280B293968
:104D900028282828282828283E3E90F8871090F8B0
:104DA0008620836F42EA01229A4214D9C268128A8D
:104DB000B3FBF2F502FB15356DB9202383F311889F
:104DC0002B462A462946FFF719FE85F311880A2348
:104DD00084F8703038BD142384F87030202383F3B6
:104DE0001188002320461A461946FFF7F5FD0023D7
:104DF00083F3118838BDC36F03B198470023E7E7F9
:104E0000002101F0A1FB0021204601F091FB636825
:104E10001B6813B10621204698470623D8E70000F7
:104E200090F87020152A38B5044622D80123934003
:104E300040F6416213421DD113F480150FD19B023D
:104E400017D50B2380F87030202383F311882B466D
:104E50002A462946FFF7D2FD85F3118838BDC3687D
:104E60009B695B682BB9C36F03B19847002384F833
:104E7000703038BD002101F067FB0021204601F0B1
:104E800057FB63681B6813B1062120469847062329
:104E9000EDE70000024B00221B605B609A607047E8
:104EA000CC4F0020002382680374054B1B6899686F
:104EB0009142FBD25A6803604260106058607047AC
:104EC000CC4F002008B5202383F31188037C032BEB
:104ED00005D0042B0DD02BB983F3118808BD43698D
:104EE00000221A604FF0FF334361FFF7DBFF00231E
:104EF000F2E790E80C001A6002685360F2E70000E5
:104F0000002382680374054B1B6899689142FBD8A3
:104F10005A6803604260106058607047CC4F0020B0
:104F2000054B196908741868026853601A601861A3
:104F300001230374FBF7ECBBCC4F00204B1C30B5B6
:104F4000054687B00A4C10D0236901A8094A00F031
:104F500097F92846FFF7E4FF049B13B101A800F07E
:104F6000CBF92369586907B030BDFFF7D9FFF8E7DF
:104F7000CC4F0020C54E000838B50C4D04464161A9
:104F80002B6981689A68914203D8BDE83840FFF7E1
:104F900089BF1846FFF786FF01232C610146237461
:104FA0002046BDE83840FBF7B3BB00BFCC4F002024
:104FB000044B1A681B6990689B68984294BF002054
:104FC00001207047CC4F002010B5084C23682069A1
:104FD0001A6854602260012223611A74FFF790FF5F
:104FE00001462069BDE81040FBF792BBCC4F002082
:104FF00008B5FFF7DDFF18B1BDE80840FFF7E4BFD3
:1050000008BD0000FEE7000010B5194CFFF742FF95
:1050100000F028F980221749204600F0ADF801235E
:1050200044F8180C0374144B144AD96821F4E06155
:105030000904090C0A431249DA60CA6842F0807216
:10504000CA60104A1049C2F8B01F116841F001014E
:1050500011601022DA77202283F82220002383F3C4
:10506000118862B60948BDE8104000F0A7B800BF3B
:10507000F44F00204478000800ED00E00003FA053A
:10508000F0ED00E0001000E055CEACC54C78000813
:1050900008B572B6034B586200F0D8FB00F0A4FCD0
:1050A000FEE700BFCC4F00202DE9F84F1E4C4FF01B
:1050B0000008DFF87890656904F11407D9F8243006
:1050C000266AAA689E1B96421CD34FF0200AAA6843
:1050D000236AD5F80CB0B61A134423622B68BB427E
:1050E0005F606361C5F80C8001D101F029FC88F391
:1050F00011882869D8478AF311886569AB689E4290
:10510000E5D2DBE76269BA420CD0916823628E1B5C
:105110009660A86802282CBF1818981CBDE8F84FA4
:1051200001F014BCBDE8F88FCC4F0020000C00400B
:10513000EFF3118020B9EFF30583202282F3118869
:105140007047000010B558B9EFF30584C4F30804A4
:1051500014B180F3118810BDFFF74AFF84F3118862
:1051600010BD0000034B59685A68521A9042FBD890
:10517000704700BF001000E082600222027400222B
:10518000427470478368A3F17C0243F80C2C0269D7
:1051900043F83C2C426943F8382C074A43F81C2C4E
:1051A000C268A3F1180043F8102C022203F8082C5F
:1051B000002203F8072C70472907000810B52023A8
:1051C00083F31188FFF7DEFF00210446FFF7D4FECA
:1051D000002383F31188204610BD0000024B1B6999
:1051E00058610F20FFF79CBECC4F0020202383F393
:1051F0001188FFF7F3BF000008B50146202383F3B1
:1052000011880820FFF79AFE002383F3118808BD58
:1052100049B1064B42681B6918605A6013604360CD
:105220000420FFF78BBE4FF0FF307047CC4F0020BB
:105230000368984206D01A680260506018465961A7
:10524000FFF730BE7047000038B504460D462068B1
:10525000844200D138BD036823605C604561FFF77C
:1052600021FEF4E7054B03F114025A619A614FF0F5
:10527000FF32DA6100221A62704700BFCC4F002073
:10528000F8B5036102291A4B0646C26038BF0221F5
:105290005C6A184B1A461F4652F8145F95420AD1B1
:1052A000586198611C620560456081600819BDE81D
:1052B000F84001F03BBB186AAB68241A0C1902D302
:1052C000E41A2D6804E09C4202D2204401F03EFB27
:1052D000AB689C42F4D86B68356073601E604FF019
:1052E000FF336E60B460A968091BA960FB61F8BD5B
:1052F000000C0040CC4F002010B41A4C234653F849
:10530000141F814210D0416802680A60026851602F
:105310009A424FF00001C16003D0936881680B444A
:1053200093605DF8044B70470A6800209A426261FE
:105330005360C86003D15DF8044B01F001BB936872
:1053400088680344206A9360074A526A121A93429B
:10535000E7D9991A5DF8044B012998BF931C1844AA
:1053600001F0F4BACC4F0020000C00400020704740
:10537000FEE70000704700004FF0FF30704700006C
:10538000022906D0032906D00129064818BF0020AB
:10539000704705487047032A9ABF044800EBC200D3
:1053A0000020704738790008EC780008302300208E
:1053B00070B59AB006460846144601AD294600F07D
:1053C00095F82846FCF7F0FCC0B2431C5B0086E869
:1053D000180023700323023404F8013C002319460B
:1053E000DAB20234904201D81AB070BDEA5C0133DF
:1053F00004F8011C04F8022CF2E7000008B5202391
:1054000083F311880348FFF70DFA002383F3118813
:1054100008BD00BF8851002010B50446052916D8E4
:10542000DFE801F016150316161D202383F31188FB
:105430000E4A0121FFF7A2FA20460D4A0221FFF78A
:105440009DFA0C48FFF7B4F9002383F3118810BDCF
:10545000202383F311880748FFF780F9F4E720231E
:1054600083F311880348FFF797F9EDE76C7800089C
:10547000907800088851002038B50C4D0C4C2A4615
:105480000C4904F10800FFF793FF05F1CA0204F18B
:1054900010000949FFF78CFF05F5CA7204F11800E6
:1054A0000649BDE83840FFF783BF00BF606A0020AF
:1054B00030230020BC780008C6780008D1780008A6
:1054C00070B5044608460D46FCF76EFCC6B2204691
:1054D000013403780BB9184670BD32462946FCF7F3
:1054E0004DFC0028F3D1012070BD00002DE9F047EC
:1054F00004460D46FCF758FC2B49C6B22046FFF780
:10550000DFFF08B10636F6B228492046FFF7D8FF7C
:1055100008B11036F6B2632E0BD8DFF88C80DFF8B6
:105520008C90234FDFF894A0267846B92E70BDE802
:10553000F08721462846BDE8F04701F019BE252E28
:105540002ED1072241462046FCF718FC70B9194BB2
:105550002A4603F10C0153F8040B8B4242F8040B6A
:10556000F9D11B7807340D351370DDE70822494661
:105570002046FCF703FC98B9AA1C0F4B13F8011F37
:10558000023209095345C95D02F8041C197801F07B
:105590000F01C95D02F8031CF0D118350834C3E7C8
:1055A0002E7001340135BFE758790008D178000822
:1055B0006E79000860790008FFE7F11F0BE8F11F22
:1055C000BFF34F8F044B1A695107FCD1D3F8102158
:1055D0005207F8D1704700BF0020005208B50D4BAC
:1055E0001B78ABB9FFF7ECFF0B4BDA68D10704D59A
:1055F0000A4A5A6002F188325A60D3F80C21D20765
:1056000006D5064AC3F8042102F18832C3F8042102
:1056100008BD00BFBE6C002000200052230167457A
:1056200008B5114B1B78F3B9104B1A69510703D514
:10563000DA6842F04002DA60D3F81021520705D54B
:10564000D3F80C2142F04002C3F80C21FFF7B8FF59
:10565000064BDA6842F00102DA60D3F80C2142F01E
:105660000102C3F80C2108BDBE6C002000200052CE
:105670000F289ABF00F580604004002070470000AA
:105680004FF4003070470000102070470F2808B515
:105690000BD8FFF7EDFF00F500330268013204D1AB
:1056A00004308342F9D1012008BD002008BD00006C
:1056B0000F2810B504463FD8FFF782FFFFF78EFF93
:1056C0001E484FF0FF33072C4361C0F814311DD83A
:1056D0000361FFF775FF230243F02403C360C3682F
:1056E00043F08003C36003695A07FCD4FFF768FFE7
:1056F0002046FFF7BDFF4FF4003100F051F9FFF7EE
:105700008FFF2046BDE81040FFF7C0BFC0F8103142
:10571000FFF756FFA4F108031B0243F02403C0F86F
:105720000C31D0F80C3143F08003C0F80C31D0F8C4
:1057300010315B07FBD4D9E7002010BD00200052D8
:105740002DE9F84F40EA0203054689469046DB06FC
:105750005AD122F0030203460244934205D1FFF7D7
:105760003DFF4E46DFF8B8B042E0196801314BD139
:105770000433F2E7264A05F1784326489342264B44
:10578000264F88BF9A46A3F1FC039CBFDA46184611
:1057900003F1F80388BF1F46FFF712FF4FF0FF33F6
:1057A00006F11C02A5EB060E03603B6843F0020302
:1057B0003B60331FDAF8004014F00504FAD153F8C7
:1057C000041F9A424EF80310F4D1BFF34F8FFFF736
:1057D000F7FE4FF0FF3320223146036028463B6836
:1057E00023F002033B6001F047FC58B92035203616
:1057F000A8EB06034B441F2BBCD80120FFF710FF7A
:10580000BDE8F88F2046F9E70020BDE8F88F00BF1B
:10581000FFFF0F0014210052102100520C200052F3
:105820001020005210B5084C237828B153B9FFF767
:10583000D5FE0123237010BD23B12070BDE81040B8
:10584000FFF7EEBE10BD00BFBE6C002038B50024CF
:10585000044D2B1960590C34596800F0B3F8482CEA
:10586000F7D138BD8079000870B5FFF761FC0D4EA7
:105870000D4B596A3368994210D20C4CD4E900237D
:10588000003243F10103C4E900235418316043F1AD
:105890000005FFF757FC2046294670BD034BD3E9AE
:1058A0000023F2E7C06C0020000C0040C86C002010
:1058B000D0B5FFF73DFC094A094B546A1A68944277
:1058C00007D2084AD2E90067003647F10107C2E96A
:1058D00000671C60FFF736FC2046D0BD000C00407E
:1058E000C06C0020C86C002008B5FFF7BDFF4FF466
:1058F0007A720023FAF7F0FC08BD00BF02440439B5
:10590000064BD2B210B5904200D110BD441C00B27B
:1059100053F8200041F8040FE0B2F4E7504000587B
:105920000F4B30B51C6F240405D41C6F1C671C6F13
:1059300044F400441C670B4C024404392368D2B27F
:1059400043F480732360084B904200D130BD441C67
:1059500051F8045F00B243F82050E0B2F4E700BF12
:1059600000440258004802585040005807B5012230
:1059700001A90020FFF7C2FF019803B05DF804FB06
:1059800013B50446FFF7F2FFA04206D002A9012298
:10599000002041F8044DFFF7C3FF02B010BD000026
:1059A0000144BFF34F8F064B884204D3BFF34F8FA0
:1059B000BFF36F8F7047C3F85C022030F4E700BF7D
:1059C00000ED00E00144BFF34F8F064B884204D343
:1059D000BFF34F8FBFF36F8F7047C3F87002203053
:1059E000F4E700BF00ED00E070470000074B45F210
:1059F00055521A6002225A6040F6FF729A604CF6C5
:105A0000CC421A600122024B1A70704700480058BD
:105A1000D16C0020034B1B781BB14AF6AA22024B23
:105A20001A607047D16C002000480058034B1B6877
:105A30005B0142BF0122024B1A707047D0440258EA
:105A4000D06C00204FF48032014B1A60704700BFC9
:105A5000D0440258014B1878704700BFD06C00202A
:105A6000F0B5BFF34F8FBFF36F8F1D4B0021C3F80D
:105A70005012BFF34F8FBFF36F8F5A6942F4003259
:105A80005A61BFF34F8FBFF36F8FC3F88410BFF31A
:105A90004F8FD3F8802043F6E076C2F3C904C2F3F7
:105AA0004E32A507520102EA060E284621464EEA6A
:105AB0000007013900F14040C3F860724F1CF6D175
:105AC000203A12F1200FEED1BFF34F8F5A6942F402
:105AD00080325A61BFF34F8FBFF36F8FF0BD00BFAD
